:020000040800F2
:1000000078E20420A902000849450008133E0008D0
:10001000454500080D0800083551000800000000A3
:100020000000000000000000000000004146000841
:100030008F090008000000004D45000843460008F5
:10004000C3020008C3020008C3020008C30200087C
:10005000C3020008C3020008C3020008C30200086C
:10006000C3020008C3020008C3020008C30200085C
:10007000C3020008C3020008C3020008C30200084C
:10008000C3020008C3020008C3020008C30200083C
:10009000C3020008C3020008C3020008C30200082C
:1000A000C3020008C3020008C3020008C30200081C
:1000B000C3020008C3020008C3020008C30200080C
:1000C000C3020008C3020008C3020008C3020008FC
:1000D000C302000825510008C3020008C30200083B
:1000E000C3020008C3020008C3020008C3020008DC
:1000F000C3020008C3020008C3020008C3020008CC
:10010000C3020008C3020008C3020008C3020008BB
:10011000C3020008C3020008C3020008C3020008AB
:1001200055080008C3020008C3020008C302000803
:1001300065080008C3020008C3020008C3020008E3
:10014000C3020008C3020008C3020008C30200087B
:10015000C302000875080008C3020008C3020008B3
:10016000193E0008C3020008C3020008C3020008C9
:10017000C3020008C3020008C30200080000000018
:10018000C3020008C3020008C3020008C30200083B
:10019000C3020008C3020008C3020008C30200082B
:1001A000C3020008C3020008C30200088945000812
:1001B000C3020008C3020008C3020008C30200080B
:1001C000C3020008C302000800F002F800F05CF867
:1001D0000AA090E8000C82448344AAF10107DA45A2
:1001E00001D100F051F8AFF2090EBAE80F0013F098
:1001F000010F18BFFB1A43F001031847D45E030038
:10020000F45E03000A444FF0000C10F8013B13F0B9
:10021000070408BF10F8014B1D1108BF10F8015B5F
:10022000641E05D010F8016B641E01F8016BF9D152
:1002300013F0080F1EBF10F8014BAD1C0C1B09D1A9
:100240006D1E58BF01F801CBFAD505E014F8016B1B
:1002500001F8016B6D1EF9D59142D6D370470000AD
:100260000023002400250026103A28BF78C1FBD8BF
:10027000520728BF30C148BF0B6070471FB531F02F
:10028000C1FB1FBD10B510BD00F079F91146FFF795
:10029000F5FF2BF079F800F097F903B4FFF7F2FFC0
:1002A00003BC00F09FF90000094880470948004757
:1002B000FEE7FEE7FEE7FEE7FEE7FEE7FEE7FEE716
:1002C000FEE7FEE704480549054A064B7047000073
:1002D00005470008C901000878CA042078E2042014
:1002E00078D2042078D2042053EA020C00F069800E
:1002F0002DE9F04B4FF00006002B1FBFB3FA83F53A
:1003000003FA05F424FA05F65E4012BF1643B2FA6A
:1003100082F502FA05F4C5F120051EBF22FA05FC9C
:1003200044EA0C04203556EA044C4FEA144418BF42
:10033000641C4FF000084FF00009904271EB030C71
:1003400039D3002919BFB1FA81F701FA07F6B0FADB
:1003500080F700FA07F6C7F120071EBF20FA07FC56
:1003600046EA0C062037B6FBF4FCA7EB0507103F66
:1003700007F01F0BCBF120060CFA0BFB2CFA06F64C
:1003800044BFB3460026202FA4BF5E464FF0000BAB
:100390005BEA060C08BF4FF0010B19EB0B09ABFB36
:1003A000027C48EB0608C01B06FB02CC0BFB03CC0F
:1003B00071EB0C01C1E70B46024641464846BDE8D9
:1003C000F08B13B54FF000004FF00001AFF3008049
:1003D000BDE81C40704740EA0103024630B59B0768
:1003E00010D14FF0013400E008C208C91D1B9D4325
:1003F00015EAC41FF8D013F0FF0102F8011B0DD05D
:100400001B0AF8E711F8013B002B02F8013B05D06D
:1004100011F8013B002B02F8013BF3D130BD10B5C0
:10042000431C02E010F8011B71B18107FAD14FF0B3
:10043000013202C88C1A8C4314EAC211F9D0C01AD6
:100440000A0603D0C01E10BDC01A10BD0A0401D098
:10045000801E10BD0902FCD0401E10BD10B5203A10
:10046000C0F00B80B1E81850203AA0E81850B1E86D
:100470001850A0E81850BFF4F5AF5FEA027C24BF23
:10048000B1E81850A0E8185044BF18C918C0BDE81A
:1004900010405FEA827C24BF51F8043B40F8043BE3
:1004A00008BF7047D20728BF31F8023B48BF11F898
:1004B000012B28BF20F8023B48BF00F8012B7047F2
:1004C0004FF0000200B5134694469646203922BFED
:1004D000A0E80C50A0E80C50B1F12001BFF4F7AF38
:1004E000090728BFA0E80C5048BF0CC05DF804EB1A
:1004F000890028BF40F8042B08BF704748BF20F888
:10050000022B11F0804F18BF00F8012B704700003C
:100510004FF0013C50F8042B51F8043B9A4215D19E
:10052000A2EB0C03934313EACC130BD150F8042B2A
:1005300051F8043B9A4209D1A2EB0C03934313EA0E
:10054000CC13E7D04FF00000704700BFD01A01BABB
:10055000B1FA81F101F0180122FA01F0CB40C1F1AA
:100560002001DBB2C0B2C01A2CFA01F3D11A9143B8
:1005700011EAC311E6D1704770477047704775465E
:1005800000F02CF8AE4605006946534620F00700FF
:10059000854618B020B5FFF795FEBDE820404FF026
:1005A00000064FF000074FF000084FF0000B21F05D
:1005B0000701AC46ACE8C009ACE8C009ACE8C0092A
:1005C000ACE8C0098D46704710B50446AFF3008013
:1005D0002046BDE81040FFF760BE000000487047AD
:1005E00018CA042001491820ABBEFEE7260002000D
:1005F000704770B50546AC6B206C00F0500050BBE6
:10060000206C40F4007020642068806800F0405046
:10061000E8B9A069D8B92068C06A00F4700020B1B8
:100620002068806800F4806088B92068406820F005
:10063000200021684860206C20F480702064206CC9
:1006400000F4805018B9206C40F00100206420466E
:1006500000F09CFA0BE0206C00F0100018B120466E
:1006600000F0AEFA03E0A06BC16C2846884770BD6D
:1006700070B50546AC6B40202064606C40F004000F
:100680006064204600F09CFA70BD70B50446A56B0E
:10069000284600F07DFA70BD5849096821F44031C0
:1006A000574AC2F804131146D1F8041342681143A3
:1006B000524A11600168496821F4807102685160F2
:1006C00001684A68016942EA0121026851600168D3
:1006D000496821F040710268516001684968826888
:1006E0001143026851600168896821F40061026861
:1006F000916001688968C268114302689160414A4B
:10070000816A914218D00168896821F0706102689D
:10071000916001688968826A11430268916001688A
:10072000896821F040510268916001688968C26A55
:100730001143026891600BE00168896821F07061E3
:10074000026891600168896821F0405102689160F7
:100750000168896821F002010268916001688A6875
:10076000816942EA4101026891602021095CA1B1DE
:100770000168496841F40061026851600168496894
:1007800021F460410268516001684A68416A491E6B
:1007900042EA41310268516005E00168496821F48C
:1007A0000061026851600168C96A21F47001026841
:1007B000D1620168CA6A818B491E42EA015102680E
:1007C000D1620168896821F4007102689160016852
:1007D0008A6890F8301042EA41210268916001680D
:1007E000896821F480610268916001688A684169C2
:1007F00042EA8121026891607047000004230140B1
:10080000002001400100000F7047704700BFFEE765
:100810003EB504460A226946094800681CF01EF9E4
:1008200008A16846FFF774FE40B107A16846FFF7CC
:100830006FFE18B105A16846FFF76AFE3EBD0000D5
:100840002C000020316D7300356D730031306D73F5
:100850000000000010B5024800F094FB10BD00003D
:100860005002042010B5024800F08CFB10BD0000BF
:10087000B404042010B5024800F084FB10BD000051
:10088000140504200146087810381823B0FBF3F251
:100890000848805CC865032A05D908686FF3090019
:1008A000001D886503E008686FF309008865886D9E
:1008B000704700000E1A0308014600208A6A8B69FF
:1008C000CBB932B1012A0DD0022A03D0032A10D1AC
:1008D0000EE000BFCB6A03F08073B3F1807F00D1DC
:1008E000012007E0CB6AB3F1C07F00D1012001E015
:1008F00000E000BF34E08B69B3F5005F1AD132B17C
:10090000012A07D0022A03D0032A11D10AE000BF2E
:1009100001200EE0CB6A03F08073B3F1807F00D139
:10092000012006E0CB6AB3F1C07F00D1012000E0D6
:1009300000BF15E032B1012A05D0022A04D0032AF3
:100940000CD103E000BF00BF012008E0CB6A03F038
:100950008073B3F1807F00D1012000E000BF00BFB1
:10096000704730B50468246824F4802405682C603E
:10097000046863608468402C04D10468A260046841
:10098000E16003E00468A1600468E26030BD704784
:1009900072B600BFFEE7000018B5024600200090C6
:1009A00000BF92F83C00012801D1022018BD0120AF
:1009B00082F83C0000BF0868092826D90868B0F111
:1009C000004F22D01068C0680B780A3B03EB430449
:1009D0000723A34098431368D860674B0868984280
:1009E00007D11068C0680B7A40EA03601368D860CA
:1009F0001FE00B780A3B03EB4303886898401368B9
:100A0000DB6818431368D86013E0106800690B783E
:100A100003EB43040723A3409843136818610B7842
:100A200003EB43038868984013681B6918431368F5
:100A300018614868072817D21068406B0B795B1E55
:100A400003EB83041F23A34098431368586308886B
:100A500080B20B795B1E03EB8303984013685B6BDA
:100A600018431368586331E048680D2817D210689E
:100A7000006B0B79DB1F03EB83041F23A340984318
:100A800013681863088880B20B79DB1F03EB8303BC
:100A9000984013681B6B18431368186316E01068BE
:100AA000C06A0B790D3B03EB83041F23A3409843DB
:100AB0001368D862088880B20B790D3B03EB83037F
:100AC00098401368DB6A18431368D8622B4B106890
:100AD000984209D10868B0F1004F05D12848006854
:100AE00020F44000C3F80403244B106898420FD14F
:100AF000086812280CD12248006820F40000C3F8CE
:100B000004031846D0F8040340F48000C3F804033B
:100B10001A4B1068984228D1174B0868984202D0A7
:100B20000868112821D11648006820F48000134B72
:100B3000C3F804031846D0F8040340F40000104B37
:100B400018600D4B086898420FD10E4800680E4B94
:100B5000B0FBF3F000EB80004000009002E0009852
:100B6000401E009000980028F9D100BF002082F8B4
:100B70003C0000BF00BF19E7120000100020014038
:100B8000042301401C00002040420F007047000079
:100B900010B50446064800F014F8064908800846D7
:100BA000008805490988401A0449088010BD0000E2
:100BB000080204200200002004000020060000209B
:100BC000704701460868C06C7047000070B5044665
:100BD00000250CB9012070BD1549A06A884200D0DB
:100BE00000BF206C30B9204600F024F8002060647B
:100BF00084F83C00206C00F0100088B9206C20F4D0
:100C0000885040F0020020642046FFF745FD002098
:100C10006064206C20F0020040F00100206400E0DD
:100C2000012500BF002084F83C0000BF2846D2E721
:100C30000100000F10B586B00446142101A8FFF78B
:100C40003FFC3249206888425DD100BF30480068CF
:100C500040F480602E4908600846006800F4806017
:100C6000009000BF00BF00BF29481438006840F062
:100C700020002749143908600846006800F0200069
:100C8000009000BF00BF00BF0846006840F00100B0
:100C900008600846006800F00100009000BF00BF37
:100CA00008150190032002900020039001A9194823
:100CB00000F062FB012001900320029000200390CD
:100CC00001A9154800F058FB144815490860800533
:100CD0004860002112488160C1604FF48061016169
:100CE00049004161890081614911C16100210162AE
:100CF000416200F067FA08B1FFF74AFE00BF0848FA
:100D0000A063846300BF06B010BD00000022014054
:100D100044380240001402400000024010640240C7
:100D200050020420F8B504460D46164600200090F7
:100D300000BF94F83C00012801D10220F8BD012039
:100D400084F83C0000BF2068806800F00100A0B972
:100D50002068806840F00100216888604C48006885
:100D60004C49B0FBF1F000EB4000009002E000982D
:100D7000401E009000980028F9D12068806800F09B
:100D8000010000287AD0206C40F20161884340F4D1
:100D9000807020642068406800F4806028B1206C76
:100DA00020F4005040F480502064206C00F4805007
:100DB000B0F5805F04D1606C20F00600606401E053
:100DC0000020606400BF002084F83C0000BF32486F
:100DD000A16BC8633148A16B08643148A16BC8643A
:100DE0006FF02200216808602068406840F0806051
:100DF000216848602068806840F4807021688860BD
:100E0000226802F14C0133462A46A06B00F050FAEA
:100E10002448006800F01F0058B92068806800F07E
:100E2000405048BB2068806840F08040216888605E
:100E30002CE01D49206888420AD12068806800F0B3
:100E4000405028B92068806840F080402168886060
:100E50001448006800F0100070B9144920688842F6
:100E600014D12068806800F0405028B9206880685C
:100E700040F080402168886008E0FFE7206C40F087
:100E800010002064606C40F001006064002055E7B1
:100E90001C00002040420F00F30500088B060008EC
:100EA0007106000804230140002001400022014097
:100EB00070B50446A56D00F06BFB064694F835004E
:100EC000022808D08020606500BF002084F834002C
:100ED00000BF012070BD2068006820F01600216866
:100EE00008602068406920F0800021684861206C1B
:100EF00008B9A06C28B12068006820F008002168BB
:100F000008602068006820F001002168086010E097
:100F100000F03EFB801B05280BD9202060650320D4
:100F200084F8350000BF002084F8340000BF03209F
:100F3000D0E72068006800F001000028E8D194F8AC
:100F40005C103F208840A860012084F8350000BF75
:100F5000002084F8340000BF00BFBBE7014691F8D1
:100F60003500022803D08020486501207047052005
:100F700081F835000868006820F001000A681060F8
:100F80000020F3E7F8B50446002000908C48006884
:100F90004FF41651B0FBF1F7A56D2E6894F85C1074
:100FA00008208840304098B12068006800F00400B4
:100FB00070B12068006820F004002168086094F88F
:100FC0005C1008208840A860606D40F001006065FA
:100FD00094F85C1001208840304068B12068406976
:100FE00000F0800040B194F85C1001208840A860B7
:100FF000606D40F00200606594F85C100420884049
:10100000304068B12068006800F0020040B194F8F8
:101010005C1004208840A860606D40F004006065AA
:1010200094F85C1010208840304078B32068006845
:1010300000F0080050B394F85C1010208840A860BD
:101040002068006800F4802080B12068006800F407
:10105000002028B9206CC8B12046216C884715E0D3
:10106000A06C98B12046A16C88470FE0206800680A
:1010700000F4807028B92068006820F0080021681A
:101080000860206C10B12046216C884794F85C10F1
:10109000202088403040002865D02068006800F09B
:1010A000100000285FD094F85C1020208840A860D1
:1010B00094F83500052828D12068006820F0160033
:1010C000216808602068406920F08000216848613C
:1010D000206C08B9A06C28B12068006820F00800D6
:1010E0002168086094F85C103F208840A8600120C7
:1010F00084F8350000BF002084F8340000BF206D64
:1011000010B12046216D8847F8BD2068006800F4C2
:10111000802080B12068006800F4002028B9606C4D
:1011200010B12046616C88471DE0E06BD8B12046C5
:10113000E16B884717E02068006800F4807068B9A8
:101140002068006820F0100021680860012084F801
:10115000350000BF002084F8340000BFE06B10B100
:101160002046E16B8847606D38B3606D00F0010088
:10117000F0B1052084F835002068006820F00100F7
:101180002168086000BF0098401C0090B84200D958
:1011900005E02068006800F001000028F3D100BFDE
:1011A000012084F8350000BF002084F8340000BF1F
:1011B000E06C10B12046E16C884700BFA4E7000056
:1011C0001C0000202DE9F0410446002500F0E0F964
:1011D000074614B90120BDE8F081606A00B100BF84
:1011E000022084F8350000BF002084F8340000BFDE
:1011F0002068006820F00100216808600AE000F023
:10120000C7F9C01B052805D920206065032084F894
:101210003500E0E72068006800F001000028EED10A
:101220002068056821480540D4E901010843E168C8
:1012300008432169084361690843A1690843E169DA
:101240000843216A08430543606A042803D1D4E9AE
:101250000B0108430543206805602068456925F0B7
:101260000705606A0543606A04280DD1A06A05433A
:10127000E06A48B12046FFF71FFB28B140206065B7
:10128000012084F83500A6E7206845612046FFF775
:10129000F9FA064694F85C103F208840B0600020C0
:1012A0006065012084F83500002094E73F8010F04D
:1012B0002DE9F04704460D4616461F464FF000083C
:1012C000D4F8589000BF94F83400012802D10220CD
:1012D000BDE8F087012084F8340000BF94F83500A1
:1012E00001282BD1022084F83500002060653B46A0
:1012F000324629462046FFF734FB94F85C103F2025
:101300008840C9F808002068006840F0160021688D
:1013100008602068406940F0800021684861206CC6
:1013200028B12068006840F0080021680860206843
:10133000006840F001002168086006E000BF00205E
:1013400084F8340000BF4FF002084046C0E70000B8
:1013500070B5044600F01CF906462546681C10B11D
:1013600004480078054400BF00F012F9801BA84231
:10137000FAD370BD18000020F8B502460B460021D4
:1013800000250024002000BFDEE0012606FA01F55A
:101390001E6806EA0504AC4272D11E7906F0030607
:1013A000012E04D01E7906F00306022E13D1906898
:1013B0004F000326BE40B0434F00DE68BE403043BE
:1013C0009060506801268E40B0431E79C6F3001627
:1013D0008E40304350601E7906F00306032E09D07C
:1013E000D0684F000326BE40B0434F009E68BE4009
:1013F0003043D0601E7906F00306022E13D1CF08C9
:1014000002F1200656F827004E07F70E0F26BE40C1
:10141000B0434F07FF0E1E69BE403043CF0802F1B4
:10142000200646F8270010684F000326BE40B04350
:101430001E7906F003064F00BE40304310605E6820
:1014400006F44036002E7ED000BF414E366846F48A
:1014500080463F4F3E603E46366806F48046009622
:1014600000BF00BF3B4E8F0856F827008E07370F8E
:101470000F26BE40B043384EB24202D100262EE0C5
:1014800061E0364EB24201D1012628E0344EB2422C
:1014900001D1022623E0334EB24201D103261EE0E1
:1014A000314EB24201D1042619E0304EB24201D190
:1014B000052614E02E4EB24201D106260FE02D4E35
:1014C000B24201D107260AE02B4EB24201D10826D2
:1014D00005E02A4EB24201D1092600E00A268F0714
:1014E0003F0FBE4030431B4E8F0846F82700244E66
:1014F0003068A0435E6806F4801606B12043204E93
:101500003060361D3068A0435E6806F4001606B1F0
:1015100020431B4E361D3060194E361F3068A043E5
:101520005E6806F4003606B12043154E361F306063
:10153000361F3068A0435E6806F4803606B120434B
:101540000F4E083E3060491C1029FFF41EAFF8BD55
:1015500044380240083801400000024000040240C4
:1015600000080240000C024000100240001402403B
:1015700000180240001C02400020024000240240EB
:10158000083C01400AB1816101E00B0483617047AE
:10159000014800687047000010000020024692F8E1
:1015A000410020282DD100BF92F84000012801D130
:1015B00002207047012082F8400000BF242082F8FA
:1015C00041001068006820F001001368186010687E
:1015D000006820F4805013681860106800680843A1
:1015E000136818601068006840F001001368186004
:1015F000202082F8410000BF002082F8400000BF98
:10160000D7E70220D5E710B502460B4692F8410015
:1016100020282AD100BF92F84000012801D10220E1
:1016200010BD012082F8400000BF242082F8410054
:101630001068006820F001001468206010680168DC
:1016400021F4706141EA03211068016010680068AC
:1016500040F0010014682060202082F8410000BFA3
:10166000002082F8400000BFDAE70220D8E770B51A
:1016700004462068856920680668606B20B13246A0
:1016800029462046636B984770BD000010B504469C
:101690000CB9012010BD94F8410028B9002084F84D
:1016A0004000204600F054F8242084F841002068CF
:1016B000006820F0010021680860606820F0706018
:1016C000216808612068806820F4004021688860F3
:1016D000E068012805D1A06840F4004021688860D6
:1016E00004E0A06840F4044021688860E0680228B3
:1016F00002D180022168486020684068134908438D
:10170000216848602068C06820F400402168C860F3
:10171000D4E904010843A16940EA01202168C860B6
:10172000D4E907010843216808602068006840F098
:1017300001002168086000206064202084F84100D6
:101740000020206384F8420000BFA3E7008000026D
:1017500010B5A8B00446142123A8FEF7B1FE8421D9
:1017600002A8FEF7ADFE2349206888423FD14FF41E
:101770008030029000201D9002A800F09BFB08B171
:10178000FFF706F900BF1C48006840F080001A49C6
:1017900008600846006800F08000019000BF00BFAC
:1017A0004FF4C07023901220249000202590032035
:1017B00026900420279023A91048FFF7DDFD00BFE5
:1017C0000D481030006840F400000B4910310860EB
:1017D0000846006800F40000019000BF00BF00222E
:1017E0001146482000F0E6F9482000F0D3F928B06F
:1017F00010BD0000005C004030380240001C024078
:1018000003480068034909780844014908607047A3
:10181000100000201800002010B5032000F008FA86
:101820000F2000F005F800F095F9002010BD000031
:1018300070B504460E4800784FF47A71B1FBF0F0B1
:101840000C490968B1FBF0F5284601F0AFFD08B17D
:10185000012070BD102C07D200222146501E00F03E
:10186000A9F90548046001E00120F2E70020F0E753
:10187000180000201C0000201400002070B5044651
:101880000E46154600BF94F8A000012801D10220A1
:1018900070BD012084F8A00000BF022084F8A100E0
:1018A00005EB850101EBC50204F1380101EB820073
:1018B00034223146FEF7D2FD2A463146204602F058
:1018C000B3FA01202168486284F8A10000BF00201B
:1018D00084F8A00000BF00BFDAE7000070B504463E
:1018E0000CB9012070BD94F8A10028B9002084F83B
:1018F000A000204600F07EF8022084F8A1002068B5
:10190000806920F0704021688861D4E901010843B2
:10191000E16808432169084321688969084321680F
:101920008861206880683249084021688860A08A00
:10193000050420688068A1692943084321688860FC
:101940002068C0682A4908402168C860A08B050447
:101950002068C068216A294308432168C86020685C
:1019600000692349084021680861A08C05042068AB
:101970000069A16A29430843216808612068406919
:101980001B49084021684861A08D05042068406912
:10199000216B294308432168486194F8350005020A
:1019A00094F8360006042068C06A00F07F40216881
:1019B000C86246EA050094F8341008432168C96AF1
:1019C00008432168C8622068406B40F00600216827
:1019D00048632068806940F0010021688861002028
:1019E000C4F8A400012084F8A10000207AE70000D8
:1019F00000F800F010B5A8B00446142123A8FEF7A3
:101A00005FFD842102A8FEF75BFD4C4920688842F7
:101A10007ED108200290C82007900521099102215B
:101A2000089100210A9101200C9000040D9002A859
:101A300000F040FA08B1FEF7ABFF00BF4048006875
:101A400040F080603E4908600846006800F0806011
:101A5000019000BF00BF00BF39481438006840F44F
:101A600080603749143908600846006800F48060D7
:101A7000019000BF00BF00BF0846006840F0400072
:101A800008600846006800F04000019000BF00BFF9
:101A900000BF0846006840F480700860084600688F
:101AA00000F48070019000BF00BF00BF08460068CE
:101AB00040F4007008600846006800F4007001906F
:101AC00000BF00BFF7202390022024900020259023
:101AD00026900E20279023A91A48FFF74DFC4FF4BB
:101AE00080502390022024900020259026900920E9
:101AF000279023A91448FFF73FFC4FF48C40239014
:101B0000022024900020259026900E20279000E0AF
:101B100011E023A90D48FFF72FFC48F67C602390C5
:101B2000022024900020259026900E20279023A9A3
:101B30000748FFF721FC28B010BD000000680140F5
:101B400044380240002802400018024000200240B1
:101B50000024024008B500BF0D48006840F08050E6
:101B60000B4908600846006800F08050009000BFF4
:101B700000BF00BF081D006840F48040091D0860D8
:101B80000846006800F48040009000BF00BF08BD18
:101B90004038024001460846002809DB00F01F03D8
:101BA00001229A4043099B0003F1E023C3F800217E
:101BB00000BF70472DE9F05F80460D4616460027AE
:101BC00003F0BAFA074639462A46334601F00700C1
:101BD000C0F1070ABAF1040F02D94FF0040A01E07C
:101BE000C0F1070AD14600F1040ABAF1070F02D288
:101BF0004FF0000A01E0A0F1030AD4464FF0010AB9
:101C00000AFA09FAAAF1010A0AEA020A0AFA0CFA1D
:101C10004FF0010B0BFA0CFBABF1010B0BEA030BC2
:101C20004AEA0B042146404603F08EFABDE8F09FD5
:101C300000BF00F00702064B19684FF6FF0319407A
:101C4000044B0B4343EA0221014B196000BF70476C
:101C50000CED00E00000FA0538B5002400BF204874
:101C6000006840F080501E4908600846006800F097
:101C70008050009000BF00BF1A48006840F48030D8
:101C800018490860FFF784FC044607E0FFF780FC72
:101C9000001BB0F57A7F01D9032038BD1148406898
:101CA00000F48030B0F5803FF0D10E48006840F479
:101CB00000300C490860FFF76BFC044607E0FFF7B3
:101CC00067FC001BB0F57A7F01D90320E5E70548E2
:101CD000406800F40030B0F5003FF0D10020DCE7B0
:101CE000403802400070004070B5044600210020DA
:101CF00000220023B4F5002F67D16A4D2B6803F44E
:101D0000401333B1B3F5801F2FD0B3F5001F5AD164
:101D100057E0644D883D2D6805F4800545B9614D57
:101D2000883D2D6805F03F055F4EB6FBF5F207E0F4
:101D30005C4D883D2D6805F03F055C4EB6FBF5F225
:101D4000584D2D1F2D68C5F30361564D2D1F2D686D
:101D5000C5F388155543B5FBF1F0524D2D68C5F319
:101D60000425691CB0FBF1F02EE04E4D883D2D6836
:101D700005F4800545B94B4D883D2D6805F03F05BC
:101D8000494EB6FBF5F207E0464D883D2D6805F05B
:101D90003F05464EB6FBF5F2424D083D2D68C5F3B2
:101DA0000361404D083D2D68C5F388155543B5FBCB
:101DB000F1F03C4D2D6805F01F05691CB0FBF1F0FA
:101DC00002E03B4800E000BF00BFB4F5801F67D1D0
:101DD000344D2B6803F4400333B1B3F5800F2FD09B
:101DE000B3F5000F5AD157E02E4D883D2D6805F40C
:101DF000800545B92B4D883D2D6805F03F052A4EDD
:101E0000B6FBF5F207E0274D883D2D6805F03F054C
:101E1000264EB6FBF5F2234D2D1F2D68C5F3036149
:101E2000204D2D1F2D68C5F388155543B5FBF1F0E6
:101E30001C4D2D68C5F30425691CB0FBF1F02EE0A4
:101E4000184D883D2D6805F4800545B9154D883D30
:101E50002D6805F03F05144EB6FBF5F207E0114D75
:101E6000883D2D6805F03F05104EB6FBF5F20D4D8F
:101E7000083D2D68C5F303610A4D083D2D68C5F383
:101E800088155543B5FBF1F0064D2D6805F01F058B
:101E9000691CB0FBF1F002E0054800E000BF00BFA4
:101EA00070BD00008C3802400024F40040787D01B1
:101EB0000080BB002DE9F8430446002600250027DA
:101EC000A846A946207800F0010088B100BFFE486E
:101ED000006820F40000FC49086008460068616B57
:101EE0000843F949086000BF606B08B94FF001086A
:101EF000206800F40020B0F5002F13D1F2488430A0
:101F0000006820F44010E16B0843EF498431086019
:101F1000E06BB0F5801F01D14FF00108E06B08B90C
:101F20004FF00109206800F48010B0F5801F13D134
:101F3000E5488430006820F44000216C0843E24901
:101F400084310860206CB0F5800F01D14FF001089A
:101F5000206C08B94FF00109206800F08070B0F1E2
:101F6000807F01D14FF00108207800F02000202868
:101F700070D100BFD4483830006840F08050D2495A
:101F8000383108600846006800F08050009000BFBB
:101F900000BFCE48006840F48070CC490860FFF76D
:101FA000F7FA064607E0FFF7F3FA801B642802D928
:101FB0000320BDE8F883C548006800F4807000285D
:101FC000F1D0C1486830006800F4407585B3208EB8
:101FD00000F44070A8422BD0BB486830006820F461
:101FE0004075B9486830006840F48030B6496831BF
:101FF00008600846006820F48030086008460560E4
:10200000006800F0010098B1FFF7C2FA064608E048
:10201000FFF7BEFA801B41F28831884201D90320C4
:10202000C7E7A94868300068C0F340000028EFD037
:1020300000BF208E00F44070B0F5407F0BD1A24865
:10204000006820F4F810A24A216B114008439E4911
:10205000086006E010E09C48006820F4F8109A49F7
:102060000860994868300068218EC1F30B0108436D
:1020700095496831086000BF207800F010001028F2
:1020800010D100BF90488430006820F080708E49E5
:102090008431086008460068A16B08438A4984318E
:1020A000086000BF208800F48040B0F5804F09D15F
:1020B00085488830006820F44030616E08438249CA
:1020C00088310860208800F40040B0F5004F09D145
:1020D0007D488830006820F44020A16E08437A498A
:1020E00088310860206800F48030B0F5803F09D165
:1020F00075488830006820F44010E16E084372494A
:1021000088310860206800F40030B0F5003F09D144
:102110006D488830006820F44000216F08436A4908
:1021200088310860207800F04000402809D16648D6
:102130008830006820F00300616C084362498831F0
:102140000860207800F08000802809D15E4888303F
:10215000006820F00C00A16C08435B4988310860DE
:10216000208800F48070B0F5807F09D1564888300F
:10217000006820F03000E16C084353498831086062
:10218000208800F40070B0F5007F09D14E488830F7
:10219000006820F0C000216D08434B498831086079
:1021A000208800F48060B0F5806F09D146488830FF
:1021B000006820F44070616D08434349883108602D
:1021C000208800F40060B0F5006F09D13E488830E7
:1021D000006820F44060A16D08433B4988310860E5
:1021E000208800F48050B0F5805F09D136488830EF
:1021F000006820F44050E16D08433349883108609D
:10220000208800F40050B0F5005F09D12E488830D6
:10221000006820F44040216E08432B498831086053
:10222000206800F48000B0F5800F09D1264888307E
:10223000006820F08060A16F08432349883108605E
:10224000206800F40010B0F5001F0FD11E48883040
:10225000006820F00060E16F08431B498831086086
:10226000E06FB0F1006F01D14FF00109207800F06C
:102270000800082801D14FF00109206800F48020EF
:10228000B0F5802F09D110488830006820F04070E8
:10229000616F08430C4988310860206800F4000031
:1022A000B0F5000F0AD108488830006820F080504F
:1022B000D4F880100843044988310860B8F1010F50
:1022C0000DD0206806E00000083802400070004091
:1022D000FFFCFF0F00F00070B0F1007F7DD1AD4832
:1022E000006820F08060AB490860FFF751F90646AE
:1022F00006E0FFF74DF9801B642801D9032058E65A
:10230000A4480068C0F3C0600028F2D1207800F033
:102310000100B8B1606BA8B99E4884300068C0F372
:1023200001459C4884300068C0F303676068800101
:1023300040EA054040EA0761207A41EA0070954989
:1023400084310860206800F40020B0F5002F03D12C
:10235000E06BB0F5801F09D0206800F48010B0F564
:10236000801F24D1206CB0F5800F20D189488430A3
:102370000068C0F30145874884300068C0F30277E5
:102380006068800140EA0541207B41EA006040EA44
:1023900007708049843108607E488C30006820F0E6
:1023A0001F00616A491E08437A498C310860206821
:1023B00000F08070B0F1807F17D1764884300068DB
:1023C000C0F30365734884300068C0F30277606827
:1023D0008101208A41EA004000E031E040EA0560E6
:1023E00040EA07706B4984310860206800F0007093
:1023F000B0F1007F0DD160688101208A41EA00417F
:10240000207B41EA0061207A41EA00706149843111
:1024100008606048006840F080605E490860FFF72F
:10242000B7F8064606E0FFF7B3F8801B642801D929
:102430000320BEE557480068C0F3C0600028F2D012
:10244000B9F1010F7ED15348006820F08050514906
:102450000860FFF79DF8064606E0FFF799F8801B35
:10246000642801D90320A4E54A480068C0F34070FD
:102470000028F2D1206800F40020B0F5002F01D12F
:10248000E06B38B1206800F48010B0F5801F22D1D5
:10249000206C00BB3F4888300068C0F301453D48D0
:1024A00088300068C0F302776069800140EA054126
:1024B000207E41EA006040EA0770364988310860B2
:1024C000081D006820F4F851A06A401E41EA00206F
:1024D00030498C310860206800F40010B0F5001F0E
:1024E00019D1E06FB0F1006F15D12A48883000682B
:1024F000C0F30365274888300068C0F3027760693D
:102500008101208C41EA004040EA056040EA077002
:10251000204988310860207800F00800082820D180
:102520001C4888300068C0F303651A48883000688A
:10253000C0F301476069800140EA074040EA056155
:10254000207F00E024E041EA0070124988310860F1
:10255000081D006820F44030E16A08430D498C31C1
:1025600008600C48006840F080500A490860FFF796
:102570000FF8064606E0FFF70BF8801B642801D928
:10258000032016E503480068C0F340700028F2D02D
:1025900000200EE50038024070B504460D460026C6
:1025A0000CB9012070BD5C48006800F00F00A84223
:1025B0000ED25948006820F00F00284356490860A1
:1025C0000846006800F00F00A84201D00120E9E7AA
:1025D000207800F0020002281DD1207800F00400CD
:1025E000042805D14D48006840F4E0504B4908608C
:1025F000207800F00800082805D14848006840F419
:102600006040464908604548006820F0F000A16835
:10261000084342490860207800F0010090B36068E8
:10262000012807D13D4808380068C0F34040A0B9F0
:102630000120B7E76068022807D1384808380068E9
:10264000C0F3406048B90120ACE73448083800685E
:10265000C0F3400008B90120A4E73048006820F02A
:102660000300616808432D490860FEF791FF0646A4
:1026700009E0FEF78DFF801B41F28831884202D9C4
:1026800003208FE707E02548006800F00C00616830
:10269000B0EB810FEDD12048006800F00F00A84298
:1026A0000ED91D48006820F00F0028431A49086021
:1026B0000846006800F00F00A84201D0012071E731
:1026C000207800F00400042807D11448006820F4A2
:1026D000E050E168084311490860207800F00800E4
:1026E000082808D10D48006820F46040216940EABC
:1026F000C1000A49086000F03FF808490968C1F3C1
:102700000311074A515CC840064908600648006842
:10271000FFF78EF8002045E7003C024008380240F1
:10272000161A03081C00002014000020014800684D
:10273000704700001C00002000B5FFF7F7FF0449B8
:102740000968C1F38221034A515CC84000BD000002
:1027500008380240261A030800B5FFF7E7FF0449CE
:102760000968C1F34231034A515CC84000BD000012
:1027700008380240261A03082DE9F04700240025F6
:102780000026A1462548006800F00C0020B104286E
:1027900005D008283AD105E0DFF8849039E0DFF869
:1027A000849036E01D48001F006800F03F041B487D
:1027B000001F006800F4800078B11A481749091F0B
:1027C0000968C1F38811A0FB01700146224600236D
:1027D0003846FDF789FD05460EE011480F49091FEF
:1027E0000968C1F38811A0FB01700146224600234D
:1027F0003846FDF779FD05460848001F0068C0F31C
:102800000140401C4600B5FBF6F902E0DFF81090ED
:1028100000BF00BF4846BDE8F0870000083802400E
:102820000024F40040787D01F8B5044600270CB977
:102830000120F8BD207800F00100002871D0F9488F
:10284000006800F00C0004280DD0F648006800F085
:102850000C00082813D1F348001F006800F4800022
:10286000B0F5800F0BD1EF4808380068C0F3404046
:10287000002869D06068002866D10120D9E700BF30
:102880006068B0F5803F08D1E6480838006840F439
:102890008030E449083908602EE0606868B9E14892
:1028A0000838006820F48030DE490839086008469E
:1028B000006820F4802008601EE06068B0F5A02F5A
:1028C0000DD1D8480838006840F48020D54908392F
:1028D00008600846006840F4803008600CE0D14889
:1028E0000838006820F48030CE490839086008466E
:1028F000006820F48020086000BF606890B1FEF797
:1029000047FE054606E0FEF743FE401B642801D95A
:1029100003208EE7C34808380068C0F34040002811
:10292000F1D011E0FEF734FE054606E0FEF730FE7A
:10293000401B642801D903207BE7BA4808380068A7
:10294000C0F340400028F1D1207800F002000228B6
:1029500069D1B448006800F00C0058B1B148006873
:1029600000F00C0008281CD1AE48001F006800F4DD
:102970008000B0B9AB4808380068C0F3400020B10F
:10298000E068012801D0012053E7A6480838006814
:1029900020F0F800216940EAC100A2490839086026
:1029A00041E0E06828B39F480838006840F0010023
:1029B0009C4908390860FEF7EBFD054606E0FEF786
:1029C000E7FD401B022801D9032032E7954808386B
:1029D0000068C0F340000028F1D092480838006831
:1029E00020F0F800216940EAC1008E4908390860EA
:1029F00019E08C480838006820F00100894908393E
:102A00000860FEF7C5FD054606E0FEF7C1FD401B68
:102A1000022801D903200CE7824808380068C0F377
:102A200040000028F1D1207800F00800082836D1B5
:102A30006069D0B17B486C30006840F00100794992
:102A40006C310860FEF7A4FD054606E0FEF7A0FD28
:102A5000401B022801D90320EBE672486C30006865
:102A6000C0F340000028F1D019E06E486C300068D7
:102A700020F001006B496C310860FEF789FD0546C6
:102A800006E0FEF785FD401B022801D90320D0E6B1
:102A900064486C300068C0F340000028F1D1207811
:102AA00000F00400042874D15E483830006800F05B
:102AB000805080B900BF5B483830006840F08050DB
:102AC0005849383108600846006800F0805000908E
:102AD00000BF00BF01275448006800F48070B0B9FF
:102AE0005148006840F480704F490860FEF750FD7F
:102AF000054606E0FEF74CFD401B642801D9032083
:102B000097E64948006800F480700028F2D000BFC2
:102B1000A068012808D143486830006840F00100EF
:102B20004049683108602DE0A06868B93D486830C8
:102B3000006820F001003B496831086008460068E1
:102B400020F0040008601DE0A06805280DD135487C
:102B50006830006840F00400324968310860084677
:102B6000006840F0010008600CE02E486830006802
:102B700020F001002B49683108600846006820F009
:102B80000400086000BFA068A8B1FEF701FD05467B
:102B900009E02EE0FEF7FCFC401B41F28831884240
:102BA00001D9032045E61F4868300068C0F34000A3
:102BB0000028EFD013E0FEF7EBFC054608E0FEF737
:102BC000E7FC401B41F28831884201D9032030E6FE
:102BD000144868300068C0F340000028EFD1012F8E
:102BE00007D110483830006820F080500D49383146
:102BF0000860A069002852D00A48006800F00C0064
:102C0000082865D0A06902284AD10648083800681B
:102C100020F08070034908390860FEF7B9FC0546CA
:102C20000BE000000838024000700040FEF7B0FCE6
:102C3000401B022801D90320FBE53B480068C0F394
:102C400040600028F2D1E06940F00050216A08435A
:102C5000616A40EA81110122A06AC2EB500041EA98
:102C600000412C20005D41EA00602F49091D0860E9
:102C7000081F006840F08070091F0860FEF788FC9C
:102C8000054606E0FEF784FC401B022801D903201C
:102C9000CFE525480068C0F340600028F2D040E04E
:102CA0002148006820F080701F490860FEF770FC22
:102CB000054606E0FEF76CFC401B022801D9032004
:102CC000B7E519480068C0F340600028F2D128E059
:102CD0001548001D0668A069012820D006F480016F
:102CE000E06981421BD106F03F01206A814216D182
:102CF00047F6C0703040616AB0EB811F0FD106F417
:102D000040310122A06AC2EB5000B1EB004F06D166
:102D100006F070612C20005DB1EB006F01D0012046
:102D200087E5002085E500000038024070B50446C4
:102D3000002500BF94F87C00012801D1022070BD5D
:102D4000012084F87C0000BF2068006800F4003097
:102D5000B0F5003F2FD12068006820F400302168D2
:102D60000860E06E90B194F87D0012280ED1E06EFC
:102D7000FEF79EF850B1E06E406D802806D0012528
:102D8000D4F8800040F08000C4F88000206F90B13B
:102D900094F87D0022280ED1206FFEF789F850B1FB
:102DA000206F406D802806D00125D4F8800040F0C7
:102DB0008000C4F88000002021680861401E21685E
:102DC0008861204601F012FC2068406840F008004D
:102DD00021684860012084F87D0000BF002084F84D
:102DE0007C0000BF2846AAE770B506460A4800F0F6
:102DF00017F80446094800F013F80546022C01D0E4
:102E0000122C01D1FDF701FD022D01D0222D01D19F
:102E1000FDF7FAFC70BD000070060420F4060420E3
:102E2000014691F87D0070472DE9F041044694F881
:102E30007D0000287ED020684569206806692068EA
:102E4000076805F00800082807D106F008000828E0
:102E500003D12046A16F8847CFE005F00100B8B14B
:102E600006F00100A0B101202168886194F87D007E
:102E7000222801D1012000E002208046D4F8800001
:102E800040EA0800C4F880002046FFF7ADFFB4E038
:102E900005F0020002280BD106F00200022807D13B
:102EA00021688861606F0028D6D0606F8047A4E0F9
:102EB00005F0200020282AD106F02000202826D165
:102EC00021688861D4F8800040F00400C4F88000D4
:102ED00007F40030B0F5003F12D1E06E30B1484841
:102EE000E16E0865E06EFEF739F886E0206F002895
:102EF000B2D04348216F0865206FFEF72FF87CE0C1
:102F00002046FFF713FF2046FFF76EFF75E005F040
:102F1000400040282CD106F04000402828D12168EC
:102F20008861D4F8800040F00800C4F8800007F4FD
:102F3000003000E062E0B0F5003F12D1E06E30B149
:102F40002F48E16E0865E06EFEF708F855E0206F47
:102F5000002852D02A48216F0865206FFDF7FEFF38
:102F60004BE02046FFF7E2FE2046FFF73DFF44E03E
:102F700005F0040004282DD106F00400042829D10E
:102F800021688861D4F8800040F02000C4F88000F7
:102F9000E06E30B11A48E16E0865E06EFDF7DEFFC5
:102FA0002BE0206F30B11648216F0865206FFDF7C8
:102FB000D5FF22E0002021680861401E2168886159
:102FC000012084F87D000020A4F86A002046FFF765
:102FD0000BFF12E005F0100010280ED106F01000D3
:102FE00010280AD121688861D4F8800040F01000D0
:102FF000C4F880002046FFF7F7FE00BFBDE8F0816F
:10300000A14500082DE9F047044600250027A84601
:1030100014B90120BDE8F08794F87D0028B900209C
:1030200084F87C00204600F001F9022084F87D003D
:10303000204601F0DBFAE06820B1012804D0022824
:1030400006D103E0002504E0102502E0202500E081
:1030500000BF00BFA06830B1012807D0022808D007
:1030600003280ED108E04FF000080BE04FF4806811
:1030700008E04FF4006805E04FF4006845F00105F2
:1030800000E000BF00BF65492068884204D0634962
:1030900020312068884203D16048001F056001E0AC
:1030A0005F480560E069C8B34FF000095B492068DC
:1030B000884204D0594920312068884204D14FF415
:1030C0000020FEF711FE81465549091D20688842FF
:1030D00004D0534924312068884204D14FF4801031
:1030E000FEF702FE814609EB89004100E0694002DB
:1030F000B1FBF0F60A20B6FBF0F12162B6FBF0F16D
:1031000000FB1160082802D9206A401C2062206B55
:10311000042802D1206A4108216200BF606810B112
:103120006068022808D1E06B012801D1002001E08D
:103130004FF40070074606E0E06B012801D1400221
:1031400000E00020074620680068364908402168F2
:103150000860216B60680843616B0843A16B0843FA
:10316000384340EA0800616A0843216908436169FD
:103170000843218C40EA015021680968084321680E
:103180000860206840684EF20F018843216848605B
:10319000A16AA0690843E16A0843216849680843B5
:1031A00021684860206880681F490840216888605D
:1031B000206C401E216D0843A16C0843E16C08435C
:1031C000616C491E40EA0120216889680843216832
:1031D00088602068C0684FF2200108402168C860FC
:1031E000D4E9150108436021095B40EA0141E06D23
:1031F000401E41EA00202168C96808432168C86070
:103200000020C4F88000012084F87D0000BF002069
:1032100084F87C0000BF00BFFCE6000004580140B9
:10322000005C014010C005FF0080F8FF10B586B0BB
:1032300004465649206888424FD155480068A8B9CD
:1032400000BF5448006840F4000052490860084636
:10325000006800F40000009000BF00BF002211468B
:103260005B20FEF7A7FC5B20FEF794FC4848006853
:10327000401C47490860F020019002200290002085
:10328000039004900A20059001A94348FEF774F8C2
:103290004248434908604FF0C060486040214048C0
:1032A00081600021C1604FF480610161890041614A
:1032B000890081618911C161002101624162FDF7CC
:1032C00081FF08B1FDF764FB00BF354820678463C8
:1032D00000BF00BFE066846300BF2C492031206836
:1032E000884250D12A480068A8B900BF2948006820
:1032F00040F40000274908600846006800F4000018
:10330000009000BF00BF002211465B20FEF752FC78
:103310005B20FEF73FFC1E480068401C1C4908600B
:103320004FF48060019002200290002003900490EE
:103330000A20059001A91B48FEF71EF817483030F7
:10334000194908604FF0C06048600021164881604C
:10335000C1604FF480610161890041618900816130
:103360008911C161002101624162FDF72BFF08B1A3
:10337000FDF70EFB00BF0C482067846300BF00BF51
:10338000E066846300BF06B010BD0000045C01402D
:103390000C000020443802400020024070640240CB
:1033A000B4040420001802401405042070B504463B
:1033B0002546681EB0F1807F01D301200FE0681E12
:1033C0004FF0E02148610F214FF0FF3001F0BCFECB
:1033D00000204FF0E021886107200861002070BDC7
:1033E00030B502460B4600BF92F83C00012801D1DF
:1033F000022030BD012082F83C0000BF022082F88C
:103400003D001068416810688468214D1068A8422A
:1034100003D0204D1068A84203D121F470015868F0
:10342000014321F070011868014310684160184D94
:103430001068A8421BD01068B0F1804F17D0164D0D
:103440001068A84213D0154D1068A8420FD0144D33
:103450001068A8420BD00F4D1068A84207D0114D3C
:103460001068A84203D0104D1068A84205D124F07E
:1034700080049868044310688460012082F83D004D
:1034800000BF002082F83C0000BF00BFB1E7000091
:10349000000001400004014000040040000800401A
:1034A000000C0040004001400018004010B50446E8
:1034B0000CB9012010BD94F83D0028B9002084F813
:1034C0003C00204600F02AF8022084F83D00211D2F
:1034D000206801F021F9012084F8480000BF84F839
:1034E0003E0001213F20015540200155412001555A
:1034F000422001554320015500BF00BF012084F840
:10350000440045200155462001554720015500BF84
:10351000012084F83D000020CCE7000008B50168D8
:10352000B1F1804F0DD100BF0649096841F001019A
:10353000044A11601146096801F00101009100BFC1
:1035400000BF08BD403802402DE9F04104460D4659
:10355000002700BF94F83C00012802D10220BDE8FA
:10356000F081012084F83C0000BF022084F83D0077
:10357000206886683748064026F47F4620688660C3
:103580002868502833D00CDC202850D004DC0028D8
:103590004BD0102851D149E0302849D040284CD197
:1035A00039E060282DD0702807D0B0F5805F03D0B7
:1035B000B0F5005F41D10DE041E0D5E902136A6842
:1035C000206801F026F92068866846F077062068B2
:1035D000866034E0D5E902136A68206801F019F9C1
:1035E0002068806840F480402168886027E0EA68AD
:1035F0006968206801F058FA5021206801F014F938
:103600001DE0EA686968206801F061FA60212068BD
:1036100001F00AF913E0EA686968206801F044FAE9
:103620004021206801F000F909E000BF00BF00BFA1
:103630002968206801F0F8F801E0012700BF00BF09
:10364000012084F83D0000BF002084F83C0000BF4A
:10365000384684E788FFFEFF2DE9F04104460D4619
:103660001646002700BF94F83C00012802D1022032
:10367000BDE8F081012084F83C0000BF0C2E51D041
:1036800005DC4EB1042E1ED0082E7AD133E0102E68
:1036900060D0142EF9D175E02946206801F0CEF8EB
:1036A0002068806940F0080021688861206880698E
:1036B00020F0040021688861206880692969084336
:1036C0002168886178E02946206801F0F1F82068D7
:1036D000806940F40060216888612068806920F476
:1036E00080602168886120688069296940EA01203A
:1036F0002168886160E02946206801F019F9206896
:10370000C06940F008002168C8612068C06920F0E5
:1037100004002168C8612068C069296908432168DC
:10372000C86149E02946206801F040F92068C06975
:1037300040F400602168C8612068C06920F480609E
:103740002168C8612068C069296940EA01202168B0
:10375000C86131E02946206801F054F92068406DC5
:1037600040F00800216848652068406D20F00400A2
:10377000216848652068406D2969084321684865CB
:103780001AE017E02946206801F064F92068406DCE
:1037900040F40060216848652068406D20F4806036
:1037A000216848652068406D296940EA0120216848
:1037B000486501E0012700BF00BF00BF002084F87A
:1037C0003C0000BF384653E710B504460CB9012051
:1037D00010BD94F83D0028B9002084F83C00204634
:1037E00000F029F8022084F83D00211D206800F037
:1037F00093FF012084F8480000BF84F83E000121B7
:103800003F200155402001554120015542200155DE
:103810004320015500BF00BF012084F8440045202B
:103820000155462001554720015500BF012084F86D
:103830003D000020CCE7704770B504460D4615B931
:1038400094F83E0015E0042D02D13F20005D10E009
:10385000082D02D14020005D0BE00C2D02D141204B
:10386000005D06E0102D02D14220005D01E0432002
:10387000005D012801D0012070BD1DB9022084F82F
:103880003E001AE0042D03D102213F20015514E02F
:10389000082D03D10221402001550EE00C2D03D14B
:1038A00002214120015508E0102D03D102214220C0
:1038B000015502E0022143200155012229462068DA
:1038C00000F096FF25492068884203D024492068EB
:1038D000884201D1012000E0002028B12068406C1E
:1038E00040F40040216848641C49206888421BD08D
:1038F0002068B0F1804F17D01A492068884213D051
:103900001949206888420FD01849206888420BD096
:1039100013492068884207D015492068884203D09F
:1039200014492068884210D120688068124900EA52
:103930000106062E0FD0B6F5803F0CD02068006837
:1039400040F001002168086005E02068006840F050
:1039500001002168086000208EE70000000001409F
:10396000000401400004004000080040000C00403A
:1039700000400140001800400700010070477047F8
:103980002DE9F04704462068C5692068066820686C
:10399000876840F60F0005EA0009B9F1000F0CD165
:1039A00005F0200048B106F0200030B1A06E10B143
:1039B0002046A16E8847BDE8F087B9F1000F7DD0A1
:1039C00007F0010018B9B94830400028F7D005F0D9
:1039D000010058B106F4807040B1012021680862EE
:1039E000D4F8840040F00100C4F8840005F002001F
:1039F00058B107F0010040B1022021680862D4F8F4
:103A0000840040F00400C4F8840005F0040058B1BC
:103A100007F0010040B1042021680862D4F8840056
:103A200040F00200C4F8840005F0080070B106F010
:103A3000200010B907F0010040B108202168086299
:103A4000D4F8840040F00800C4F8840005F4006055
:103A500060B106F0806048B14FF4006021680862F0
:103A6000D4F8840040F02000C4F88400D4F8840026
:103A700000284BD005F0200038B106F0200020B11E
:103A8000A06E10B12046A16E8847D4F884A02068AB
:103A9000806800F04000402802D00AF0280070B38F
:103AA000204601F0D8F82068806800F040004028E7
:103AB00021D100BF00BF2168083100E027E051E8B4
:103AC000001F21F040002168083141E80002002A6F
:103AD000F1D100BF606F50B17548616F0865606FCC
:103AE000FDF73CFA90B1606F016D88470EE020460B
:103AF000FFF745FF0AE02046FFF741FF06E0FFE73A
:103B00002046FFF73CFF0020C4F8840053E7206EF6
:103B100001286FD105F0100000286BD006F01000CE
:103B20000028FAD01020216808622068806800F020
:103B3000400040285FD1606F006840681FFA80F83D
:103B4000B8F1000F55D0B4F85800404551DDA4F845
:103B50005A80606FC069B0F5807F3FD000BF00BF62
:103B6000216851E8001F21F48070226842E80001BA
:103B70000029F5D100BF00BF00BF2168083151E81E
:103B8000001F21F001002168083141E80002002AED
:103B9000F3D100BF00BF00BF2168083151E8001F0A
:103BA00021F040002168083141E80002002AF3D1E9
:103BB00000BF2020C4F880000020206600BF00BFA6
:103BC000216851E8001F21F01000226842E800013E
:103BD0000029F5D100BF606FFDF76AF90220606629
:103BE000B4F85800B4F85A20801A81B22046FFF782
:103BF000C5FEE0E641E034F8580F6188401A1FFA2C
:103C000080F86088583CB8B3B8F1000F34D000BFDA
:103C100000BF216851E8001F21F49070226842E83B
:103C200000010029F5D100BF00BF00BF21680831A5
:103C300051E8001F21F001002168083141E800022D
:103C4000002AF3D100BF2020C4F8800000202066A5
:103C5000A06600BF00BF216851E8001F21F01000DE
:103C6000226842E800010029F5D100BF0220606609
:103C700041462046FFF782FE9DE605F0800040B1F8
:103C800006F0800028B1E06E10B12046E16E884752
:103C900091E605F0400030B106F0400018B1204632
:103CA00001F00CF887E600BF85E600002001000463
:103CB0003F4C000810B504460CB9012010BDA069A6
:103CC00000B100E000BFE06F28B9002084F8780060
:103CD000204600F029F82420E0672068006820F0E2
:103CE000010021680860204601F000F8012800D199
:103CF000E4E7606A10B1204600F0FDFE20684068ED
:103D000020F49040216848602068806820F02A00F4
:103D1000216888602068006840F001002168086020
:103D2000204600F064FFC9E710B5A8B0044614218E
:103D300023A8FCF7C5FB842102A8FCF7C1FB30498E
:103D40002068884259D1402002900020139002A898
:103D5000FEF7B0F808B1FCF71BFE00BF2948006869
:103D600040F01000274908600846006800F0100085
:103D7000019000BF00BF00BF22481438006840F027
:103D800002002049143908600846006800F002006B
:103D9000019000BF00BF00BF0846006840F001006E
:103DA00008600846006800F00100019000BF00BFF5
:103DB000802023900220249000202590032026902C
:103DC0000720279023A91048FDF7D6FA4FF400707A
:103DD0002390022024900020259003202690072085
:103DE000279023A90948FDF7C7FA0022114625208C
:103DF000FDF7E0FE2520FDF7CDFE28B010BD000048
:103E0000001001404438024000040240000002401B
:103E1000704700BFFEE7000010B50248FDF727FC21
:103E200010BD0000B0020420F0B58E880768FF685E
:103E3000C7F30B473E44330406688436802707FBEC
:103E40000266766806F47047066884364FF0800C88
:103E50000CFB026677600E680768FF68C7F30B47C4
:103E60003E44761C1E43076884370CFB02777E6055
:103E70008E890768FF68C7F30A073E443304066863
:103E80008436802707FB0266B66806F4704706682A
:103E900084360CFB0266B7608E680768FF68C7F35C
:103EA0000A073E44761C46EA0307066884360CFB84
:103EB0000266B76006688436802707FB02663669AB
:103EC00026F00707066884360CFB026637610F6927
:103ED000066884360CFB026637613126765C330255
:103EE0003226765C34040E7E3506066884368027DA
:103EF00007FB0266B6690027066884360CFB02667B
:103F0000B76191F830601E43264346EA050706680C
:103F100084360CFB0266B76106688436802707FB8F
:103F20000266766926F0FF07066884360CFB026697
:103F300077614F69066884360CFB02667761066814
:103F40008436802707FB0266F66940F20777BE4396
:103F5000076884370CFB0277FE61D1E907763743A7
:103F6000066884360CFB0266F76106688436802793
:103F700007FB0266B66A0027066884360CFB0266F9
:103F8000B7624F6A066884360CFB0266B7620E6938
:103F90000EB9042313E00E69012E01D103230EE0B4
:103FA0000E69042E08D00E69022E05D00E69032E6C
:103FB00002D00E69072E01D1022300E0012306681A
:103FC0008436802707FB0266F66A06F0E02706685B
:103FD00084364FF0800C0CFB0266F762D1E9007664
:103FE000F61B5E43F61C0F8D5F4346EA07470668E3
:103FF00084360CFB0266F76206688436802707FB6E
:104000000266366BF70AFF02066884360CFB02660E
:104010003763CF6A066884360CFB0266376306682E
:104020008436D701F65946F00107066884364FEA10
:10403000C21C46F80C70F0BD1FB500200090019026
:10404000029003901D481E4908604FF4803048607C
:1040500000211B488160012101610021816180F8FC
:1040600020104FF08051C1624FF0407181620021F9
:10407000C1600221C161012180F830104161FCF76B
:10408000A5FD08B1FCF784FC002000900120019000
:104090000020029069460A48FCF77EFC08B1FCF754
:1040A00077FC082000900220019069460448FCF744
:1040B00073FC08B1FCF76CFC1FBD0000002201403E
:1040C0000802042008B500BF1248006840F48000D0
:1040D000104908600846006800F48000009000BFA6
:1040E00000BF002211463820FDF764FD3820FDF79F
:1040F00051FD002211463C20FDF75CFD3C20FDF700
:1041000049FD002211464520FDF754FD4520FDF7ED
:1041100041FD08BD3038024000B587B0142102A827
:10412000FCF7CEF900BF4548006840F00200434963
:1041300008600846006800F00200019000BF00BF60
:1041400000BF0846006840F00100086008460068AB
:1041500000F00100019000BF00BF00BF08460068EA
:1041600040F4807008600846006800F48070019098
:1041700000BF00BF00BF0846006840F480600860D0
:104180000846006800F48060019000BF00BF00BFD7
:104190000846006840F0400008600846006800F0EB
:1041A0004000019000BF00BF00BF0846006840F417
:1041B000007008600846006800F40070019000BFBD
:1041C00000BF00BF0846006840F080000860084655
:1041D000006800F08000019000BF00BF00BF0846EB
:1041E000006840F0200008600846006800F02000E9
:1041F000019000BF00BF012208211148FDF7C2F95C
:10420000012211030F48FDF7BDF90820029001209B
:10421000039000200490059002A90948FDF7ACF82E
:104220004FF48050029001200390002004900590EC
:1042300002A90448FDF7A0F807B000BD30380240DD
:10424000002802400020024010B5124812490860C0
:10425000124848600021104881600121C16000219E
:10426000016141618161C1610162FDF70FFA08B12D
:10427000FCF78EFB00210848FDF790F908B1FCF728
:1042800087FB00210448FDF7BEF908B1FCF780FB6D
:1042900010BD0000005C0040B002042068474020D0
:1042A00000B58DB034216846FCF70AF93048314931
:1042B00008600020486000212E488160C1600161D3
:1042C00041610B2181612B21C1611721016240F203
:1042D0000B21416240F22711816240F21321C16239
:1042E00040F22B110163002180F8341080F8351062
:1042F00080F83610FDF7F2FA08B1FCF749FB002010
:1043000000904FF4F0700190002002904FF48870FC
:10431000039002200490FF200590002006904FF4A7
:104320008060079005200890134809904FF4F070C2
:104330000A904FF488700B9000208DF83000002117
:104340008DF831108DF83210002269460948FDF7CA
:1043500095FA08B1FCF71CFB084809900022694651
:104360000448FDF78BFA08B1FCF712FB0DB000BD55
:1043700000680140040304200004012040020020E2
:1043800010B53548354908600021344801630020E4
:104390003249486040213148416300218163C16353
:1043A000816001614161012181614FF47A51C161F4
:1043B0000021C16041628162C1620820274908640E
:1043C00001212648416400218164C1640165002007
:1043D000224948650021214881650121C1650021EC
:1043E0000166FEF70FFE08B1FCF7D2FA1A4820303A
:1043F0001B49086000211A480163032018494860DE
:1044000080211748416300218163C16301218160DC
:1044100000210161012181610021C160416281624D
:10442000C16208200E49086401210D484164002141
:104430008164C1640165002009494865002108487C
:1044400081650421C1654FF6FF710166FEF7DAFD53
:1044500008B1FCF79DFA10BD045C0140AC030420D8
:104460003004042000B58FB000200B900C900D900C
:104470000E90089009900A901C2101A8FCF720F8E2
:104480004FF080401E49086042F62F20486000210E
:104490001B4881606321C160002101618161FFF7D8
:1044A00005F808B1FCF774FA4FF480500B900BA993
:1044B0001348FFF749F808B1FCF76AFA1048FFF70C
:1044C00083F908B1FCF764FA002008900A9008A963
:1044D0000B48FEF785FF08B1FCF75AFA60200190FF
:1044E0000A200290002003900590042201A90448AC
:1044F000FFF7B2F808B1FCF74BFA0FB000BD0000AF
:104500007405042010B50D480D4908604FF4E130E2
:10451000486000210A488160C16001610C2141614D
:1045200000218161C161016200200549486208469D
:10453000FFF7C0FB08B1FCF72BFA10BD00100140DB
:10454000C005042000BFFEE700BFFEE7704700B5CE
:10455000A1B084216846FBF7B3FF4FF480100090B0
:104560004FF4AC7001900221049102910721039154
:1045700001200990800510906846FDF79BFC08B16A
:10458000FCF706FA21B000BD10B50348FEF74CFC5D
:104590000248FEF749FC10BDAC030420300404209F
:1045A00070B50546AC6B2068006820F400302168C7
:1045B0000860002021680861401E21688861D4F8E5
:1045C0008000202808D0204600F010F820684068BD
:1045D00040F0080021684860012084F87D00002038
:1045E000A4F86A002046FEF7FFFB70BD10B5014637
:1045F000124B1B680724B3FBF4F34FF47A74B3FB3C
:10460000F4F39A0000200B681B6823F480330C68D5
:10461000236000BF131EA2F1010207D1D1F8803040
:1046200043F04003C1F88030032005E00B681B68AD
:1046300003F48033002BEDD100BF10BD1C0000201F
:10464000704710B5FDF7DCF8012026F01FF810BD0B
:1046500000B593B0302107A8FBF732FF142102A860
:10466000FBF72EFF00BF2548006840F0805023492B
:1046700008600846006800F08050019000BF00BF4D
:1046800000BF1F48006840F440401D4908600846CC
:10469000006800F44040019000BF00BF0120079077
:1046A0000004089002200D9041050E9119210F91F0
:1046B0004FF4D871109102211191129107A8FEF7C1
:1046C000B3F808B1FCF764F9FDF7C6FA08B1FCF7D6
:1046D0005FF90F20029002200390002004904FF415
:1046E000A05005904FF480500690072102A8FDF7D6
:1046F00053FF08B1FCF74CF913B000BD403802403D
:10470000007000400348006840F4700001490860F0
:104710007047000088ED00E010B50268294B984210
:104720000ED0B0F1804F0BD0274B984208D0274BCA
:10473000984205D0264B984202D0264B984203D18E
:1047400022F070024B681A431E4B984220D0B0F101
:10475000804F1DD01C4B98421AD01C4B984217D04A
:104760001B4B984214D01B4B984211D01A4B9842C5
:104770000ED01A4B98420BD0194B984208D0194BC7
:10478000984205D0184B984202D0184B984203D15A
:1047900022F44072CB681A4322F080034C6943EA4A
:1047A000040202608B68C3620B688362054B984207
:1047B00002D0084B984201D10B6903630123436186
:1047C00010BD00000000014000040040000800404F
:1047D000000C004000040140004001400044014042
:1047E0000048014000180040001C0040002000402C
:1047F00030B501F01F05012404FA05F3046A9C4357
:104800000462046A01F01F0502FA05F52C430462F4
:1048100030BD30B50C46816821F47F4142EA032562
:1048200025432943816030BD0A46816821F070012B
:1048300042F00703194381607047000030B5056AF4
:1048400025F001050562026A43688469154D2C4014
:1048500024F003040D682C4322F002028D682A43E1
:10486000114DA84200D103E0104DA84206D100BF6F
:1048700022F00802CD682A4322F004020A4DA84221
:1048800002D00A4DA84207D123F4807323F40073A9
:104890004D692B438D692B43436084614D684563AB
:1048A000026230BD8FFFFEFF0000014000040140A6
:1048B00030B5056A25F010050562026A436884690F
:1048C000184D2C4024F440740D6844EA052422F06D
:1048D00020028D6842EA0512134DA84200D103E080
:1048E000124DA84207D100BF22F08002CD6842EAF3
:1048F000051222F040020C4DA84202D00B4DA842F6
:1049000009D123F4806323F400634D6943EA8503EE
:104910008D6943EA8503436084614D688563026263
:1049200030BD0000FF8FFFFE000001400004014089
:1049300030B5056A25F480750562026A4368C4696A
:10494000174D2C4024F003040D682C4322F4007210
:104950008D6842EA0522134DA84200D103E0124DB2
:10496000A84207D100BF22F40062CD6842EA0522C6
:1049700022F480620B4DA84202D00B4DA84209D10F
:1049800023F4805323F400534D6943EA05138D69E2
:1049900043EA05134360C4614D68C563026230BDDC
:1049A0008FFFFEFF000001400004014030B5056AA2
:1049B00025F480550562036A4468C2690E4D2A4099
:1049C00022F440720D6842EA052223F400538D68F8
:1049D00043EA0533094DA84202D0094DA84204D14B
:1049E00024F480444D6944EA85144460C2614D68F2
:1049F0000564036230BD0000FF8FFFFE0000014030
:104A00000004014030B5056A25F480350562026A6C
:104A10004368446D0C4D2C400D682C4322F4003249
:104A20000D8942EA0542094DA84202D0084DA8422C
:104A300004D123F480334D6943EA05234360446580
:104A40004D688565026230BD8FFFFEFF00000140AA
:104A50000004014030B5056A25F480150562026A3C
:104A60004368446D0D4D2C400D6844EA052422F442
:104A700000120D8942EA0552094DA84202D0094DA3
:104A8000A84204D123F480234D6943EA852343607F
:104A900044654D68C565026230BD0000FF8FFFFEB2
:104AA000000001400004014030B50B461446026A84
:104AB000056A25F001050562816921F0F00141EAEE
:104AC000041122F00A021A438161026230BD30B53E
:104AD0000B461446056A25F0100505628169026AD5
:104AE00021F4704141EA043122F0A00242EA0312AB
:104AF0008161026230BD90F8241001F0010139B1EA
:104B00000168496821F40031826A114302685160EA
:104B100090F8241001F00201022907D101684968C8
:104B200021F48031C26A11430268516090F8241068
:104B300001F00401042907D10168496821F48021AA
:104B4000026B11430268516090F8241001F00801D3
:104B5000082907D10168496821F40041426B1143DB
:104B60000268516090F8241001F01001102907D15B
:104B70000168896821F48051826B11430268916059
:104B800090F8241001F02001202907D101688968DC
:104B900021F40051C26B11430268916090F8241017
:104BA00001F04001402913D10168496821F48011C6
:104BB000026C114302685160016CB1F5801F07D18E
:104BC0000168496821F4C001426C114302685160D8
:104BD00090F8241001F08001802907D1016849680C
:104BE00021F40021826C114302685160704738B58E
:104BF00004460020C4F88400FCF7CAFC054620687F
:104C0000006800F0080008280CD16FF07E402B46A9
:104C100000224FF400110090204600F005FA08B180
:104C2000032038BD2020E067C4F880000020206603
:104C3000606600BF84F8780000BF00BFF1E770B580
:104C40000546AC6B0020A4F85A00A4F85200204698
:104C5000FEF795FE70BD00BF00BF026852E8002F4E
:104C600022F49071036843E80012002AF5D100BFD6
:104C700000BF00BF0268083252E8002F22F0010195
:104C80000268083242E80013002BF3D100BF016E26
:104C900001290CD100BF00BF026852E8002F22F0AA
:104CA0001001036843E80012002AF5D100BF20215B
:104CB000C0F88010002101668166704710B5044677
:104CC00000BF00BF216851E8001F21F040002268AA
:104CD00042E800010029F5D100BF2020E067002054
:104CE000E0662046FFF794F810BD00002DE9F0477C
:104CF00005464FF0000A2969A86808436969084316
:104D0000E96940EA010828680068BC49084040EAAF
:104D10000800296808602868406820F44050E96865
:104D2000084329684860D5F81880286A40EA0808CE
:104D30002868806820F4306040EA080029688860AC
:104D400000BFAF492868884216D1AE48006800F01D
:104D5000030030B1012808D0022804D0032808D16C
:104D600005E0012407E0022405E0042403E0082410
:104D700001E0102400BFC9E0A3492868884216D189
:104D8000A048006800F00C0030B1042808D00828C2
:104D900004D00C2808D105E0002407E0022405E037
:104DA000042403E0082401E0102400BFAEE097498A
:104DB0002868884216D19348006800F0300030B16E
:104DC000102808D0202804D0302808D105E000247D
:104DD00007E0022405E0042403E0082401E0102495
:104DE00000BF93E08A492868884216D18548006848
:104DF00000F0C00030B1402808D0802804D0C0287E
:104E000008D105E0002407E0022405E0042403E0C3
:104E1000082401E0102400BF78E07E492868884219
:104E200019D17848006800F4407048B1B0F5807F2F
:104E30000AD0B0F5007F05D0B0F5407F08D105E07D
:104E4000002407E0022405E0042403E0082401E034
:104E5000102400BF5AE070492868884219D1694877
:104E6000006800F4406048B1B0F5806F0AD0B0F53A
:104E7000006F05D0B0F5406F08D105E0012407E0D0
:104E8000022405E0042403E0082401E0102400BF0C
:104E90003CE062492868884219D15A48006800F409
:104EA000405048B1B0F5805F0AD0B0F5005F05D042
:104EB000B0F5405F08D105E0002407E0022405E0DA
:104EC000042403E0082401E0102400BF1EE054493C
:104ED0002868884219D14B48006800F4404048B126
:104EE000B0F5804F0AD0B0F5004F05D0B0F5404F77
:104EF00008D105E0002407E0022405E0042403E0D3
:104F0000082401E0102400BF00E0102400BFE8697D
:104F1000B0F5004F39D1092C17D2DFE804F00509AC
:104F20000D160F1616161300FDF706FC064610E0C8
:104F3000FDF712FC06460CE03A4E0AE0FDF71CFCB9
:104F4000064606E04FF4004603E000264FF0010A53
:104F500000BF00BF86B37000696800EB5100B0FB72
:104F6000F1F7102F0ED3B7F5803F0BD24FF6F0704C
:104F700007EA0009C7F3420049EA00092868C0F8B7
:104F80000C9034E04FF0010A31E0092C18D2DFE830
:104F900004F005090D170F1717171400FDF7CCFBC8
:104FA000064611E0FDF7D8FB06460DE01D4E0BE06E
:104FB000FDF7E2FB064607E019E04FF4004603E088
:104FC00000264FF0010A00BF00BF86B1686806EBFB
:104FD00050006968B0FBF1F7102F06D3B7F5803F9A
:104FE00003D2B8B22968C86001E04FF0010A00207E
:104FF000A866E8665046BDE8F0870000F369FFEF59
:105000000010014090380240004400400048004039
:10501000004C004000500040001401400078004067
:10502000007C00400024F4002DE9F04104460D46C8
:1050300017469846069E69E0701C002866D0FCF76B
:10504000A7FAA0EB0800B04200D83EBB00BF00BFEB
:10505000216851E8001F21F4D070226842E8000165
:105060000029F5D100BF00BF00BF2168083151E819
:10507000001F21F001002168083141E80002002AE8
:10508000F3D100BF2020E067C4F8800000BF0020FB
:1050900084F8780000BF0320BDE8F0812068006834
:1050A00000F0040088B32068C069C0F3C02060B37A
:1050B0004FF400602168086200BF00BF216851E81A
:1050C000001F21F4D070226842E800010029F5D1C8
:1050D00000BF00BF00BF2168083151E8001F21F068
:1050E00001002168083141E80002002AF3D100BF25
:1050F0002020E067C4F88000C4F8840000BF0020CE
:1051000084F8780000BF0320C6E7FFE72068C06985
:105110002840A84201D1012000E00020B8428BD0F5
:105120000020B9E710B50248FEF72AFC10BD0000C8
:10513000C005042000BFFEE702480068C0F302205B
:10514000704700000CED00E010B5002804DB0A07F2
:10515000130E054A135406E00A07140E034A00F022
:105160000F031B1FD45410BD00E400E018ED00E055
:1051700070B50446002508E02168481C20600878C6
:10518000303805EB850100EB41052168087800F017
:1051900004F80028F0D1284670BD0146302903DB11
:1051A000392901DC012070470020FCE710B54421BB
:1051B000074800F03BFD00221E21064825F0CEFAEC
:1051C0000549086002F0C0F800200449087010BDCD
:1051D000600A042029740008A8010020A40100200E
:1051E00030B50346B1F90040B2F90050AC4202DDDF
:1051F000B1F9004001E0B2F900401C80B1F9024071
:10520000B2F90250AC4202DDB1F9024001E0B2F95C
:1052100002405C80B1F90440B2F90450AC4202DAB9
:10522000B1F9044001E0B2F904409C80B1F90640B4
:10523000B2F90650AC4202DAB1F9064001E0B2F927
:105240000640DC800120B3F90040B3F90450AC42C1
:1052500005DCB3F90240B3F90650AC4200DD002092
:1052600030BDF8B504460D4616460027B4F90000D7
:10527000B5F90010884212DBB4F90200B5F902104A
:1052800088420CDBB4F90400B5F90410884206DC4E
:10529000B4F90600B5F90610884200DC01270FB901
:1052A0000020F8BD0EB90120FBE72088ADF8000012
:1052B0006088ADF8020032466946284600F0A7F83B
:1052C00008B90020EDE7A088ADF800006088ADF8CF
:1052D000020032466946284600F099F808B90020D5
:1052E000DFE72088ADF80000E088ADF80200324624
:1052F0006946284600F08BF808B90020D1E7A0885D
:10530000ADF80000E088ADF8020032466946284654
:1053100000F07DF808B90020C3E70120C1E702468C
:10532000B2F90000B1F90430984213DCB2F904007C
:10533000B1F9003098420DDBB2F90200B1F9063044
:10534000984207DCB2F90600B1F90230984201DB5D
:10535000012070470020FCE7F8B504460D461646CC
:10536000B4F90400B5F90010884211DBB4F9060065
:10537000B5F9021088420BDBB4F90000B5F904104E
:10538000884205DCB4F90200B5F90610884201DD57
:105390000120F8BD0EB90020FBE72088ADF8000021
:1053A0006088ADF8020032466946284600F02FF8C2
:1053B00008B10020EDE7A088ADF800006088ADF8E6
:1053C000020032466946284600F021F808B1002064
:1053D000DFE72088ADF80000E088ADF80200324633
:1053E0006946284600F013F808B10020D1E7A088EC
:1053F000ADF80000E088ADF8020032466946284664
:1054000000F005F808B10020C3E70120C1E72DE94D
:10541000FC5F05460E4614464FF0000AB6F9000040
:10542000B5F90010884213DBB6F90000B5F9041095
:1054300088420DDCB6F90200B5F90210884207DB9C
:10544000B6F90200B5F90610884201DC4FF0010AF6
:10545000BAF1000F02D10020BDE8FC9F002C01DC56
:105460000120F9E7284610F0C8FE834600EBDB7008
:105470004710284610F039FE834600EBDB704FEAF8
:105480006008474501DA384600E0404681464C4511
:1054900000DD4C462888ADF800002888204400B282
:1054A000ADF804006888ADF802006888204400B2B6
:1054B000ADF80600002231466846FFF7A8FF80B12C
:1054C000BDF80400204400B2ADF80400BDF80600A9
:1054D000204400B2ADF806003146684621F088FD50
:1054E000BAE7E888001B00B2ADF80200E888ADF822
:1054F0000600002231466846FFF789FF80B1BDF8FB
:105500000400204400B2ADF80400BDF80200001B06
:1055100000B2ADF802003146684621F069FD9BE714
:10552000A888001B00B2ADF80000A888ADF8040000
:10553000002231466846FFF76AFF80B1BDF80000DF
:10554000001B00B2ADF80000BDF80200001B00B265
:10555000ADF802003146684621F04AFD7CE76888D4
:10556000ADF802006888204400B2ADF806000022C1
:1055700031466846FFF74BFF80B1BDF80000001BC5
:1055800000B2ADF80000BDF80600204400B2ADF84E
:1055900006003146684621F02BFD5DE701205BE700
:1055A00010B5B1F90030B2F90040A34202DAB1F906
:1055B000003001E0B2F900300380B1F90230B2F9F5
:1055C0000240A34202DAB1F9023001E0B2F902303E
:1055D0004380B1F90430B2F90440A34202DDB1F9CD
:1055E000043001E0B2F904308380B1F90630B2F939
:1055F0000640A34202DDB1F9063001E0B2F90630FF
:10560000C38010BD2DE9FF41044625F02FF8054663
:105610000020039034B14749E0680860204625F037
:10562000B5F903E013F0B2FD424908604149096849
:10563000086921F071FB3F480068406920B13D498D
:105640000968486921F068FB3A490968C86921F08E
:1056500063FB38490968086A21F05EFB3548006839
:10566000006940B9002033490968A1F8500100BF22
:1056700000BFBDE8FF8121F06DFD27F0B5F82D4892
:105680000068B0F8500100284BD02A480068006834
:10569000007CC0F34000E8B12648006813F0F4FD38
:1056A000401E06B22348006813F088FD401E07B272
:1056B0003B460022114601A8009610F0E3FD01A828
:1056C0001C4909680968C96B48601A48006805F0F8
:1056D0003DFA00BF4FF480711648006830301BF06F
:1056E000A5FC20211348006800F598701BF09EFC73
:1056F000002010490968A1F85001284624F0A8FFAD
:1057000003900C4800680068406A50B10949096874
:1057100008680849096809684B6A07490A680399D3
:1057200098471BF0FBF900F03FF800F007F800BFC6
:105730009FE70000640000206000002010B50024F6
:1057400016E0C4EBC4000C4951F8200030B1C4EBA2
:10575000C401094A52F821001BF092FAC4EBC401BB
:10576000054A02EB81001C211BF060FC601CC4B2E6
:10577000042CE6DB10BD00003C0B04200146094A66
:1057800010680BE042688A4202D002688A4204D163
:10579000027E22F00102521C027640690028F1D1FB
:1057A00070470000380000207047000010B5042149
:1057B000014800F03BFA10BD540A042010B5202126
:1057C000014800F033FA10BD6C0A04202DE9FF47B0
:1057D00004460D4616461F46DDE90C896FB9B8F53B
:1057E000807F0AD1002020806080681E00B2A080E7
:1057F000701E00B2E080BDE8FF870020009001909D
:1058000002900390ADF80450ADF80A60ADF80C506A
:10581000ADF80E604B4642463946684621F01EFB05
:105820004B464246394601A821F018FB4B464246FA
:10583000394602A821F012FB4B464246394603A8DE
:1058400021F00CFBBDF90000BDF90410884202DA1A
:10585000BDF9000001E0BDF90400BDF90810BDF973
:105860000C20914202DABDF9081001E0BDF90C10DC
:1058700088420BDABDF90000BDF90410884202DA53
:10588000BDF900000DE0BDF904000AE0BDF9080013
:10589000BDF90C10884202DABDF9080001E0BDF93B
:1058A0000C00801E00B22080BDF90000BDF904107C
:1058B000884202DDBDF9000001E0BDF90400BDF938
:1058C0000810BDF90C20914202DDBDF9081001E07D
:1058D000BDF90C1088420BDDBDF90000BDF90410C4
:1058E000884202DDBDF900000DE0BDF904000AE0C8
:1058F000BDF90800BDF90C10884202DDBDF90800B1
:1059000001E0BDF90C00801C00B2A080BDF90210BE
:10591000BDF90600814202DABDF9020001E0BDF9DD
:105920000600BDF90A20BDF90E108A4202DABDF95F
:105930000A1001E0BDF90E1088420BDABDF9021021
:10594000BDF90600814202DABDF902000DE0BDF9A1
:1059500006000AE0BDF90A10BDF90E00814202DA24
:10596000BDF90A0001E0BDF90E00801E00B26080A2
:10597000BDF90210BDF90600814202DDBDF9020049
:1059800001E0BDF90600BDF90A20BDF90E108A42FA
:1059900002DDBDF90A1001E0BDF90E1088420BDDF1
:1059A000BDF90210BDF90600814202DDBDF9020019
:1059B0000DE0BDF906000AE0BDF90A10BDF90E00C0
:1059C000814202DDBDF90A0001E0BDF90E00801C34
:1059D00000B2E08000BF0EE72DE9F743054616460A
:1059E0000024134C24F042FE8046334629462046CC
:1059F000019A18F0D3FE07465FB900BF00BF2C2103
:105A000020461BF013FB4FF00040A0620020BDE8D1
:105A1000FE830020A062E06918B9404624F018FE19
:105A2000E061E06908B90120E0612046EFE700008D
:105A3000900A042010B51421114800F0F7F818F06E
:105A40005FFE044600BF1CB900BF00BF00BFFEE7F9
:105A500000BF14B900BF00BF10BD0A49204618F0AE
:105A600037FF0949204618F035FF0849204618F04D
:105A700033FF0749204618F029FF00BFECE700007C
:105A8000780A042019DF0108EDE301080DE601089A
:105A9000E1DE01082DE9FF4104460F4614B913F079
:105AA00075FB04460CB9BDE8FF81204613F007FCE6
:105AB00000B9F8E794F82800C0F3800010B100BFE7
:105AC00000BFF0E71FB90020A4F85001EBE7002069
:105AD000ADF80800ADF80A00204613F06FFB401E39
