:020000040800F2
:1000000090D90420A90200088B290008D1240008F7
:1000100089290008B90700080B2E0008000000001D
:100020000000000000000000000000008F29000810
:100030006D080008000000008D29000891290008C3
:10004000C3020008C3020008C3020008C30200087C
:10005000C3020008C3020008C3020008C30200086C
:10006000C3020008C3020008C3020008C30200085C
:10007000C3020008C3020008C3020008C30200084C
:10008000C3020008C3020008C3020008C30200083C
:10009000C3020008C3020008C3020008C30200082C
:1000A000C3020008C3020008C3020008C30200081C
:1000B000C3020008C3020008C3020008C30200080C
:1000C000C3020008C3020008C3020008C3020008FC
:1000D000C3020008C3020008C3020008C3020008EC
:1000E000C3020008C3020008C3020008C3020008DC
:1000F000C3020008C3020008C3020008C3020008CC
:10010000C3020008C3020008C3020008C3020008BB
:10011000C3020008C3020008C3020008C3020008AB
:10012000BD070008C3020008C3020008C30200089C
:10013000C3020008C3020008C3020008C30200088B
:10014000C3020008C3020008C3020008C30200087B
:10015000C3020008C3020008C3020008C30200086B
:10016000C3020008C3020008C3020008C30200085B
:10017000C3020008C3020008C30200080000000018
:10018000C3020008C3020008C3020008C30200083B
:10019000C3020008C3020008C3020008C30200082B
:1001A000C3020008C3020008C3020008C30200081B
:1001B000C3020008C3020008C3020008C30200080B
:1001C000C3020008C302000800F002F800F05CF867
:1001D0000AA090E8000C82448344AAF10107DA45A2
:1001E00001D100F051F8AFF2090EBAE80F0013F098
:1001F000010F18BFFB1A43F0010318472C970200A8
:100200004C9702000A444FF0000C10F8013B13F029
:10021000070408BF10F8014B1D1108BF10F8015B5F
:10022000641E05D010F8016B641E01F8016BF9D152
:1002300013F0080F1EBF10F8014BAD1C0C1B09D1A9
:100240006D1E58BF01F801CBFAD505E014F8016B1B
:1002500001F8016B6D1EF9D59142D6D370470000AD
:100260000023002400250026103A28BF78C1FBD8BF
:10027000520728BF30C148BF0B6070471FB524F03C
:10028000F5FF1FBD10B510BD00F079F91146FFF75D
:10029000F5FF20F043F900F097F903B4FFF7F2FF00
:1002A00003BC00F09FF90000094880470948004757
:1002B000FEE7FEE7FEE7FEE7FEE7FEE7FEE7FEE716
:1002C000FEE7FEE704480549054A064B7047000073
:1002D000412A0008C901000890C1042090D90420D7
:1002E00090C9042090C9042053EA020C00F06980F0
:1002F0002DE9F04B4FF00006002B1FBFB3FA83F53A
:1003000003FA05F424FA05F65E4012BF1643B2FA6A
:1003100082F502FA05F4C5F120051EBF22FA05FC9C
:1003200044EA0C04203556EA044C4FEA144418BF42
:10033000641C4FF000084FF00009904271EB030C71
:1003400039D3002919BFB1FA81F701FA07F6B0FADB
:1003500080F700FA07F6C7F120071EBF20FA07FC56
:1003600046EA0C062037B6FBF4FCA7EB0507103F66
:1003700007F01F0BCBF120060CFA0BFB2CFA06F64C
:1003800044BFB3460026202FA4BF5E464FF0000BAB
:100390005BEA060C08BF4FF0010B19EB0B09ABFB36
:1003A000027C48EB0608C01B06FB02CC0BFB03CC0F
:1003B00071EB0C01C1E70B46024641464846BDE8D9
:1003C000F08B13B54FF000004FF00001AFF3008049
:1003D000BDE81C40704740EA0103024630B59B0768
:1003E00010D14FF0013400E008C208C91D1B9D4325
:1003F00015EAC41FF8D013F0FF0102F8011B0DD05D
:100400001B0AF8E711F8013B002B02F8013B05D06D
:1004100011F8013B002B02F8013BF3D130BD10B5C0
:10042000431C02E010F8011B71B18107FAD14FF0B3
:10043000013202C88C1A8C4314EAC211F9D0C01AD6
:100440000A0603D0C01E10BDC01A10BD0A0401D098
:10045000801E10BD0902FCD0401E10BD10B5203A10
:10046000C0F00B80B1E81850203AA0E81850B1E86D
:100470001850A0E81850BFF4F5AF5FEA027C24BF23
:10048000B1E81850A0E8185044BF18C918C0BDE81A
:1004900010405FEA827C24BF51F8043B40F8043BE3
:1004A00008BF7047D20728BF31F8023B48BF11F898
:1004B000012B28BF20F8023B48BF00F8012B7047F2
:1004C0004FF0000200B5134694469646203922BFED
:1004D000A0E80C50A0E80C50B1F12001BFF4F7AF38
:1004E000090728BFA0E80C5048BF0CC05DF804EB1A
:1004F000890028BF40F8042B08BF704748BF20F888
:10050000022B11F0804F18BF00F8012B704700003C
:100510004FF0013C50F8042B51F8043B9A4215D19E
:10052000A2EB0C03934313EACC130BD150F8042B2A
:1005300051F8043B9A4209D1A2EB0C03934313EA0E
:10054000CC13E7D04FF00000704700BFD01A01BABB
:10055000B1FA81F101F0180122FA01F0CB40C1F1AA
:100560002001DBB2C0B2C01A2CFA01F3D11A9143B8
:1005700011EAC311E6D1704770477047704775465E
:1005800000F02CF8AE4605006946534620F00700FF
:10059000854618B020B5FFF795FEBDE820404FF026
:1005A00000064FF000074FF000084FF0000B21F05D
:1005B0000701AC46ACE8C009ACE8C009ACE8C0092A
:1005C000ACE8C0098D46704710B50446AFF3008013
:1005D0002046BDE81040FFF760BE000000487047AD
:1005E0002CC1042001491820ABBEFEE72600020002
:1005F000704710B50146806B026C12F0500F05D0A9
:10060000026CD20626D500F025FA10BD016C41F42B
:100610000071016401688A6812F0405F17D1826935
:10062000AAB9CA6A12F4700F02D08A6852050ED4B1
:100630004A6822F020024A60016C21F48071016452
:10064000016CC90403D4016C41F00101016400F0A4
:10065000F1F910BD806BC26C0846BDE81040104730
:1006600010B5806B40210164416C41F0040141648C
:1006700000F0F0F910BD10B5806B00F0DDF910BD91
:100680004A496FF0706210B5D1F8043323F4403357
:10069000C1F80433D1F8043344682343C1F8043368
:1006A00001684B6823F480734B60016803694C68F0
:1006B00044EA03234B6001684B6823F040734B60AE
:1006C000016884684B6823434B6001688B6823F49E
:1006D00000638B600168C4688B6823438B60816A08
:1006E000D14201688A6822F070628A6001680DD088
:1006F000836A8A681A438A6001688A6822F04052D5
:100700008A600168C36A8A681A4302E08A6822F034
:1007100040528A6001688A6822F002028A60016899
:1007200082698B6843EA42028A6090F820100029AF
:10073000016811D01E4A4B6843F400634B600168A6
:100740004B6823F460434B600168446A4B6802EBDA
:10075000443213434B6003E04A6822F400624A606B
:100760000168144BCA6A22F47002CA620168848B61
:10077000CA6A03EB04531A43CA6201688A6822F406
:1007800000728A60016890F830208B6843EA422248
:100790008A6001688A6822F480628A600168406920
:1007A0008A6842EA8020886010BD00000020014075
:1007B00000E0FFFF0000F0FFFEE70000014800F04E
:1007C0006FBA000090FE032001681823CAB2103AE5
:1007D000B2FBF3F2054B6FF30901032A9B5CC3657F
:1007E00000D9091D8165084670470000765202084D
:1007F00010B583694FF0C074826A0146002053B17E
:10080000B3F5005F15D072B1012A0CD0022A0AD0CC
:10081000032A09D104E01AB1012A06D0022A03D121
:10082000C96AC90100D5012010BDC96AA142FAD028
:1008300010BD002AF7D0012AF2D0022AF3D0032AF1
:10084000F3D010BD30B50468256825F480252560F7
:10085000046863608368402B036803D09960006874
:10086000C26030BD9A600068C16030BD704772B62A
:10087000FEE70000F8B50025009590F83C20012A1D
:100880001DD0012280F83C20664C0723D6070A6859
:10089000092A22D9B24220D007680A3A02EB420C58
:1008A000FA6803FA0CF39A43FA600A68A24208D184
:1008B00002680B7AD76847EA0363D36022E002201C
:1008C000F8BD07680A3A8B6802EB4202D7F80CC001
:1008D000934043EA0C03FB6014E0076802EB42021A
:1008E000D7F810C093402CEA030CC7F810C0036877
:1008F0000F788A68D3F810C007EB4707BA4042EA7E
:100900000C021A614A681F23072A16D20768521E72
:1009100002EB820C7A6B03FA0CF39A437A63036856
:100920000F790A887F1ED3F834C092B207EB87078D
:10093000BA4042EA0C025A632DE007680D2A15D22C
:10094000D21F02EB820C3A6B03FA0CF39A433A6320
:1009500002680F790B88FF1FD2F830C09BB207EBFB
:100960008707BB4043EA0C03136314E00D3A02EB24
:10097000820CFA6A03FA0CF39A43FA6203680F795D
:100980000A880D3FD3F82CC092B207EB8707BA4014
:1009900042EA0C02DA62244A0368934208D10B68E7
:1009A000B34205D1D2F8043323F44003C2F8043330
:1009B000036893420ED10B68122B0BD1D2F804338B
:1009C00023F40003C2F80433D2F8043343F4800361
:1009D000C2F804330368934220D10B68A34201D0CC
:1009E000112B1BD1D2F8043323F48003C2F8043353
:1009F000D2F8043343F40003C2F804330968A14277
:100A00000CD10A490A4A0968B1FBF2F101EB8101F4
:100A1000490000E0491E00910029FBD180F83C50BC
:100A20000020F8BD1200001000200140140000203A
:100A300040420F0070470000044810B500F00BF86A
:100A4000034948800A88801A888010BD48FE032028
:100A50000000002070470068C06C704770B504004B
:100A60004FF0000503D0206C002610B107E00120F4
:100A700070BD204600F01CF8666484F83C60206C71
:100A8000C00610D4206C20F4885040F0020020648E
:100A90002046FFF7F5FD6664206C20F0020040F070
:100AA0000100206400E0012584F83C60284670BD08
:100AB000F0B587B0064614216846FFF701FD2549C9
:100AC0003068884244D12448016841F48061016063
:100AD000006800F4806005901F481438016841F0F8
:100AE00020010160016801F020010591016841F0D9
:100AF00001010160006800254FF48067009700F055
:100B00000100059003241548CDE90145694600F030
:100B100059FA012069468DE83100114800F052FA77
:100B200011484FF4807C0F4C8105C21484E82300E7
:100B30004B132046C4E90357C4E907C56562C4E9FD
:100B4000052300F07DF908B1FFF791FEB463A663B9
:100B500007B0F0BD002201404438024000140240BA
:100B60000000024090FE032010640240F8B50D46DC
:100B700004460021009190F83C00012807D0012094
:100B800084F83C0020688368DB0702D011E0022073
:100B9000F8BD86683B4B46F0010686603A4800681F
:100BA000B0FBF3F000EB400000E0401E0090002896
:100BB000FBD120688368DB0759D0236C40F20166C3
:100BC000B34343F4807323644068400505D5206C2B
:100BD00020F4005040F480502064206CC00404D500
:100BE000606C20F00600606400E061646FF0220039
:100BF00084F83C10A36B2549D963A36B244919647D
:100C0000A36B2449D964216808602068416841F0D9
:100C1000806141602068816841F480718160216851
:100C20001346A06B2A464C3100F07CF91A49D1F8E2
:100C30000403C006206811D0884207D1826812F0F0
:100C4000405F03D1826842F080428260D1F80403A1
:100C5000C00614D411492068884210D1816811F06F
:100C6000405F0CD1816841F08041816007E0206CD9
:100C700040F010002064606C40F0010060640020CF
:100C8000F8BD000040420F0014000020F3050008EA
:100C9000770600086106000800200140002201409C
:100CA0002DE9F84304464FF00009644B0820CDF8C5
:100CB00000904FF41652A56D94F85C101B682E68D6
:100CC000B3FBF2F700FA01F131420FD021680A6854
:100CD00052070BD50A6822F004020A6094F85C10EF
:100CE0008840A860606D40F00100606594F85C1079
:100CF0004FF0010808FA01F0304208D02168496934
:100D0000090604D5A860606D40F00200606594F8A3
:100D10005C1004208840304208D0216809688907A7
:100D200004D5A860606D40F00400606594F85C1024
:100D300010208840304218D021680968090714D56E
:100D4000A86020680168490304D50068000308D53D
:100D5000A16C07E00168C90503D4016821F008010E
:100D60000160216C09B12046884794F85C1020206E
:100D70008840304231D021680968C9062DD5A86065
:100D800094F8350005282068016806D0490347D546
:100D9000006800031DD4616C1CE021F016010160A5
:100DA0002068416921F080014161206C08B9A06C84
:100DB00020B12068016821F00801016094F85C30DE
:100DC0003F229A40AA6084F8358084F83490216DDF
:100DD0001FE0E16B09B120468847606D00282BD0E9
:100DE000606DC00714D0052084F8350020680168C4
:100DF00021F0010101600098401C0090B84203D826
:100E000020680068C007F6D184F8358084F83490F3
:100E1000E16C002910D001B02046BDE8F04308473E
:100E20000168C905D5D4036823F01003036084F872
:100E3000358084F83490CCE7BDE8F88314000020B6
:100E40002DE9F047044600F0E7F9054664B10221B8
:100E50004FF0000984F8351084F834902068016858
:100E600021F0010101600EE00120BDE8F08700BF24
:100E700000F0D2F9401B052805D920216165032027
:100E800084F83500F1E720680068C007F0D1D4E9A4
:100E90000020D4E90251D4E9043C284304F11805A8
:100EA00019430843116895E8E00140EA0C001C4B27
:100EB0002843194040EA060040EA0700B8F1040F51
:100EC00040EA010003D1D4E90B1319430843106031
:100ED00020680126656A4069042D20F0070045EA74
:100EE00000050CD1D4E90A01054341B12046FFF7C2
:100EF0007FFC20B14020606584F83560B4E720684D
:100F000045612046FFF760FC94F85C303F229A4030
:100F10008260C4F8549084F835600020A5E7000092
:100F20003F8010F02DE9F041044690F83400002590
:100F30000128A66D0ED094F835C00127002084F852
:100F40003470BCF1010F07D0022584F83400284624
:100F5000BDE8F0810220FBE7022784F83570606568
:100F60002046FFF76FFC94F85C103F208840B0608B
:100F70002068016841F0160101602068416941F074
:100F800080014161206C20B12068016841F00801B6
:100F900001602068016841F001010160D7E70000AD
:100FA00070B5044600F038F90546601C02D00448CC
:100FB0000078044400F030F9401BA042FAD370BD21
:100FC000080000202DE9F84FDFF80CB201240325BA
:100FD0004FF00F0A00220BF1040E00BF0B6804FA59
:100FE00002F63340B34278D10F7907F00307012F9F
:100FF00001D0022F1AD187684FEA4209D1F80CC0FC
:1010000005FA09F827EA08070CFA09FC4CEA070C6C
:10101000C0F808C0476891F804C0B743CCF3001C7F
:101020000CFA02FC4CEA070CC0F804C00E79F64337
:10103000B6070BD0C6684FEA420C8F6805FA0CF869
:1010400026EA080607FA0CF73743C7600E7906F060
:101050000306022E12D1D6084FEA427800EB86062C
:1010600000960F69D6F820904FEAD8660AFA06FC77
:10107000B74029EA0C063743009E37620F790668AD
:101080004FEA420C07F0030705FA0CF807FA0CF7D1
:1010900026EA0806374307604E6816F4403F1CD026
:1010A0004E4E376847F480473760366822F00308B1
:1010B000970706F480460096494E3F0F4644B146D6
:1010C000D6F80868DFF81C810AFA07FC404526EAD2
:1010D0000C0603D14FF0000C41E076E0DFF808C1C8
:1010E000604502D14FF0010C39E0DFF800C16045E6
:1010F00002D14FF0020C32E0DFF8F4C0604502D1BB
:101100004FF0030C2BE0DFF8ECC0604502D14FF04C
:10111000040C24E0DFF8E0C0604502D14FF0050C7C
:101120001DE0DFF8D8C0604502D14FF0060C16E094
:10113000DFF8CCC0604502D14FF0070C0FE0DFF8BC
:10114000C4C0604502D14FF0080C08E0DFF8B8C019
:10115000604502D14FF0090C01E04FF00A0C0CFA87
:1011600007FC4CEA060CC9F808C84F68DBF80060B9
:10117000FF0226EA030600D51E437746CBF800603F
:10118000D1F804C0DEF800605FEA8C2C26EA030682
:1011900000D51E43DFF840C03E60ACF1040C4F6840
:1011A000DCF80060BF0326EA030600D51E430A4FA1
:1011B000CCF80060083FD1F804C03E685FEACC3C40
:1011C00026EA030600D51E433E60521C102AFFF497
:1011D00005AFBDE8F88F0000083C014044380240EC
:1011E00000300140000002400004024000080240BC
:1011F000000C02400010024000140240001802409F
:10120000001C024000200240002402400AB181611B
:1012100070470904FBE70000014880687047000040
:1012200008000020024881680278114481607047FC
:1012300008000020032010B500F09EF90F2000F0F8
:1012400005F800F053F9002010BD000070B50D4DF9
:1012500004464FF47A700C4A29781268B0FBF1F01A
:10126000B2FBF0F000F0DAFE48B9102C07D20022F1
:101270002146501E00F060F900206C6070BD012016
:1012800070BD000008000020140000202DE9F0418E
:10129000044690F8A00016460F4601281DD00125EF
:1012A00084F8A050022084F8A10006EB860000EB31
:1012B000C600342204EB80003830FFF7CFF8324606
:1012C0003946204601F005F9216800204D6284F876
:1012D000A15084F8A000BDE8F0810220FBE70000E7
:1012E0002DE9F041040004D094F8A100002518B1C4
:1012F00007E00120BDE8F081204684F8A05000F00E
:101300006BF83448022184F8A110012202CC8B69C9
:1013100023F070438B6194E84A001943E3681E434D
:1013200054F8043D31439E693143996121688B68CB
:1013300003408B602168A68AA7698B683B4343EA18
:1013400006438B602168CB680340CB602168A38B88
:10135000276ACE683E4346EA0346CE6021680B69A1
:1013600003400B612368A68CA76A1969394341EAD7
:101370000641196121684B6903404B612068A38DC8
:10138000266B4169314341EA03414161236894F886
:10139000351094F83600DE6A000406F07F46DE62FF
:1013A000236840EA012094F83460D96A314301434C
:1013B000D9622068416B41F0060141632068816970
:1013C00041F001018161C4F8A45084F8A1200020FB
:1013D00090E7000000F800F070B5A8B004461421B2
:1013E00021A8FFF76DF884216846FFF769F83949AD
:1013F000206888426BD10225082000900024C82173
:10140000460368460522CDE905150123CDE90724E9
:10141000CDE90A3600F0F8F808B1FFF728FA2E48AF
:10142000016841F080610160006800F080602690F2
:1014300029481438016841F480610160016801F4B1
:1014400080612691016841F040010160016801F06E
:1014500040012691016841F480710160016801F446
:1014600080712691016841F40071016000680E26C8
:10147000CDE9225400F400702690F72021901748FF
:1014800021A9CDE92446FFF79DFD09214FF48050A5
:1014900021901348CDE92441CDE9225421A9FFF739
:1014A00091FD4FF48C4021900E4821A9CDE92254A2
:1014B000CDE92446FFF786FD48F67C6021900A4876
:1014C00021A9CDE92254CDE92446FFF77BFD28B0C0
:1014D00070BD00000068014044380240002802400E
:1014E0000018024000200240002402400A4808B5CB
:1014F000016841F080510160006800F08050009068
:101500000548001D016841F480410160006800F455
:101510008040009008BD000040380240002809DBF0
:10152000410900F01F028900012001F1E0219040F3
:10153000C1F80001704700000E4BF0B41B680D4667
:10154000C3F30223C3F10706042E00D90426191D94
:10155000072901D2002300E0DB1E012404FA06F172
:101560009C40491E2940641E994014402143F0BC10
:1015700001F04CBC0CED00E0064900F0070210B58C
:101580004FF6FF040868044B204040EA022018434D
:10159000086010BD0CED00E00000FA051848F8B531
:1015A000016841F0805101600068164C00F08050E5
:1015B0000090206840F480302060FFF72DFE4FF44B
:1015C0007A76054605E000BFFFF726FE401BB042D5
:1015D0000FD86068C003F7D5206840F40030206061
:1015E000FFF71AFE054606E0FFF716FE401BB04265
:1015F00001D90320F8BD60688003F5D50020F8BD4F
:1016000040380240007000402DE9F84F0446007851
:10161000DFF824944FF000063746C0070ED0D9F803
:10162000001021F40001C9F80010D9F80010626B15
:101630001143C9F80010606B00B90126FE4D206807
:10164000843500030ED5E16B286820F44010084370
:101650002860E06BB0F5801F01D010B102E00126D8
:1016600000E0012720684FF4800BC0020CD5216CEC
:10167000286820F4400008432860206C584501D1B8
:10168000012601E000B901272068C10100D501262B
:10169000800666D5E8483830016841F08051016025
:1016A0000068DFF898A300F080500090DAF800108E
:1016B00041F48071CAF80010FFF7AEFD804605E0E6
:1016C000FFF7AAFDA0EB080064287DD8DAF8000037
:1016D000C005F5D5DFF8608308F16808D8F8000088
:1016E00010F440702AD0218E01F44071814225D03F
:1016F000D8F80010D8F8002021F4407142F480326C
:10170000C8F80020D8F8002022F48032C8F8002061
:10171000C8F80010D8F80000C0070FD0FFF77CFD14
:10172000824607E0FFF778FDA0EB0A0141F288301E
:101730008142CAD8D8F800008007F3D5206BC0F3E7
:10174000012103297ED0D9F8001021F4F811C9F83D
:101750000010228ED8F80010C2F30B021143C8F813
:1017600000102078C00607D5286820F08070286017
:101770002868A16B084328602188AF488830490455
:1017800005D5626E016821F4403111430160218862
:10179000090405D5A26E016821F4402111430160BE
:1017A0002168C90305D5E26E016821F44011114397
:1017B00001602168890305D5226F016821F4400189
:1017C00011430160217800E016E1490605D5626CFD
:1017D000016821F00301114301602178090605D554
:1017E000A26C016821F00C01114301602188C90538
:1017F00005D5E26C016821F03001114301602188B8
:10180000890505D5226D016821F0C00111430160F1
:101810002188490505D5626D016821F440711143A5
:1018200001602188090505D5A26D016821F4406198
:10183000114301602188C90407D5E26D016821F4D4
:10184000405100E04AE0114301602188890405D538
:10185000226E016821F44041114301602168490270
:1018600005D5A26F016821F08061114301602168F4
:101870004FF0006A890209D5E26F016821F000612A
:1018800011430160E16F514500D1012721680A072A
:1018900000D50127490305D5626F016821F0407129
:1018A000114301602168090206D5D4F8802001683F
:1018B00021F0805111430160DFF88491012E02D0A4
:1018C000206880017ED5D9F800004E4620F0806067
:1018D000C9F80000FFF7A0FC80460FE0594AD9F88C
:1018E0000030104023F4F8120243C9F8002030E71A
:1018F000FFF792FCA0EB080064287DD83068000157
:10190000F6D421784C487C30C90712D0616B81B97C
:10191000237A62680168D0F800C09201C1F30141E6
:1019200042EA0142CCF3036142EA016141EA0371F8
:10193000016021680A0303D5E26BB2F5801F04D071
:10194000C9021AD5216C594517D16368016894F80A
:101950000CC002689B01C1F3014143EA0141C2F39B
:10196000027241EA0C6141EA027101602968626A0F
:1019700021F01F01521E114329602168C90110D5B1
:10198000238A62680168D0F800C09201C1F3036144
:1019900042EA034242EA0162CCF3027142EA017177
:1019A0000160216889010CD56168228A237B94F843
:1019B00008C0890141EA024141EA036141EA0C7130
:1019C000016000E011E03168B04641F080613160B3
:1019D000FFF722FC064604E0FFF71EFC801B64288C
:1019E0000AD8D8F800000001F6D56FB3D9F8000086
:1019F0004E4620F0805000E07BE0C9F80000FFF781
:101A00000BFC074605E000BFFFF706FCC01B64287F
:101A10006FD83068C0438000F6D507482168803011
:101A20000A0301D5E26B1AB1C90225D5216C19BB95
:101A300063690168277E08E00838024000700040B2
:101A400000380240FFFCFF0F5AE00268C1F3014179
:101A50009B0143EA0143C2F3027143EA076242EA8F
:101A60000171016029686FF0FF03A26A21F4F85147
:101A700003EB0222114329602168890212D5E16F2C
:101A800051450FD1238C6269016807689201C1F347
:101A9000036142EA034242EA0162C7F3027142EA89
:101AA000017101602178090716D561690268D0F8D3
:101AB00000C08B01277FC2F30362CCF3014143EAEC
:101AC000014141EA026141EA077101602868E16A67
:101AD00020F4403008432860306840F08050306087
:101AE000FFF79AFB044607E0FFF796FB001B64280C
:101AF00002D90320BDE8F88F3068C0438000F3D4DA
:101B00000020F7E72DE9F04705000F4663D0444E6B
:101B1000306800F00F00B84209D2306820F00F00A2
:101B200038433060306800F00F00B84253D1286865
:101B30003C4C810712D5400703D5206840F4E050A3
:101B400020602878000703D5206840F460402060BA
:101B5000A968206820F0F000084320602878C007BA
:101B60002AD0304968680839012810D0096802284D
:101B700010D0890700292EDA216821F003010143E2
:101B80002160FFF749FB804641F288390DE0096882
:101B90008903EFE78901EDE7FFF73EFBA0EB0801C2
:101BA000494502D90320BDE8F0876868216801F043
:101BB0000C01B1EB800FEFD1306800F00F00B8429C
:101BC0000BD9306820F00F0038433060306800F0E7
:101BD0000F00B84201D00120E5E72878400705D57D
:101BE000E968206820F4E050084320602878000766
:101BF00006D52869216821F4604141EAC0002060CF
:101C000000F018F82168084AC1F30311515CC8407C
:101C10000649086006480068FFF718FB0020C2E785
:101C2000003C0240083802407E52020814000020A6
:101C30000C000020154910B51548096811F00C0278
:101C400013D01449042A0FD0082A0ED10F4C241F98
:101C50002268236802F03F025B0207D52068C0F3C8
:101C60008810A0FB010106E0084610BD2168C1F301
:101C70008811A1FB00010023FEF736FB2168C1F3A8
:101C80000141491C4900B0FBF1F010BD0838024089
:101C90000024F40040787D012DE9F84F04004FF056
:101CA00000076ED02078DFF868A3AAF10408C00707
:101CB000A8F104054CD0DAF800105046C1F38101B8
:101CC000012908D00068C0F3810002280AD1D8F8A1
:101CD0000000400206D52868800339D560680028D6
:101CE000DFD035E06068B0F5803F0BD010B1B0F5C3
:101CF000A02F11D0286820F480302860286820F4B4
:101D0000802002E0286840F480302860606890B14C
:101D1000FFF782FA06460AE0286840F4802028602F
:101D2000F0E700BFFFF778FA801B642872D82868B4
:101D30008003F7D50CE0FFF76FFA064605E000BF19
:101D4000FFF76AFA801B6428F0D828688003F7D46C
:101D50002078800742D5DAF80010504611F00C0FB9
:101D600008D00068C0F3810002280BD1D8F8000029
:101D7000400207D42868800718D5E068012800D100
:101D800014E041E1E0680028286817D040F0010025
:101D90002860FFF741FA064605E000BFFFF73CFA6E
:101DA000801B0228C2D828688007F7D520692968D7
:101DB00021F0F80141EAC00028600FE020F00100A6
:101DC0002860FFF729FA064605E000BFFFF724FA6E
:101DD000801B02281ED828688007F7D420780007C7
:101DE00029D58B4861696C3000298146016812D081
:101DF00041F001010160FFF70FFA064605E000BF60
:101E0000FFF70AFA801B022804D8D9F800008007DF
:101E1000F6D510E089E021F001010160FFF7FCF93F
:101E2000064604E0FFF7F8F9801B02287DD8D9F8B0
:101E300000008007F6D4207840076BD5DFF8D091FA
:101E400009F13809D9F80000C0000BD4D9F8001006
:101E500041F08051C9F80010D9F80000012700F0C6
:101E6000805000906B480168C90512D40168834610
:101E700041F480710160FFF7CFF9064605E000BF2D
:101E8000FFF7CAF9801B64284FD8DBF80000C005B3
:101E9000F6D55F4EA068683601280AD008B105283B
:101EA00011D0306820F001003060306820F004006C
:101EB00002E0306840F001003060A068A0B1FFF798
:101EC000ABF983460CE0306840F004003060F0E786
:101ED000FFF7A2F9A0EB0B0141F28830814266D8EE
:101EE00030688007F4D50EE0FFF796F9834607E0E7
:101EF000FFF792F9A0EB0B0141F28830814256D8EE
:101F000030688007F4D42FB1D9F8001021F0805147
:101F1000C9F80010A069C8B3DAF80010C1F3810154
:101F200002294BD00228286800E040E020F08070B1
:101F3000286003D0FFF770F904463BE0FFF76CF927
:101F4000064604E0FFF768F9801B02282FD82868AE
:101F50008001F7D4D4E90962D4E907012E4B570870
:101F600094F82C20084303EB074343EA8611084307
:101F700040EA026040F00050C8F80000286840F0D5
:101F800080702860FFF748F9044606E03EE000BF95
:101F9000FFF742F9001B022809D828688001F7D50D
:101FA00034E000BFFFF738F9001B022802D90320F4
:101FB000BDE8F88F28688001F4D427E00128D8F81C
:101FC000000021D0E16900F480028A421CD1216A1C
:101FD00000F03F028A4217D1626A47F6C0710140A1
:101FE000B1EB821F10D1A16A4FF0FF3200F44033F1
:101FF00002EB5101B3EB014F06D194F82C1000F025
:102000007060B0EB016F01D00120D1E70020CFE775
:1020100008380240007000400000FFFF401EB0F191
:10202000807F10B501D3012010BD4FF0E024606126
:102030000F21601700F0EAFE0020A0610721216156
:1020400010BD0000F0B590F83C20012A3BD01F4E97
:10205000012480F83C40022280F83D2002681C4D9B
:102060005368B242D2F808C001D0AA4203D14F68E7
:1020700023F470033B430F6823F070031F43576042
:102080000268B24213D0B2F1804F10D0114B9A4285
:102090000DD0114B9A420AD0104B9A4207D0AA4257
:1020A00005D00F4B9A4202D00E4B9A4204D1896858
:1020B0002CF0800319439160002180F83D4080F8A6
:1020C0003C100846F0BD0220F0BD000000000140B9
:1020D000000401400004004000080040000C0040E3
:1020E000004001400018004010B5040003D094F8EF
:1020F0003D0010B107E0012010BD002084F83C0035
:10210000204600F023F8022084F83D002068211DBD
:1021100000F09EFC012084F8480084F83E0084F81A
:102120003F0084F8400084F8410084F8420084F8BD
:10213000430084F8440084F8450084F8460084F89D
:10214000470084F83D00002010BD000008B500687D
:10215000B0F1804F08D10548016841F001010160EC
:10216000006800F00100009008BD00004038024007
:1021700070B5044690F83C000025012817D0334B79
:10218000012684F83C60022084F83D0022689068B3
:10219000184020F47F4090600868502838D00DDC4B
:1021A00020284FD005DC90B3102811D14AE002203E
:1021B00070BD302846D040280AD13BE060282FD09F
:1021C00070280DD0B0F5805F03D0B0F5005F12D05D
:1021D000012584F83D60002084F83C00284670BD4D
:1021E0004A682068D1E9021300F0A5FC20688168E4
:1021F00041F0770109E04A682068D1E9021300F054
:102200009AFC2068816841F480418160E1E719E02F
:10221000CA684968206800F0D5FD2068502106E0B2
:10222000CA684968206800F0DEFD2068602100F07F
:102230008BFCCEE7CA684968206800F0C3FD2068BF
:102240004021F4E7226801461046F0E788FFFEFFD0
:1022500070B5044690F83C0000260D4601280BD0CE
:10226000012084F83C000C2A4AD007DC82B1042A01
:1022700020D0082A06D131E0022070BD102A53D0A8
:10228000142A63D00126002084F83C00304670BD3B
:10229000206800F061FC2068816941F008018161DB
:1022A0002068816921F00401816120682A698169BF
:1022B000114311E0206800F089FC2068816941F435
:1022C000006181612068816921F4806181612068F9
:1022D0002969826942EA01218161D4E7206800F01E
:1022E000B1FC2068C16941F00801C1612068C16981
:1022F00021F00401C16120682A69C169114311E01C
:10230000206800F0DBFC2068C16941F40061C16114
:102310002068C16921F48061C16120682969C269AE
:1023200042EA0121C161AEE7206800F0F3FC2068B9
:10233000416D41F0080141652068416D21F00401C3
:10234000416520682A69416D114311E0206800F061
:102350000DFD2068416D41F4006141652068416DCB
:1023600021F48061416520682969426D42EA0121BA
:10237000416588E710B5040003D094F83D0010B122
:1023800007E0012010BD002084F83C00204600F04A
:1023900022F8022084F83D002068211D00F058FB3F
:1023A000012084F8480084F83E0084F83F0084F857
:1023B000400084F8410084F8420084F8430084F827
:1023C000440084F8450084F8460084F8470084F807
:1023D0003D00002010BD704710B504464FF00202CA
:1023E00069B1042912D0082917D00C291CD0102952
:1023F00021D094F84300012824D0012010BD94F886
:102400003E000128F9D184F83E201DE094F83F00F9
:102410000128F2D184F83F2016E094F8400001280A
:10242000EBD184F840200FE094F841000128E4D17A
:1024300084F8412008E094F842000128DDD184F8B6
:10244000422001E084F843200122206800F066FB6E
:1024500017492068174A884201D0904203D1436C43
:1024600043F4004343642068884213D0B0F1804FA6
:1024700010D0114988420DD0104988420AD0104925
:10248000884207D0904205D00E49884202D00E49BA
:10249000884207D181680D4A1140062906D0B1F55E
:1024A000803F03D0016841F001010160002010BDB0
:1024B000000001400004014000040040000800400A
:1024C000000C0040004001400018004007000100DF
:1024D000FEE72DE9FE4F81460068882493468D88EB
:1024E0008C2204EBCB178A46C3689421BE46C4599C
:1024F000C3F30B432B4404F470441F04019702EB15
:10250000CB1240F80E4001EBCB13DAF800709C219F
:102510004FF0AC0C01EBCB1440F2077102910CEBC5
:10252000CB11D9F800C098250020CDF800C0A02616
:1025300005EBCB15DCF80CC006EBCB16CCF30B4C43
:102540000CF1010C07EB0C08DDF800C0019F48EA14
:1025500007084CF80E80D9F80070BAF80CC0B846DD
:10256000FF68C7F30A0767444FEA074E58F802703E
:1025700007F4704C48F802C0D9F800C0DAF80870C7
:10258000DCF80C80C8F30A0808F10108B84448EAEE
:102590000E084CF80280D9F80020D75827F007071A
:1025A000D750D9F80070DAF81020FA509AF8312094
:1025B0009AF818304FEA022C9AF83220120442EAB4
:1025C0000362D9F800301F5918519AF8303043EAA5
:1025D0000C031343D9F800201351D9F800205359A4
:1025E00023F0FF035351D9F80020DAF81430535187
:1025F000D9F800209359029CA3439351D9F8003095
:10260000DAE9072422439A51D9F800205358505050
:10261000D9F80020DAF824005050DAF81000C8B3D6
:1026200001283AD004283AD0022838D0032836D0DE
:10263000072834D00120D9F80030B02505EBCB11A4
:10264000B42284245D5802EBCB1205F0E0255D50E6
:10265000DAE9003504EBCB14EB1ABAF828504343FF
:102660004543D9F80000DB1C43EA05434350D9F841
:10267000000081586FF30A018150D9F80000DAF8A0
:102680002C108150D9F80000015941F0010101518D
:10269000BDE8FE8FFFE70420CDE70320CBE7022053
:1026A000C9E700007FB51C4800241A4A01250094A0
:1026B0000226019429040294039402600A034160F3
:1026C0004FF0407184600561846180F82040C661EC
:1026D000C460C0E90A1280F830504561FEF7BEF9C7
:1026E00008B1FEF7C4F80C486946CDE900450294EC
:1026F000FEF7C0F808B1FEF7BAF808206946CDE940
:1027000000060548FEF7B6F8002801D0FEF7AFF83E
:102710007FBD00000022014048FE0320094808B5A3
:10272000016841F48001016000680022114600F454
:10273000800000903820FEF7FFFEBDE808403820FA
:10274000FEF7ECBE303802402DE9F04186B014218E
:102750006846FDF7B5FE3248016841F002010160AC
:10276000016801F002010591016841F00101016079
:10277000016801F001010591016841F48061016087
:10278000016801F480610591016841F04001016038
:10279000016801F040010591016841F48071016018
:1027A000016801F480710591016841F400710160D4
:1027B000016801F400710591016841F08001016038
:1027C000016801F080010591016841F0200101607C
:1027D00000680122134F082100F0200005903846C0
:1027E000FEF714FD0122DFF8408016034046314613
:1027F000FEF70CFD00246946012508200090CDE974
:10280000015438460394FEF7DDFB00966946CDE996
:10281000015440460394FEF7D5FB06B0BDE8F081B5
:10282000303802400028024000200240F0B58DB050
:1028300034216846FDF744FE2A480024284B0B212A
:1028400000F1180E40F20B252B2240F227160360F0
:102850001723446040F21327846040F22B1CC460AD
:10286000046144618EE8EE1080F8344080F8354011
:1028700080F83640FEF734FD08B1FDF7F8FF4FF45D
:10288000F070194D4FF4887102270497CDE900408C
:10289000CDE90A0107A87A020523CDE9024180E8C3
:1028A0002C00FF260F48CDE905648DF8304000224A
:1028B0008DF8314069468DF83240FEF7E7FC08B1EB
:1028C000FDF7D5FF09480022099069460548FEF743
:1028D000DDFC002801D0FDF7CAFF0DB0F0BD0000FF
:1028E00000680140F0FE03200004012034020020B3
:1028F00010B58EB000241C21009407A80194029406
:102900000394049405940694FDF7DAFD1D486321B1
:1029100042F62F224FF08043C0E9024104618461F6
:10292000C0E90032FFF7E0FB08B1FDF7A0FF4FF46C
:102930008050009013486946FFF71AFC08B1FDF774
:1029400096FF1048FFF716FD08B1FDF790FF0D4800
:1029500004A904940694FFF775FB08B1FDF787FFFF
:1029600007AA60200A2182E813000648042207A96A
:102970000B94FFF76DFC002801D0FDF778FF0EB037
:1029800010BD000098FF0320FEE7FEE77047704788
:1029900010B5FEF747FCBDE8104001201DF0B4B8AB
:1029A00030B593B030216846FDF78AFD14210CA89C
:1029B000FDF786FD2048016841F080510160006804
:1029C00000F0805011901D48016841F440410160C1
:1029D000006802241923089300F44040119001205C
:1029E0004FF4D87582050104CDE90642CDE90954BA
:1029F0000B94CDE900016846FFF74EF908B172B6B5
:102A0000FEE7FEF7CBFD08B172B6FEE70EAD002182
:102A10004FF4A0524FF4805385E80E000F20CDE90B
:102A20000C0407210CA8FFF76DF8002801D072B63E
:102A3000FEE713B030BD0000403802400070004097
:102A40000248016841F470010160704788ED00E0C0
:102A5000F0B5274B4FF0804E264D02689842264E27
:102A6000264F274C09D0704507D0A84205D0B04268
:102A700003D0B84201D0A04205D1D1F804C022F061
:102A800070024CEA020298421BD0704519D0A8424D
:102A900017D0B04215D0B84213D0A04211D0194D72
:102AA000A8420ED0184DA8420BD0184DA84208D00D
:102AB000174DA84205D0174DA84202D0164DA84286
:102AC00003D1CD6822F440722A434D6922F080027E
:102AD0002A43026098428A68C2620A68826201D010
:102AE000A04201D10969016301214161F0BD0000EB
:102AF000000001400004004000080040000C0040BD
:102B000000040140004001400044014000480140F1
:102B100000180040001C00400020004010B5046A6E
:102B2000012301F01F018B409C4304628A40016A2B
:102B30001143016210BD42EA032283680A4323F471
:102B40007F410A4382607047826822F070020A4324
:102B500042F0070181607047F0B5026ADFF860C09B
:102B6000184F22F00102DFF860E00262066A426854
:102B7000836926F002060D68B8428C6803EA0C03EC
:102B800023F0030344EA060445EA030501D0704537
:102B900005D1CB6824F00804234323F00404B84291
:102BA00001D0704505D122F44076D1E90532334396
:102BB0001A4342608561496841630462F0BD0000C8
:102BC0008FFFFEFF0000014000040140F0B5026AE3
:102BD000194E1A4C22F01002DFF864E00262056A16
:102BE0004368826925F02005D1F808C0A0420F682B
:102BF00002EA060222F4407245EA0C1542EA072274
:102C000001D0704506D1CE6825F0800545EA06154D
:102C100025F04005A04201D0704507D1D1E9054615
:102C200023F4406343EA840343EA860343608261FA
:102C3000496881630562F0BDFF8FFFFE000001401F
:102C400000040140F0B5026A194F1A4E22F4807256
:102C5000DFF864E00262056A4368C26925F4007522
:102C6000D1F808C0B0420C6802EA070222F0030261
:102C700045EA0C2544EA020401D0704506D1CF682C
:102C800025F4006242EA072222F48065B04201D0B6
:102C9000704507D123F44052D1E9053642EA0312C8
:102CA00042EA06134360C4614968C1630562F0BD2E
:102CB0008FFFFEFF0000014000040140F0B5026AF2
:102CC000124B114F22F4805298420262046A426809
:102CD000C36924F400548E680D6803EA070323F4E3
:102CE000407344EA063443EA052302D0084DA84263
:102CF00004D14D6922F4804242EA85124260C361E8
:102D0000496801640462F0BDFF8FFFFE00000140CE
:102D100000040140F0B5026ADFF844C022F48032BA
:102D20000262056A4268446D25F400350E896045EB
:102D30000C4F0B6804EA070445EA064543EA04031E
:102D400002D0094CA04204D14C6922F4803242EAFC
:102D5000042242604365496881650562F0BD000058
:102D6000000001408FFFFEFF00040140F0B5026A41
:102D7000DFF844C022F480120262046A4268436DA4
:102D800024F400140E8960450C4F0D6803EA070314
:102D900044EA065443EA052302D0094DA84204D16F
:102DA0004D6922F4802242EA8522426043654968E7
:102DB000C1650462F0BD000000000140FF8FFFFE0E
:102DC0000004014010B5036A046A23F00A0324F0EA
:102DD0000104046284690B4324F0F00141EA02110A
:102DE0008161036210BD10B5036A23F01003036212
:102DF0008369046A23F4704324F0A00443EA023296
:102E0000826144EA0111016210BDFEE70907002852
:102E10004FEA116104DB00F1E02080F800147047F4
:102E200000F00F0000F1E02080F8141D704770B52D
:102E3000002504466FF02F0608E0206805EB8502A8
:102E4000411C216006EB420200788518206800785A
:102E500000F004F80028F0D1284670BD3038092869
:102E600001D8012070470020704700000848442125
:102E700010B500F0F7FB074800221E211CF09EFE53
:102E8000054CA06001F0AAFC0020207010BD0000DD
:102E900074010420954800089801002070B5B1F92C
:102EA0000040B2F900309C4200DD23460380B1F9B6
:102EB0000250B2F90240A54200DD2C464480B1F92F
:102EC0000460B2F90450AE4200DA35468580B1F9AB
:102ED0000610B2F90620914200DB1146C180AB42D8
:102EE0004FF0010001DC8C4200DD002070BDF8B520
:102EF0000D46B1F900100446B0F9000016468842AC
:102F000047DBB4F90210B5F90220914241DBB4F974
:102F10000410B5F9042091423BDCB4F90610B5F970
:102F20000620914235DC96B3ADF800003246608849
:102F30006946ADF80200284600F099F8002827D02D
:102F4000A0883246ADF8000069466088ADF80200FE
:102F5000284600F08CF800281AD020883246ADF8B8
:102F600000006946E088ADF80200284600F07FF8CE
:102F700000280DD0A0883246ADF800006946E088F0
:102F8000ADF80200284600F072F8002800D00120B9
:102F9000F8BD0020F8BDB0F90020B1F904309A4224
:102FA00013DCB0F90420B1F900309A420DDBB0F91E
:102FB0000220B1F906309A4207DCB0F90600B1F9F7
:102FC0000210884201DB0120704700207047F8B5ED
:102FD0000D46B1F900100446B0F9040016468842C7
:102FE00043DBB4F90600B5F9021088423DDBB4F9C1
:102FF0000000B5F90410884237DCB4F90210B5F9C5
:103000000620914231DC76B3ADF80000324660888C
:103010006946ADF80200284600F029F818BBA088E0
:103020003246ADF8000069466088ADF802002846D7
:1030300000F01DF8B8B920883246ADF800006946A6
:10304000E088ADF80200284600F011F858B9A088D1
:103050003246ADF800006946E088ADF80200284627
:1030600000F005F808B10020F8BD0120F8BD2DE9F9
:10307000FC410546B1F900000E461446B5F90010B2
:1030800088423ADBB5F90470B84236DCB6F9020082
:10309000B5F90230984230DBB5F9062090422CDCBD
:1030A000002C75DD781AD21A401C521C00B212B2E4
:1030B00000EBD07002EBD27240105210904200DB55
:1030C0001046844200DD0446ADF800102888002236
:1030D00031462044ADF804006888ADF802006888E5
:1030E0002044ADF806006846FFF7C1FF40B1BDF8C7
:1030F00004002044ADF804003FE00020BDE8FC815E
:10310000E88800223146001BADF80200E888ADF8DF
:1031100006006846FFF7ABFF28B1BDF80400204465
:10312000ADF8040011E0A88800223146001BADF87C
:103130000000A888ADF804006846FFF798FF50B17A
:10314000BDF80000001BADF80000BDF80200001B38
:10315000ADF8020016E068880022ADF802003146A2
:1031600068882044ADF806006846FFF780FF70B11C
:10317000BDF80000001BADF80000BDF806002044BB
:10318000ADF80600314668461AF0F4F8B6E7FFE7F6
:103190000120B3E710B5B1F90040B2F900309C420C
:1031A00000DA23460380B1F90240B2F902309C42B2
:1031B00000DA23464380B1F90440B2F904309C425E
:1031C00000DD23468380B1F90610B2F90620914252
:1031D00000DC1146C18010BDFEB507461CF08AFC1C
:1031E000354C00250646009537B1F86860603846D2
:1031F0001CF0B2FD606802E00FF00AFC606000693C
:1032000019F0BAFF6068406908B119F0B5FF60684D
:10321000C06919F0B1FF6068006A19F0ADFF60681D
:103220000169E1B31AF03CF91EF0CCF96068B0F81E
:10323000501199B30168097C890715D50FF046FC38
:10324000401E07B260680FF0FBFB401E009703B200
:10325000002201A811460DF09CF960680168CA6B54
:1032600001A9516004F05EF860684FF4807130305D
:1032700015F0F6FC6068202100F5987015F0F0FC60
:103280006068A0F8505130461CF02EFC0090606839
:103290000068436A13B122680099984700E007E08C
:1032A00015F06CFB00F036F8BDE8FE4000F006B803
:1032B000A0F85051FEBD00005800002070B50A4D26
:1032C0005FF00004C4EBC40655F8260008B115F001
:1032D000C9FB1C2105EB860015F0C2FC641CE4B29E
:1032E000042CEFD370BD0000500204200849496847
:1032F0000AE04A68824202D00A68824203D10A7E0A
:1033000042F001020A7649690029F2D170470000B3
:103310002C000020704700000148042100F0A2B9F1
:10332000680104200148202100F09CB9800104209C
:103330002DE9FF411D0004464FF00000DDE90A675A
:1033400002D1B6F5807F2BD003903B4601900290CE
:10335000ADF80C1000906846ADF804102946ADF8A1
:103360000A20ADF80E20324619F06AFF01A83B464C
:103370003246294619F064FF02A83B4632462946E8
:1033800019F05EFF03A83B463246294619F058FF64
:10339000BDF90030BDF90400834209DA1D4608E09A
:1033A000491EA180521EE28020806080BDE8FF811E
:1033B0000546BDF90820BDF90C108A4201DA16460F
:1033C00000E00E46B54203DA834206DA184604E00E
:1033D0008A4201DA104600E00846801E2080BDF9CE
:1033E0000030BDF90420934201DD1D4600E0154682
:1033F000BDF90800BDF90C10884201DD064600E069
:103400000E46B54205DD934201DD194604E0114642
:1034100002E0884200DD0146891CA180BDF902302E
:10342000BDF90620934201DA1D4600E01546BDF9BC
:103430000A00BDF90E10884201DA064600E00E4689
:10344000B54205DA934201DA194604E0114602E07A
:10345000884200DA0146891E6180BDF90230BDF95B
:103460000620934201DD1D4600E01546BDF90A0025
:10347000BDF90E10884201DD064600E00E46B54259
:1034800005DD934201DD194604E0114602E0884261
:1034900000DD0146891CE18088E700002DE9F0414C
:1034A000124C15460E4607461CF024FB80462B4660
:1034B00032463946204613F037FC20B1E16900203E
:1034C000A06251B110E02C21204615F0C9FB4FF04D
:1034D0000040A0620020BDE8F08140461CF004FBE3
:1034E000E06108B90120E0612046F4E7A40104206E
:1034F0000848142110B500F0B5F813F0DBFB40B11B
:103500000549016005494160054981600549C1607F
:1035100010BDFEE78C010420D5660108556A01083C
:10352000D16B0108A16601087FB504000E4603D1E6
:103530000FF06EFA04002ED00FF0DEFA00282AD029
:1035400094F82800400726D44FF0000526B3ADF8C4
:1035500000502046ADF802500FF072FA401EADF850
:10356000040020460FF0B2FA401E6A463146ADF81C
:10357000060002A8FFF792FC00280CD02068017C0E
:1035800089070CD5DDE9001260680123A4F85031E9
:10359000C4E90C1280BB7FBDA4F850517FBD826985
:1035A0000AB102A9904700260BE000BF04EBC60158
:1035B0000022303102A8FFF79AFC0028EED1761CD9
:1035C000B6B2B4F85001B042F0D880B2202804D28C
:1035D00004EBC000303002A904E004F13000694679
:1035E000A4F850510CF020FFB4F850116068491C49
:1035F000A4F850110028D1D01CF0BAFB7FBD70B5E3
:10360000054600F012F804460CE02146284600F07A
:103610001EF806462146284600F071F8204615F0AF
:1036200021FA3446002CF0D170BD002800D040684B
:1036300070470022034600B5FFF7F7FF03E0521C76
:10364000184600F004F80100F9D1104600BD0068EA
:10365000091D40587047006840587047002800D046
:103660008068704700224260C91C826021F003011B
:103670000160704770B504460068083015F066F9BF
:10368000050013D00022014620461DF0ABFB626806
:10369000294620461DF0A0FB616819B12A46204644
:1036A0001DF0A0FBA068656000B9A560284670BD4C
:1036B00070B504460068083015F048F9050013D0CD
:1036C0000022014620461DF087FBA26829462046BD
:1036D0001DF088FBA16819B12A4620461DF07CFB2D
:1036E0006068A56000B96560284670BD28B1416872
:1036F00009B9806808B1002070470120704770B593
:1037000004000ED0FFF791FF88424FF000022046E0
:1037100008D1FFF79CFF011E606001D000221EE06F
:10372000A26070BDFFF79AFF8842206808440AD162
:103730000168A16029B12046BDE8704000221DF05B
:103740004BBB626070BD05682046FFF780FF0646F0
:103750000246294620461DF03FFB2A4631462046B8
:10376000BDE870401DF03EBB10B50446006882689D
:103770000AB12146904720680068002801D02060E7
:10378000F5E710BD8068002801D0B0F91600704739
:103790008068002801D0807E8009704770B5164689
:1037A0000C46054651EA06001AD0284615F0A8FF37
:1037B000A86801233246018A21440182A868418A0F
:1037C000314441822146284618F0DCFA002228467E
:1037D0000B2112F02DFA012803D1284618F02CFAFB
:1037E000012070BD77B505000E4681B017D061226B
:1037F00017F07EFD040012D0206880B162222846B6
:10380000314617F075FD10F0FF0208D023682046FE
:10381000039998470090BDF80000ADF80C0003989C
:1038200004B070BD2DE9F04792B00746408C994630
:1038300090468A461A9E40F00400788438463A84BE
:10384000328917F055FDA7F8209005463289514678
:10385000384617F04DFD0446788CA54220F0040050
:10386000788403D12904B1EB044F68D0A7F82080F5
:1038700051463289384617F03BFD05468046514691
:103880003846A7F820900BF029F800682A463189BD
:103890001BF090F830890B2823D147F6FF794D456E
:1038A00001D04C451DD1384617F0DDFE00EBD0703D
:1038B0004510384616F0D7FD00EBD0704010C845D3
:1038C00006D1691C431C994200DA00E0194688467B
:1038D0004C4506D1691C421C914201DA6C1C00E087
:1038E00014461948FFF7C6FE05002BD02F60C5E926
:1038F00003843089A8806846C5F808A00CF0A4F8B5
:103900001248FF21CDE90050114802901148039060
:1039100000200890CDE9090130880B9070889DF84F
:10392000421040420C90F0680790002060F30001C4
:103930008DF842103069069068460CF0F9F812B024
:10394000BDE8F087FEE7000098010420114A020854
:10395000F54B0208514B020801481421FFF782BEC3
:10396000980104202DE9F84F042790460025894648
:1039700006462C46E5E000BFF16807EBC400085896
:1039800082017AD480B230EA090211D05FF00002DD
:1039900030EA08000ED0002082426ED051F834A0E8
:1039A00010216A4650461AF073FD002871D103E0D9
:1039B0000122EDE70120EFE711216A4650461AF097
:1039C00067FD002865D112216A4650461AF060FD55
:1039D00000285ED113216A4650461AF059FD00288E
:1039E00057D115216A4650461AF052FD002850D191
:1039F00014216A4650461AF04BFDE8BB0A216A467C
:103A000050461AF045FDB8BB6A216A4650461AF086
:103A10003FFD88BB6B216A4650461AF039FD58BB02
:103A200001216A4650461AF033FD28BB04216A463C
:103A300050461AF02DFDF8B902216A4650461AF098
:103A400027FDC8B903216A4650461AF021FD98B9EE
:103A500005216A4650461AF01BFD68B906216A46E0
:103A600050461AF015FD38B932216A4650461AF010
:103A70000FFD08B96A4601E00BE061E06D21504698
:103A80001AF006FD28B96C216A4650461AF000FD6E
:103A900010B10320BDE8F88F68216A4650461AF03D
:103AA000F7FCE8BB69216A4650461AF0F1FCB8BB46
:103AB0006D216A4650461AF0EBFC88BB6C216A46C1
:103AC00050461AF0E5FC58BB37216A4650461AF0BA
:103AD000DFFC28BB38216A4650461AF0D9FCF8B9F9
:103AE00035216A4650461AF0D3FCC8B940216A46CF
:103AF00050461AF0CDFC98B945216A4650461AF056
:103B0000C7FC68B941216A4650461AF0C1FC38B971
:103B100042216A4650461AF0BBFC08B96A4600E0EA
:103B20000AE0432150461AF0B3FC28B949216A46FD
:103B300050461AF0ADFC08B1022501E005B9012597
:103B4000641C708CC0F3C500A0423FF615AF284638
:103B5000A0E70000014840687047000058000020BE
:103B60007047C0F30410072800D9072070470000F1
:103B7000A0F57F41FF3905D0002804D0702803D27A
:103B800008490AE01F2070470749703880B2096869
:103B900029B1064A5268904201D2085C7047002061
:103BA000704700002C920208C4010020D8010020B8
:103BB0000448182110B5FFF755FD0349012008708E
:103BC00010BD000044010420E00100202DE9F04177
:103BD000050090460C4615D0FCF721FC0A4F06461E
:103BE00021462846BA689047BA68044628194146D3
:103BF00090470146701A03E06218AA5C2A55641CBB
:103C0000A042F9D2BDE8F081F40100202DE9F04195
:103C1000094D90460E461C46074619466A6890476D
:103C2000306020B1206800216A6838449047C8F8A5
:103C30000000BDE8F0810000F40100202DE9F04F04
:103C400087B01F4693468A4604464FF00001DDE9DF
:103C5000105805B1298064B1207800280AD0BAF143
:103C6000000F06D018F0060F4FF0000615D0002008
:103C700004E0002007B0BDE8F08F401C215C0A2959
:103C800004D00D2902D00029F7D100E0401C002DFE
:103C9000F0D04FF0FF312980ECE75FEA887001D562
:103CA00041F6FF77894608468DF81410049126E006
:103CB0000498CDF8189060B3002351460DF1180C0C
:103CC00005AACDE90223CDE9008C20443B465A46A3
:103CD0001CF090F90699A7EB0102314417B20EB21D
:103CE00088B104990144049120780A280BD00D284A
:103CF00009D0605C0A280ED00D280CD00846205C44
:103D000008B1002FD4DC049840B105B12E8004988E
:103D1000B0E70123D1E7481C0490F4E7064A04A960
:103D2000204652689047002D0146F0D000225046B0
:103D300012F08FF806B2E9E7F40100202DE9F04116
:103D40000600174688461ED0002F1CD0FCF767FBE4
:103D500004463846FCF763FB050014D00B4A2C449C
:103D60004146304692689047411903E0621BB25CBD
:103D70003255641EA142F9D930442A463946BDE87D
:103D8000F04114F035BFBDE8F0810000F4010020DF
:103D9000027823294FF0000302D0012A0ED012E04E
:103DA00032B1012A4FF0000104D0022A04D00AE007
:103DB000012106E0017006E00123FBE7202901D183
:103DC000022101700123184670472DE9F0410E468B
:103DD000804600213346024608461CF057FB002768
:103DE0000446401C14F0B2FD050008D0611C3346A7
:103DF00042462F551CF04AFB2846BDE8F081FEE7FD
:103E00002DE9F0471E4614460D468246DDF8209007
:103E100015E000BF4FEA54084A46504608FB0657D3
:103E200039469047002808DD44F30000C0EB5404F5
:103E300007EB0605A4F1010401E005DA4446002C75
:103E4000E8D12046BDE8F0873846FBE72DE9FC5F66
:103E50009B4681460CAB8A46DDE91160DDE90F57D0
:103E600093E812105FEA80784FF030031AD45EB105
:103E70005FEAC07808D000F00C0858EA0C0803D0BC
:103E8000761E01E00B55641CBC4204D2202CF9D3F1
:103E900001E00B55641C5FEAC07803D0B44201D244
:103EA000202CF6D35FEAC06825D55FEA40580AD4D3
:103EB0004CB1BC4201D0B44205D1641E03D0102DD8
:103EC00003D1641E04E0102D02D0022D0AD00EE0B2
:103ED000850603D4202C1ED2782506E0202C1AD289
:103EE000582502E0202C16D262250D55641C202C8A
:103EF00011D20B55641C202C0DD2BCF1000F01D047
:103F00002D2306E0430701D52B2302E0030702D54A
:103F100020230B55641CC846CDE900BA15468B46D4
:103F20008146AA46800714D1274607E02A46C446A0
:103F30006D1C2020DDE90031E0477F1CB742F5D33E
:103F400007E02A466D1C641EDDE900311BF8040001
:103F5000C047002CF5D15FEA897006D409E02A46F3
:103F60006D1C2020DDE90031C047A5EB0A00B042FE
:103F7000F5D32846BDE8FC9F2DE9F04F8FB0994658
:103F80008B46924686464FF00002DDE91818DDE9BF
:103F90001C63DDE91A4709B923F0100307AD580582
:103FA00000D5C9B1B1FBF4F004FB1010C0B20A286F
:103FB00001D2303009E05FEA836C02D54FF0410C4A
:103FC00001E04FF0610C60440A38B1FBF4F1A854F1
:103FD000521C09B1202AE5D3CDF808805946CDE915
:103FE0000563CDE90052CDE903474B465246704682
:103FF000FFF72CFF0FB0BDE8F08F2DE9FF4F8FB01A
:104000001CACDDE9239594E8030820AC94E8C004D7
:10401000002450EA010201D125F010050DF11C0821
:104020006A0502D550EA010217D032463B46FCF73A
:104030005BF9D2B20A2A01D2303206E0AB0601D5D2
:10404000412300E061231A440A3A08F80420641C62
:1040500050EA010201D0202CE7D3CDE900840FAF54
:10406000CDF808B0CDE90595CDE9036A97E80F00D2
:10407000FFF7ECFE13B0BDE8F08F9A4200D28854EF
:10408000704770472DE9FF4F89B0054692464FF0C3
:1040900000040A98002800D1F74D6EE1252804D0CD
:1040A0000A992246641C53462DE2491C4FF0000831
:1040B00008460C9101782B2919D004DC202919D04D
:1040C000232904D119E02D290ED0302909D000264A
:1040D000C8B2FEF7C3FEB0B10CA8FEF7A8FE0646B4
:1040E0001FE048F001010AE048F0020107E048F053
:1040F000040104E048F0080101E048F01001401C10
:1041000088460C90D6E70C9908782A2809D1169889
:1041100040C81690002E02DA764248F00208491C88
:104120000C910C984FF0000B01782E2919D1401CEE
:104130000C9048F480680078FEF790FE20B10CA83F
:10414000FEF775FE83460CE00C9801782A2908D109
:10415000169904C91691002A00DC0022401C9346DF
:104160000C900C9801786C290AD004DC68290FD0D7
:104170006A2919D128E0742929D07A2914D126E096
:10418000401C0C9048F4807801786C291CD00BE01E
:10419000401C0C9048F080080178682904D148F050
:1041A0004001401C88460C9002460078692822D0C5
:1041B00015DC62281FD00DDC252872D050281AD0BB
:1041C00058287FF46DAF16E048F40071E9E748F431
:1041D0008071E6E763287DD06428F2D10BE0732874
:1041E00079D004DC6F2806D07028EAD103E0752866
:1041F00001D07828E5D178280DD058280BD0702828
:104200000BD0502809D06F2816D0622816D00A216A
:1042100028F0100816E0102107E05378102148F428
:104220008878562B04D1521C0C921078582807D04D
:104230001078502804D005E0082108E0022106E0AB
:1042400048F020081078692803D0642801D028F0AD
:104250000C085FEA485001D528F001081078692859
:1042600020D064281ED056287ED05FEA88507CD5A6
:10427000169804ABC01D002283E8060820F0070052
:104280000292CDE9076800F10801534602681691D1
:104290004068CDE9002022460A992846FFF7ADFE86
:1042A00067E02BE15FEA885028D516984FF0000CA4
:1042B000C01D20F0070202F108001690D2E90002AA
:1042C000CDE9041CCDF818B0002ACDE9076803DA5F
:1042D000012602E09AE0C4E0002602960023194677
:1042E0001B1A914101DA114603E00021404261EBC3
:1042F000020153462246CDE90001CDE75FEAC850EE
:104300000FD5169A01CA1692CDE9021BC10F0028DB
:10431000CDE9046800DC40425346CDE90001224665
:1043200020E05FEA486005D5169810F8042B169037
:10433000D0B20BE05FEA086005D5169830F8042B80
:10434000169010B202E0169A01CA1692CDE9021B2D
:10435000C70F0028CDE9046800DC40425346CDE990
:1043600000072246284601E010E01FE00A99FFF707
:1043700003FE04460C98401C0C900C990878002809
:104380007FF48CAE544576D22246C0E01699AAEB53
:10439000040201C9169141680968009103680A98EE
:1043A00001192846FFF76EFE0444E3E75FEAC850B0
:1043B0000DD5CDE9021B16980022CDE90468011D38
:1043C000169153460068CDE900022246CAE75FEA2B
:1043D000486005D5169810F8042B1690D0B20BE063
:1043E0005FEA086005D5169830F8042B169090B255
:1043F00002E0169A01CA16920027CDE9021B534625
:104400002246CDE90007CDE90468ABE75FEA887092
:104410004FF0010706D509E022460A99641C53466D
:104420002020A847B74207F10107F5D31698224686
:10443000641C534610F8041B169001F0FF0C0A99F7
:104440006046A8475FEA887006D493E722460A9937
:10445000641C53462020A847B74207F10107F5D353
:1044600088E7169850F8049B1690BBF100004B4665
:1044700004D0024604E048E0834000084FF0FF32D9
:10448000484600E0401C017811B1521E511CF9D180
:10449000C71A5FEA485003D55F45584600D3074620
:1044A0005FEA887006D511E022460A99641C5346DB
:1044B0002020A847B74207F10107F5D306E009F12C
:1044C00001092246641C0A995346A84799F800003E
:1044D00028B15FEA4851F2D5BBF1010BEFD25FEA98
:1044E000887006D446E722460A99641C5346202069
:1044F000A847B74207F10107F5D33BE722460A99DF
:10450000641C53462520A84734E7AAF101020A9902
:1045100000205346A8470DB02046BDE8F08F4FF06D
:10452000000210B568B14B1E194200D0FEE70844E6
:10453000401E9843B0F5803F03D20C2800D80C20D1
:104540000246104610BD4A1E0844A0F10100114267
:1045500020EA020000D0FEE7704700002DE9F0419C
:104560000F4604460121418600252E460BE01B49DB
:10457000FBF7CEFF10B16D1CADB202E0608E401CA7
:104580006086761CB6B257F8260010B10178002973
:10459000EDD1208EA8421ED0A06A002610B114F0E2
:1045A00061FAA662E06A10B114F05CFAE662E80013
:1045B00014F0CCF9A06238B1680014F0C7F9E062D9
:1045C00018B1A16A11B102E0FEE7FEE7002569001B
:1045D00014F046FB2586BDE8F0810000F80D0108C7
:1045E0002DE9F84F8146407A0F4600F00700022877
:1045F00005D010469742804603DD3E4602E008465D
:10460000F8E716462A4C2B4B032000EB460222F01B
:104610000305D4E9012019681035411A05EB010C96
:10462000944503D2416821F0004122E0954219D817
:104630009A464FF0FF3B48196168884210D91E48DE
:1046400000226946CDF800B00AF09EFE1B48002209
:1046500069460AF099FEA168DAF80000091AEAE74B
:10466000A068DFE7284614F071F9C0B1416841F055
:104670000041416088EA670289EA02014268A0F8C5
:104680000E8002F040420160521C32F080414160D5
:10469000868105D500F110018160BDE8F88FFEE745
:1046A000A16801F1100282602944A160F5E70000D1
:1046B00060000020C001002031D60008E9F30008A6
:1046C00070B586B0444C002214238DF808204FF4B6
:1046D000B4768DF80C208DF8102090F83C20A57849
:1046E00002F00302012A23D0022A59D0AA4211D093
:1046F00010F8265F05EB051505EB4505B5FBF3F551
:104700002570407800EB001000EB4000B0FBF3F0A8
:104710006070A27004AA03A801EB4101CDE9000278
:104720004FF6FF70627800EA4100217802AB1AE090
:10473000AA4210D0858C05EB45056D02B5FBF6F558
:10474000A58090F8270000EB001000EB4000B0FBC4
:10475000F3F06070A27004AA03A802ABCDE90002D6
:104760006278C9B236E008F065FC9DF81010BDF81B
:1047700000309DF80C20C9089DF8080061F304037F
:104780009108C20898B261F34A1080B262F3CF2058
:10479000ADF8000080B20090BDF8000006B070BD1A
:1047A000AA4210D0858C05EB45056D02B5FBF6F5E8
:1047B000A58090F8260000EB001000EB4000B0FB55
:1047C000F3F02070A27004AA03A802ABCDE90002A6
:1047D000CAB22178A088C6E70C01002010B5084CA9
:1047E000012020700748FEF720FF0028A06803D0B2
:1047F000BDE810401BF0BCBABDE810401BF0ACBADD
:10480000980100207401042070B5044690F842001D
:10481000A26B810709D4B4F8401049B1A1F57F43D8
:10482000FF3B1BD0491EA4F84010B4F84010A9B9B2
:104830000AB1810712D516482146FEF760FFFFF73F
:10484000CDFFE16809B120468847216909B12046BA
:1048500088472046BDE8704014F004B9E16B002A97
:10486000C1F10001216311D0810702D4616B49427B
:104870002163A56A4110236A491CA362E36A61F3BC
:1048800041002562E26284F84200A36370BD00002B
:104890007401042070B5304D68681BF025F9064698
:1048A000687880F00100687048E00020287094F873
:1048B00042006978C0F380028A4243D061F38200EB
:1048C000216B84F84200020701EB060219D400298B
:1048D00017DC002A15DBC00709D1616939B1204610
:1048E0008847216AA26A014421621044A062A1683B
:1048F00009B12046884794F8420040F0080084F847
:104900004200206B8019206316D4E16A884200DDE2
:1049100021632046E16988470146606A884204D0E5
:10492000626861620AB120689047D4E90B01814254
:1049300002DB2046FFF768FF287818B10748FEF72A
:1049400074FE03E005482146FEF781FE0400ACD169
:104950001BF0D0F8686070BD98010020740104203D
:1049600070B5044640680D4608B1FFF7F9FF2268AC
:10497000002A04D029462046BDE87040104770BD8B
:1049800089B20BF0B6BC89B20BF0EFBC2DE9FF4F3A
:1049900097B016464FF00009DDE924B22B9B042B9B
:1049A000924612D0052B12D0062B13D0142B76D1A1
:1049B000012702251A9810FB06F00D901898401E4A
:1049C0000B90701E0A90002450E10027F1E70127A8
:1049D0000325EFE701270225FFF7BCF80068D0F8B0
:1049E0003890E7E726982799604361430BEB202234
:1049F0000AEB212110124FEA21287CD4189B9842FF
:104A000079DAB8F1000F76DBB045F9DAD2B2802A54
:104A1000C9B205DAC2F17F034FF0FF3C5A0004E04F
:104A200052004FF0010CA2F580720992802907DA3A
:104A3000C1F17F024FF0FF3107915100089105E06D
:104A40004900A1F580710122CDE907211A9A179931
:104A500008FB020310EB0C020C9203FB051E70D442
:104A600011460B9A91426CDC079A18EB020168D44C
:104A70000A9A914265DC1A9B002F079A12FB03F3F6
:104A80001CFB05E20E9203FB05E216926BD02B9AFB
:104A9000052A05D0142A0AD0062A53D060E0E9E09E
:104AA00016980E999EF802208078897813E01A9A59
:104AB000DDF85CC0514308FB02F30D9A0CEB420297
:104AC000C446DDF8688010440CFB082C1A5C085CB6
:104AD0000C991CF80110904209D0089B10FB03F3BD
:104AE0000898C0F5807012FB0030C0F30720914297
:104AF0000BD0099B00E09EE011FB03F30999C1F57F
:104B0000807112FB0131C1F3072108442A99400842
:104B100008555ED09EF801009EF8001001EB0020C1
:104B2000ADF8100016980178407801EB0020ADF840
:104B300014000E980178407801EB0020ADF80800D1
:104B40001FE047E0BEF800101FFA89F0814272D0E2
:104B50001699098881426ED00E99098881426AD0DF
:104B6000FF200146D1E7BEF80000FF21ADF810009C
:104B70000E980088ADF808001088ADF814002A9847
:104B80000155BDF81000BDF81410884208D1BDF8D9
:104B90000810884204D181B2299800EB440017E044
:104BA0000898C2B2DDE904100DF01AFB05900998CF
:104BB0000499C2B202980DF013FB05997F2202906E
:104BC0000DF00EFB00902998BDF8001000EB44009A
:104BD000018049E09EF801109EF800202B9B02EB1B
:104BE0000121299A89B2052B22F8141004D0062B32
:104BF00005D0142B09D10AE09EF802100FE01FFA2D
:104C000089F2914201D1002109E0FF2107E01A9BBE
:104C1000179908FB03120D9900EB4101515C10B983
:104C2000BCF1000F05DB0B9A904205D1BCF1000FDF
:104C300002DD09980DE014E0B8F1000F02D10798E9
:104C4000002805DB0A9A90450BD10798002808DD5B
:104C50000898C0F1FF0010FB01F0010A2A980155E5
:104C600002E02A9900200855641C24B22898844246
:104C7000FFF6B8AE1BB0BDE8F08F000010B5818F15
:104C800092B00446A9B168460AF0DEFE0B48012145
:104C9000CDE90040A08F0B9000200890CDE90901DC
:104CA000074807900748039068460AF041FF12B092
:104CB00010BD12B0BDE810401CF0DEB9F1100208C2
:104CC00007FB0008F310020810B50446406882088C
:104CD0000AD0496821F00301091D0844606020469C
:104CE00000F042F8204610BDFEE74068103120F089
:104CF0000300884201D301207047002070472DE94E
:104D0000FC470546486801AA0C4620F003006946A6
:104D10001BF00AFFDDE9007005EBC711804601EBCF
:104D20008009D9F83C0060B164B1C4E9020504F11E
:104D30000806C46004213046FFF705FC864202D015
:104D4000FEE7FEE7FEE70120C9F83C402A6905EBD3
:104D5000870100FA07F31A432A614A6900FA08F04A
:104D600002434A61BDE8FC8710B5044600F087F8AD
:104D7000046010BD2DE9FC4706464FF000000D0011
:104D800007460090019042D0802D2C460DF104087A
:104D9000E94607D328461FF033FE411F0120884013
:104DA000401E04444246494620461BF0BDFE009C7E
:104DB0000A2C2CDA06EB8400019A4FF0FF3140698F
:104DC00001FA02F210400CD1641C3069A140084085
:104DD0001DD01FF00DFE0446009006EB80004069D8
:104DE00070B11FF005FE06EBC411019001EB8001CC
:104DF000CF6B67B1796821F00301A94201D2FEE7C8
:104E0000FEE7009A0346394630461CF035FF384627
:104E1000BDE8FC8710B50446FFF7A6FF416841F0E6
:104E200002014160606840F00100606010BD10B593
:104E3000044600F024F8416821F0020141606068F6
:104E400020F00100606010BD70B506460D460846B2
:104E500000F015F8040010D02079C0070BD0686866
:104E600080080BD02146304600F03CF82146284609
:104E7000FFF72AFF0546284670BDFEE7FEE74268B9
:104E800000F1080122F00300001F0844910800D13E
:104E9000FEE7704770B50C0006464FF000001ED0CC
:104EA000F2B120791546C0071BD011462046FFF706
:104EB0001CFF78B12946204600F025F8054620461B
:104EC000FFF752FF6868294640F0020068603046EC
:104ED000FFF715FF2046FFF7AAFF04F1080070BD99
:104EE000FEE7FEE77CB50546486801AA0C4620F0BF
:104EF000030069461BF018FEDDE900232146284621
:104F00001CF0BAFE7CBD2DE9F0410D46044600F1CF
:104F10000801281F0E18606806F1080720F003003A
:104F2000401BA0F1040838460421FFF70CFB874220
:104F300000D0FEE7616808EB0500001D21F00301C9
:104F4000814200D0FEE7307900F0030040EA08001B
:104F5000706020F003000C2800D2FEE7207900F0FA
:104F60000300284360603046FFF754FF3046BDE839
:104F7000F08138B5044612F033F9054612F065F9B0
:104F80000028204605D0218FE18616F055FE01202D
:104F900038BD10F00FFC002820461ED010F0E2FAB9
:104FA000218FE08E81420CD020871C21E08E6A4642
:104FB0000090204610F03CFE0128E9D1204616F072
:104FC0003BFE284612F04DF90428E0D1204615F0AA
:104FD00045FA002111F0D4FAD9E710F047FCD6E7E2
:104FE00070B510F020FE054615F07EFA04462846FE
:104FF0000BF0BEFF01462046BDE8704001221AF0CA
:10500000A9B800002DE9F04F87B00D4600210446F5
:1050100015F058F960B32946204600F075FA294684
:10502000204600F06FF80021204616F05FF80021BE
:105030000590204616F002F900210490204615F054
:1050400044FF012800D0002000218046204616F0B1
:1050500039FA00210746204615F0B2FF42F2D17915
:1050600006464F450BD1608C400508D4012707E068
:1050700007B028461C21BDE8F04F13F0F1BD002712
:10508000204615F09DF9DFF878A0002183462046E0
:10509000BAF8042016F02CF9C2B22868D5F810C06E
:1050A000A968CDF800C0CDF80C80CDE90110059BB2
:1050B0003946584609F084FC4E45288304D1608C5B
:1050C000800501D4012600E00026204615F05EF997
:1050D000BAF8082000210746204616F009F96B6847
:1050E000C2B2E968002468698DE81B00049B314660
:1050F000384609F065FC688307B0BDE8F08F000012
:10510000800000202DE9F34F81B00C46019808F093
:10511000D9FE0646019815F053F98246304601F053
:1051200005F82061400013F03FFC2060206940003A
:1051300013F03AFC002541F69A79A0603AE000BFEE
:1051400036F91510DFF82481494532D1DFF820B156
:1051500000271FE00198394615F0B4F85946009031
:1051600016F0D1FAA8B9009808F0BEFE012810D1B7
:10517000009808F0AFFEA8420BD1009816F073FA21
:105180004045414601DA084602E0009816F06BFA05
:1051900080467F1C019815F0A7F8B842DAD8A168BC
:1051A000B8F1000F02DB21F8158002E0002021F8A1
:1051B00015006D1C2069A842C2D8002541F69B78D5
:1051C0002F4628464A4616E036F91010414504DBC2
:1051D0000D44A5F5F8559B3D0CE0914205D1A16821
:1051E00031F8101039440FB204E0A3680F443FB205
:1051F00023F81010401C21698142E5D80198002154
:1052000015F074FF2169C1F1010200FB02A0C01B6F
:1052100000B2002800DA00204FF0FF32002347469A
:10522000194613E036F911C0BC450EDBACF5F85C4D
:10523000D4F80880ACF19B0C0A460FFA8CF310FBF3
:1052400003FCBCFBF5FC28F811C0491CD4F810C0C5
:105250008C45E7D8002A07DBE91AA3684143B1FB74
:10526000F5F1401A23F81200BDE8FE8F01E0FFFFC0
:10527000010006002DE9F14F00221146009817F0B9
:105280005FFC0098002115F059FE002104460098AB
:1052900015F0E0FF20440FFA80F90098002115F086
:1052A000DDFE20440FFA80F8009815F0BBFDDFF812
:1052B000A0A000EB090101EB080005B200985446DC
:1052C00015F012F8002607462AE000982149806868
:1052D000006850F82600834616F015FAF8B95846CB
:1052E00016F002FD40BB0021584615F0BFFD18B373
:1052F000012821D002281FD003281DD000215846A4
:1053000016F0F8F858B9BBF81A10BBF81600081ACE
:10531000401C00B24844A04200DB044624B2761C84
:10532000BE42D2D3544504D004EB080000B2A842D8
:1053300000DC2846BDE8F88F0098BBF91A10B0F9D8
:105340001600081A411CA142E8DB0C46E6E7000003
:1053500001E0FFFF010004002DE9F84F0022804624
:10536000114617F0D7FB0021404615F0E7FD00215C
:105370000446404615F01AFF20440FFA80FA4046D2
:10538000002115F0CBFE20440FFA80F9404615F0BD
:1053900057FD00EB0901DFF868B101EB0A0005B227
:1053A0005C46404614F0A0FF00210746404615F039
:1053B0007AFD01284FF0000644D092E0D8F80800AA
:1053C0005049006850F82600009016F09CF9C0BBC8
:1053D000009816F089FC50B10098B8F91810B0F98F
:1053E0001400091A481CA0422ADB4C1C28E0009833
:1053F000002115F03BFD58B1032809D0062807D03D
:10540000082805D00098002116F06EF858B118E071
:105410000098B8F91810B0F91400081A411CA142FC
:105420000EDB0C460CE00098143000900BF077F87F
:105430005044A04204DB00980BF071F800EB0A0422
:1054400024B2761CBE42B9D35C4555D004EB0900AA
:105450004DE000BFD8F808002A49006850F826003F
:10546000009016F050F9C0BB009816F03DFC50B10A
:105470000098B0F91810B8F91400091A481CA04295
:105480002CDA20462BE00098002115F0EFFC58B1F3
:10549000012809D0042807D0072805D0009800214A
:1054A00016F028F858B11BE00098B0F91810B8F9B8
:1054B0001400091A481CA0420EDB4C1C0CE000989A
:1054C000143000900BF02BF84844A04204DB009805
:1054D0000BF025F800EB090424B201E0481C04B2EB
:1054E000761CBE42B6D35C4506D004EB0A0000B27F
:1054F000584501D0A84200DC2846BDE8F88F0000DE
:1055000001E0FFFF010004002DE9F84F0C4683463F
:1055100009F0DCF8064600F009FE6061400013F077
:1055200043FA60606069400013F03EFA002541F6DE
:105530009A79E0603AE000BF36F91510DFF8308163
:10554000494532D1DFF82CA100271FE039465846E3
:1055500014F0B8FE5146009016F0D5F8A8B900989E
:1055600009F040F9012810D1009809F031F9A8425A
:105570000BD1009814F077FF4045414601DA084608
:1055800002E0009814F06FFF80467F1C584614F02C
:10559000ABFEB842DAD8E168B8F1000F02DB21F8BF
:1055A000158002E0002021F815006D1C6069A842FA
:1055B000C2D8002541F69B782F4628464A4616E079
:1055C00036F91010414504DB0D44A5F5F8559B3D17
:1055D0000CE0914205D1E16831F8101039440FB266
:1055E00004E0E3680F443FB223F81010401C6169E7
:1055F0008142E5D80021584615F020FE81465846E4
:1056000014F0C4FE02466069C0F1010109FB0120EB
:10561000C01B00B2002800DA00204FF0FF32002348
:105620004746194614E000BF36F911C0BC450EDBF1
:10563000ACF5F85CD4F80C80ACF19B0C0A460FFA80
:105640008CF310FB03FCBCFBF5FC28F811C0491CD3
:10565000D4F814C08C45E7D8002A07DBE91AE368C0
:105660004143B1FBF5F1401A23F81200BDE8F88F71
:1056700001E0FFFF010006001CB50B8804892344EC
:10568000ADF800304B8844892344ADF802308B8854
:1056900004892344ADF80430C98843891944ADF81E
:1056A00006104369694698471CBD00002DE9FF4F6D
:1056B000C87891B00D46229CC007002801D0F3485D
:1056C00000E0F348089001D0F24800E0F2480A9068
:1056D00001D1F04800E0F0484FF010034FF00C0EFD
:1056E0000B9061884FF0000BA6885846D4F810C084
:1056F0005A46A1EB060109B212E000BF02EB820795
:10570000E66803EB870816F808805FEAC8780BD0D4
:105710004FF0080808EB8707F65B891B09B2521C9B
:105720009445EBD800224DE00EEB8707F65B304442
:1057300000B2F4E702EB8209E76803EB89060996F9
:10574000BA46BE5DF6073CD108B391FBF0F60EEB0E
:1057500089070D974FF0060808EB890800963AF87C
:1057600007C0042707EB89070CFB06FC3AF9086021
:1057700005960FFA8CF83AF90770464500DD464663
:10578000B74206DC059E464502DD474601E0FEE7DE
:1057900037460597474505D0099F4FF0010CE34672
:1057A0004AF807C0E7684FF0080C0CEB890C059E1F
:1057B00027F80C60E7688E1B0D997F5A31B2C01B29
:1057C00000B2521C26699642B4D8BBF1000F88D1B2
:1057D0001198002115F073FB012826D0002704AA98
:1057E0000020ADF80C0003A9ADF81000CDE90012BF
:1057F0002189B4F9022028780BB220991BF088FB8C
:10580000E878384207D0119814F0DAFDBDF80C1092
:105810000844ADF80C001399119814F053FD4FF49F
:10582000FA6806464FF0640B26E10127D7E79B494B
:10583000304615F068FF00287ED10021304615F073
:10584000A9FBE8B34FF000092169484611E000BF09
:10585000E26800EB800352F82320B24208D100EB4B
:105860008000E268082101EB800032F9009002E03C
:10587000401C8142ECD8E878C007708C02D040F41C
:10588000806001E040F4007070840A9906F1140011
:1058900082468847484528D0304616F0CDF9B08A70
:1058A0004946ADF83000F08AADF83200308BADF8E3
:1058B0003400708BADF836005046089A904700E0EF
:1058C0000FE0292130460CAA10F0B2F9304614F04E
:1058D0000BFE2221324610F0ABF9304616F0ACF93F
:1058E00003E0708C20F4C06070846978002005901B
:1058F000012911D0022917D10B9906F1140088470C
:105900000146B4F90000401C20F00100401A00EBF1
:10591000D07040F34F0006E00B9906F11400884761
:105920002188081A00B20590E87838420AD00A990E
:1059300006F11400884700E096E0BDF80C10081A44
:10594000ADF80C00002130466A2215F0D1FC0FFAA8
:1059500080FA304600216B2215F0CAFC0FFA80F95C
:10596000304615F080FE0C90304614F07CFD014668
:10597000CAF3413001280ED12AF4C04040450ADC68
:10598000B0F57A7F01DDC0F57A700C9A504390FB38
:10599000FBF00FFA80FAC9F3413001280DD129F448
:1059A000C040404509DCB0F57A7F01DDC0F57A7072
:1059B000484390FBFBF00FFA80F9B18A1E98F28AF7
:1059C000411A1F98EB785144A0EB020C08B2DA0799
:1059D0000CEB090319B2002A03D000BFBDF90C205B
:1059E00000E0059A10440FFA80FA01D0059801E012
:1059F000BDF90C0008440FFA80F95AEA09001AD0E0
:105A0000304616F019F9B08A338BF18A00EB0A029E
:105A1000B6F81AC05344B282494433830CEB0900F0
:105A2000F1827083304616F007F900234A4651464A
:105A3000304616F0A7F9E87838420CD10A9906F1F9
:105A4000140088472199BDF810200844BDF80C10B7
:105A50001044084406E0BDF810102198BDF80C2051
:105A60000844101AADF80C00E87813AAC0F38001BE
:105A7000119808F0F1FC0646002E04D0DDE9130170
:105A800088427FF4D4AE15B0BDE8F08FAB050108B5
:105A9000A105010843050108E90401080100060009
:105AA0002DE9F04F0E00054697B040D028682E83B0
:105AB00008B112F0D7FF06EB4601062000EB4100CB
:105AC00012F044FF286048B30222042102EB46038F
:105AD00001EB8604C118E96003194FF000040122AC
