:020000040800F2
:1000000000DB0420A9020008E325000829210008DC
:10001000E12500082D0700084B2A00080000000019
:10002000000000000000000000000000E7250008BC
:10003000B907000800000000E5250008E9250008D0
:10004000C3020008C3020008C3020008C30200087C
:10005000C3020008C3020008C3020008C30200086C
:10006000C3020008C3020008C3020008C30200085C
:10007000C3020008C3020008C3020008C30200084C
:10008000C3020008C3020008C3020008C30200083C
:10009000C3020008C3020008C3020008C30200082C
:1000A000C3020008C3020008C3020008C30200081C
:1000B000C3020008C3020008C3020008C30200080C
:1000C000C3020008C3020008C3020008C3020008FC
:1000D000C3020008C3020008C3020008C3020008EC
:1000E000C3020008C3020008C3020008C3020008DC
:1000F000C3020008C3020008C3020008C3020008CC
:10010000C3020008C3020008C3020008C3020008BB
:10011000C3020008C3020008C3020008C3020008AB
:1001200031070008C3020008C3020008C302000828
:10013000C3020008C3020008C3020008C30200088B
:10014000C3020008C3020008C3020008C30200087B
:10015000C3020008C3020008C3020008C30200086B
:10016000C3020008C3020008C3020008C30200085B
:10017000C3020008C3020008C30200080000000018
:10018000C3020008C3020008C3020008C30200083B
:10019000C3020008C3020008C3020008C30200082B
:1001A000C3020008C3020008C3020008C30200081B
:1001B000C3020008C3020008C3020008C30200080B
:1001C000C3020008C302000800F002F800F05CF867
:1001D0000AA090E8000C82448344AAF10107DA45A2
:1001E00001D100F051F8AFF2090EBAE80F0013F098
:1001F000010F18BFFB1A43F0010318473820040011
:10020000582004000A444FF0000C10F8013B13F092
:10021000070408BF10F8014B1D1108BF10F8015B5F
:10022000641E05D010F8016B641E01F8016BF9D152
:1002300013F0080F1EBF10F8014BAD1C0C1B09D1A9
:100240006D1E58BF01F801CBFAD505E014F8016B1B
:1002500001F8016B6D1EF9D59142D6D370470000AD
:100260000023002400250026103A28BF78C1FBD8BF
:10027000520728BF30C148BF0B6070471FB528F038
:10028000CFFB1FBD10B510BD00F079F91146FFF787
:10029000F5FF22F01FFA00F097F903B4FFF7F2FF21
:1002A00003BC00F09FF90000094880470948004757
:1002B000FEE7FEE7FEE7FEE7FEE7FEE7FEE7FEE716
:1002C000FEE7FEE704480549054A064B7047000073
:1002D00099260008C901000800C3042000DB04209F
:1002E00000CB042000CB042053EA020C00F069800C
:1002F0002DE9F04B4FF00006002B1FBFB3FA83F53A
:1003000003FA05F424FA05F65E4012BF1643B2FA6A
:1003100082F502FA05F4C5F120051EBF22FA05FC9C
:1003200044EA0C04203556EA044C4FEA144418BF42
:10033000641C4FF000084FF00009904271EB030C71
:1003400039D3002919BFB1FA81F701FA07F6B0FADB
:1003500080F700FA07F6C7F120071EBF20FA07FC56
:1003600046EA0C062037B6FBF4FCA7EB0507103F66
:1003700007F01F0BCBF120060CFA0BFB2CFA06F64C
:1003800044BFB3460026202FA4BF5E464FF0000BAB
:100390005BEA060C08BF4FF0010B19EB0B09ABFB36
:1003A000027C48EB0608C01B06FB02CC0BFB03CC0F
:1003B00071EB0C01C1E70B46024641464846BDE8D9
:1003C000F08B13B54FF000004FF00001AFF3008049
:1003D000BDE81C40704740EA0103024630B59B0768
:1003E00010D14FF0013400E008C208C91D1B9D4325
:1003F00015EAC41FF8D013F0FF0102F8011B0DD05D
:100400001B0AF8E711F8013B002B02F8013B05D06D
:1004100011F8013B002B02F8013BF3D130BD10B5C0
:10042000431C02E010F8011B71B18107FAD14FF0B3
:10043000013202C88C1A8C4314EAC211F9D0C01AD6
:100440000A0603D0C01E10BDC01A10BD0A0401D098
:10045000801E10BD0902FCD0401E10BD10B5203A10
:10046000C0F00B80B1E81850203AA0E81850B1E86D
:100470001850A0E81850BFF4F5AF5FEA027C24BF23
:10048000B1E81850A0E8185044BF18C918C0BDE81A
:1004900010405FEA827C24BF51F8043B40F8043BE3
:1004A00008BF7047D20728BF31F8023B48BF11F898
:1004B000012B28BF20F8023B48BF00F8012B7047F2
:1004C0004FF0000200B5134694469646203922BFED
:1004D000A0E80C50A0E80C50B1F12001BFF4F7AF38
:1004E000090728BFA0E80C5048BF0CC05DF804EB1A
:1004F000890028BF40F8042B08BF704748BF20F888
:10050000022B11F0804F18BF00F8012B704700003C
:100510004FF0013C50F8042B51F8043B9A4215D19E
:10052000A2EB0C03934313EACC130BD150F8042B2A
:1005300051F8043B9A4209D1A2EB0C03934313EA0E
:10054000CC13E7D04FF00000704700BFD01A01BABB
:10055000B1FA81F101F0180122FA01F0CB40C1F1AA
:100560002001DBB2C0B2C01A2CFA01F3D11A9143B8
:1005700011EAC311E6D1704770477047704775465E
:1005800000F02CF8AE4605006946534620F00700FF
:10059000854618B020B5FFF795FEBDE820404FF026
:1005A00000064FF000074FF000084FF0000B21F05D
:1005B0000701AC46ACE8C009ACE8C009ACE8C0092A
:1005C000ACE8C0098D46704710B50446AFF3008013
:1005D0002046BDE81040FFF760BE000000487047AD
:1005E0009CC2042001491820ABBEFEE72600020091
:1005F000704700004A496FF0706210B5D1F80433BB
:1006000023F44033C1F80433D1F80433446823435E
:10061000C1F8043301684B6823F480734B600168B0
:1006200003694C6844EA03234B6001684B6823F07C
:1006300040734B60016884684B6823434B600168DA
:100640008B6823F400638B600168C4688B68234364
:100650008B60816AD14201688A6822F070628A6088
:1006600001680DD0836A8A681A438A6001688A68C3
:1006700022F040528A600168C36A8A681A4302E025
:100680008A6822F040528A6001688A6822F0020279
:100690008A60016882698B6843EA42028A6090F846
:1006A00020100029016811D01E4A4B6843F40063F2
:1006B0004B6001684B6823F460434B600168446AF7
:1006C0004B6802EB443213434B6003E04A6822F468
:1006D00000624A600168144BCA6A22F47002CA625E
:1006E0000168848BCA6A03EB04531A43CA62016827
:1006F0008A6822F400728A60016890F830208B6862
:1007000043EA42228A6001688A6822F480628A6031
:10071000016840698A6842EA8020886010BD000054
:100720000020014000E0FFFF0000F0FFFEE70000B6
:10073000014800F0ADB9000008000420016818234A
:10074000CAB2103AB2FBF3F2054B6FF30901032A68
:100750009B5CC36500D9091D816508467047000090
:100760002A8A020810B583694FF0C074826A014674
:10077000002053B1B3F5005F15D072B1012A0CD03F
:10078000022A0AD0032A09D104E01AB1012A06D0AC
:10079000022A03D1C96AC90100D5012010BDC96A66
:1007A000A142FAD010BD002AF7D0012AF2D0022AC5
:1007B000F3D0032AF3D010BD704772B6FEE70000F5
:1007C000F8B50025009590F83C20012A1DD00122A3
:1007D00080F83C20664C0723D6070A68092A22D9EC
:1007E000B24220D007680A3A02EB420CFA6803FAD8
:1007F0000CF39A43FA600A68A24208D102680B7AA5
:10080000D76847EA0363D36022E00220F8BD076897
:100810000A3A8B6802EB4202D7F80CC0934043EAD5
:100820000C03FB6014E0076802EB4202D7F810C02B
:1008300093402CEA030CC7F810C003680F788A684D
:10084000D3F810C007EB4707BA4042EA0C021A611E
:100850004A681F23072A16D20768521E02EB820C31
:100860007A6B03FA0CF39A437A6303680F790A8868
:100870007F1ED3F834C092B207EB8707BA4042EA32
:100880000C025A632DE007680D2A15D2D21F02EB25
:10089000820C3A6B03FA0CF39A433A6302680F79BD
:1008A0000B88FF1FD2F830C09BB207EB8707BB4015
:1008B00043EA0C03136314E00D3A02EB820CFA6A6C
:1008C00003FA0CF39A43FA6203680F790A880D3F22
:1008D000D3F82CC092B207EB8707BA4042EA0C0269
:1008E000DA62244A0368934208D10B68B34205D107
:1008F000D2F8043323F44003C2F80433036893426C
:100900000ED10B68122B0BD1D2F8043323F4000361
:10091000C2F80433D2F8043343F48003C2F804333A
:100920000368934220D10B68A34201D0112B1BD145
:10093000D2F8043323F48003C2F80433D2F804332A
:1009400043F40003C2F804330968A1420CD10A49F8
:100950000A4A0968B1FBF2F101EB8101490000E0AC
:10096000491E00910029FBD180F83C500020F8BDC1
:1009700012000010002001400C00002040420F0037
:1009800070B504004FF0000503D0206C002610B1B4
:1009900007E0012070BD204600F01CF8666484F872
:1009A0003C60206CC00610D4206C20F4885040F0CD
:1009B000020020642046FFF71DFE6664206C20F0D4
:1009C000020040F00100206400E0012584F83C6052
:1009D000284670BDF0B587B0064614216846FFF77B
:1009E0006FFD25493068884244D12448016841F4AC
:1009F00080610160006800F4806005901F48143831
:100A0000016841F020010160016801F020010591B9
:100A1000016841F001010160006800254FF4806722
:100A2000009700F00100059003241548CDE9014529
:100A3000694600F06FF9012069468DE831001148E0
:100A400000F068F911484FF4807C0F4C8105C21406
:100A500084E823004B132046C4E90357C4E907C5C3
:100A60006562C4E9052300F0E3F808B1FFF7A5FECD
:100A7000B463A66307B0F0BD0022014044380240D1
:100A800000140240000002400800042010640240EC
:100A90002DE9F84304464FF00009644B0820CDF8D7
:100AA00000904FF41652A56D94F85C101B682E68E8
:100AB000B3FBF2F700FA01F131420FD021680A6866
:100AC00052070BD50A6822F004020A6094F85C1001
:100AD0008840A860606D40F00100606594F85C108B
:100AE0004FF0010808FA01F0304208D02168496946
:100AF000090604D5A860606D40F00200606594F8B6
:100B00005C1004208840304208D0216809688907B9
:100B100004D5A860606D40F00400606594F85C1036
:100B200010208840304218D021680968090714D580
:100B3000A86020680168490304D50068000308D54F
:100B4000A16C07E00168C90503D4016821F0080120
:100B50000160216C09B12046884794F85C10202080
:100B60008840304231D021680968C9062DD5A86077
:100B700094F8350005282068016806D0490347D558
:100B8000006800031DD4616C1CE021F016010160B7
:100B90002068416921F080014161206C08B9A06C96
:100BA00020B12068016821F00801016094F85C30F0
:100BB0003F229A40AA6084F8358084F83490216DF1
:100BC0001FE0E16B09B120468847606D00282BD0FB
:100BD000606DC00714D0052084F8350020680168D6
:100BE00021F0010101600098401C0090B84203D838
:100BF00020680068C007F6D184F8358084F8349006
:100C0000E16C002910D001B02046BDE8F043084750
:100C10000168C905D5D4036823F01003036084F884
:100C2000358084F83490CCE7BDE8F8830C000020D0
:100C30002DE9F047044600F097F9054664B102211A
:100C40004FF0000984F8351084F83490206801686A
:100C500021F0010101600EE00120BDE8F08700BF36
:100C600000F082F9401B052805D920216165032089
:100C700084F83500F1E720680068C007F0D1D4E9B6
:100C80000020D4E90251D4E9043C284304F11805BA
:100C900019430843116895E8E00140EA0C001C4B39
:100CA0002843194040EA060040EA0700B8F1040F63
:100CB00040EA010003D1D4E90B1319430843106043
:100CC00020680126656A4069042D20F0070045EA86
:100CD00000050CD1D4E90A01054341B12046FFF7D4
:100CE00041FD20B14020606584F83560B4E720689C
:100CF00045612046FFF722FD94F85C303F229A4080
:100D00008260C4F8549084F835600020A5E70000A4
:100D10003F8010F02DE9F84FDFF80CB201240325D5
:100D20004FF00F0A00220BF1040E00BF0B6804FA0B
:100D300002F63340B34278D10F7907F00307012F51
:100D400001D0022F1AD187684FEA4209D1F80CC0AE
:100D500005FA09F827EA08070CFA09FC4CEA070C1F
:100D6000C0F808C0476891F804C0B743CCF3001C32
:100D70000CFA02FC4CEA070CC0F804C00E79F643EA
:100D8000B6070BD0C6684FEA420C8F6805FA0CF81C
:100D900026EA080607FA0CF73743C7600E7906F013
:100DA0000306022E12D1D6084FEA427800EB8606DF
:100DB00000960F69D6F820904FEAD8660AFA06FC2A
:100DC000B74029EA0C063743009E37620F79066860
:100DD0004FEA420C07F0030705FA0CF807FA0CF784
:100DE00026EA0806374307604E6816F4403F1CD0D9
:100DF0004E4E376847F480473760366822F0030864
:100E0000970706F480460096494E3F0F4644B14688
:100E1000D6F80868DFF81C810AFA07FC404526EA84
:100E20000C0603D14FF0000C41E076E0DFF808C17A
:100E3000604502D14FF0010C39E0DFF800C1604598
:100E400002D14FF0020C32E0DFF8F4C0604502D16D
:100E50004FF0030C2BE0DFF8ECC0604502D14FF0FF
:100E6000040C24E0DFF8E0C0604502D14FF0050C2F
:100E70001DE0DFF8D8C0604502D14FF0060C16E047
:100E8000DFF8CCC0604502D14FF0070C0FE0DFF86F
:100E9000C4C0604502D14FF0080C08E0DFF8B8C0CC
:100EA000604502D14FF0090C01E04FF00A0C0CFA3A
:100EB00007FC4CEA060CC9F808C84F68DBF800606C
:100EC000FF0226EA030600D51E437746CBF80060F2
:100ED000D1F804C0DEF800605FEA8C2C26EA030635
:100EE00000D51E43DFF840C03E60ACF1040C4F68F3
:100EF000DCF80060BF0326EA030600D51E430A4F54
:100F0000CCF80060083FD1F804C03E685FEACC3CF2
:100F100026EA030600D51E433E60521C102AFFF449
:100F200005AFBDE8F88F0000083C0140443802409E
:100F3000003001400000024000040240000802406E
:100F4000000C024000100240001402400018024051
:100F5000001C024000200240002402400AB18161CE
:100F600070470904FBE700000148806870470000F3
:100F700000000020024881680278114481607047B7
:100F800000000020032010B500F09EF90F2000F0B3
:100F900005F800F053F9002010BD000070B50D4DAC
:100FA00004464FF47A700C4A29781268B0FBF1F0CD
:100FB000B2FBF0F000F0DAFE48B9102C07D20022A4
:100FC0002146501E00F060F900206C6070BD0120C9
:100FD00070BD0000000000200C0000202DE9F04151
:100FE000044690F8A00016460F4601281DD00125A2
:100FF00084F8A050022084F8A10006EB860000EBE4
:10100000C600342204EB80003830FFF727FA32465E
:101010003946204601F089F8216800204D6284F8A5
:10102000A15084F8A000BDE8F0810220FBE7000099
:101030002DE9F041040004D094F8A100002518B176
:1010400007E00120BDE8F081204684F8A05000F0C0
:101050006BF83448022184F8A110012202CC8B697C
:1010600023F070438B6194E84A001943E3681E4300
:1010700054F8043D31439E693143996121688B687E
:1010800003408B602168A68AA7698B683B4343EACB
:1010900006438B602168CB680340CB602168A38B3B
:1010A000276ACE683E4346EA0346CE6021680B6954
:1010B00003400B612368A68CA76A1969394341EA8A
:1010C0000641196121684B6903404B612068A38D7B
:1010D000266B4169314341EA03414161236894F839
:1010E000351094F83600DE6A000406F07F46DE62B2
:1010F000236840EA012094F83460D96A31430143FF
:10110000D9622068416B41F0060141632068816922
:1011100041F001018161C4F8A45084F8A1200020AD
:1011200090E7000000F800F070B5A8B00446142164
:1011300021A8FFF7C5F984216846FFF7C1F93949AD
:10114000206888426BD10225082000900024C82125
:10115000460368460522CDE905150123CDE907249C
:10116000CDE90A3600F0F8F808B1FFF726FB2E4863
:10117000016841F080610160006800F080602690A5
:1011800029481438016841F480610160016801F464
:1011900080612691016841F040010160016801F021
:1011A00040012691016841F480710160016801F4F9
:1011B00080712691016841F40071016000680E267B
:1011C000CDE9225400F400702690F72021901748B2
:1011D00021A9CDE92446FFF79DFD09214FF4805058
:1011E00021901348CDE92441CDE9225421A9FFF7EC
:1011F00091FD4FF48C4021900E4821A9CDE9225455
:10120000CDE92446FFF786FD48F67C6021900A4828
:1012100021A9CDE92254CDE92446FFF77BFD28B072
:1012200070BD0000006801404438024000280240C0
:101230000018024000200240002402400A4808B57D
:10124000016841F080510160006800F0805000901A
:101250000548001D016841F480410160006800F408
:101260008040009008BD000040380240002809DBA3
:10127000410900F01F028900012001F1E0219040A6
:10128000C1F80001704700000E4BF0B41B680D461A
:10129000C3F30223C3F10706042E00D90426191D47
:1012A000072901D2002300E0DB1E012404FA06F125
:1012B0009C40491E2940641E994014402143F0BCC3
:1012C00001F0C4BB0CED00E0064900F0070210B5C8
:1012D0004FF6FF040868044B204040EA0220184300
:1012E000086010BD0CED00E00000FA051848F8B5E4
:1012F000016841F0805101600068164C00F0805098
:101300000090206840F480302060FFF72DFE4FF4FD
:101310007A76054605E000BFFFF726FE401BB04287
:101320000FD86068C003F7D5206840F40030206013
:10133000FFF71AFE054606E0FFF716FE401BB04217
:1013400001D90320F8BD60688003F5D50020F8BD01
:1013500040380240007000402DE9F84F0446007804
:10136000DFF824944FF000063746C0070ED0D9F8B6
:10137000001021F40001C9F80010D9F80010626BC8
:101380001143C9F80010606B00B90126FE4D2068BA
:10139000843500030ED5E16B286820F44010084323
:1013A0002860E06BB0F5801F01D010B102E001268B
:1013B00000E0012720684FF4800BC0020CD5216C9F
:1013C000286820F4400008432860206C584501D16B
:1013D000012601E000B901272068C10100D50126DE
:1013E000800666D5E8483830016841F080510160D8
:1013F0000068DFF898A300F080500090DAF8001041
:1014000041F48071CAF80010FFF7AEFD804605E098
:10141000FFF7AAFDA0EB080064287DD8DAF80000E9
:10142000C005F5D5DFF8608308F16808D8F800003A
:1014300010F440702AD0218E01F44071814225D0F1
:10144000D8F80010D8F8002021F4407142F480321E
:10145000C8F80020D8F8002022F48032C8F8002014
:10146000C8F80010D8F80000C0070FD0FFF77CFDC7
:10147000824607E0FFF778FDA0EB0A0141F28830D1
:101480008142CAD8D8F800008007F3D5206BC0F39A
:10149000012103297ED0D9F8001021F4F811C9F8F0
:1014A0000010228ED8F80010C2F30B021143C8F8C6
:1014B00000102078C00607D5286820F080702860CA
:1014C0002868A16B084328602188AF488830490408
:1014D00005D5626E016821F4403111430160218815
:1014E000090405D5A26E016821F440211143016071
:1014F0002168C90305D5E26E016821F4401111434A
:1015000001602168890305D5226F016821F440013B
:1015100011430160217800E016E1490605D5626CAF
:10152000016821F00301114301602178090605D506
:10153000A26C016821F00C01114301602188C905EA
:1015400005D5E26C016821F030011143016021886A
:10155000890505D5226D016821F0C00111430160A4
:101560002188490505D5626D016821F44071114358
:1015700001602188090505D5A26D016821F440614B
:10158000114301602188C90407D5E26D016821F487
:10159000405100E04AE0114301602188890405D5EB
:1015A000226E016821F44041114301602168490223
:1015B00005D5A26F016821F08061114301602168A7
:1015C0004FF0006A890209D5E26F016821F00061DD
:1015D00011430160E16F514500D1012721680A07DD
:1015E00000D50127490305D5626F016821F04071DC
:1015F000114301602168090206D5D4F880200168F2
:1016000021F0805111430160DFF88491012E02D056
:10161000206880017ED5D9F800004E4620F0806019
:10162000C9F80000FFF7A0FC80460FE0594AD9F83E
:101630000030104023F4F8120243C9F8002030E7CC
:10164000FFF792FCA0EB080064287DD83068000109
:10165000F6D421784C487C30C90712D0616B81B92F
:10166000237A62680168D0F800C09201C1F3014199
:1016700042EA0142CCF3036142EA016141EA0371AB
:10168000016021680A0303D5E26BB2F5801F04D024
:10169000C9021AD5216C594517D16368016894F8BD
:1016A0000CC002689B01C1F3014143EA0141C2F34E
:1016B000027241EA0C6141EA027101602968626AC2
:1016C00021F01F01521E114329602168C90110D564
:1016D000238A62680168D0F800C09201C1F30361F7
:1016E00042EA034242EA0162CCF3027142EA01712A
:1016F0000160216889010CD56168228A237B94F8F6
:1017000008C0890141EA024141EA036141EA0C71E2
:10171000016000E011E03168B04641F08061316065
:10172000FFF722FC064604E0FFF71EFC801B64283E
:101730000AD8D8F800000001F6D56FB3D9F8000038
:101740004E4620F0805000E07BE0C9F80000FFF733
:101750000BFC074605E000BFFFF706FCC01B642832
:101760006FD83068C0438000F6D5074821688030C4
:101770000A0301D5E26B1AB1C90225D5216C19BB48
:1017800063690168277E08E0083802400070004065
:1017900000380240FFFCFF0F5AE00268C1F301412C
:1017A0009B0143EA0143C2F3027143EA076242EA42
:1017B0000171016029686FF0FF03A26A21F4F851FA
:1017C00003EB0222114329602168890212D5E16FDF
:1017D00051450FD1238C6269016807689201C1F3FA
:1017E000036142EA034242EA0162C7F3027142EA3C
:1017F000017101602178090716D561690268D0F886
:1018000000C08B01277FC2F30362CCF3014143EA9E
:10181000014141EA026141EA077101602868E16A19
:1018200020F4403008432860306840F08050306039
:10183000FFF79AFB044607E0FFF796FB001B6428BE
:1018400002D90320BDE8F88F3068C0438000F3D48C
:101850000020F7E72DE9F04705000F4663D0444E1E
:10186000306800F00F00B84209D2306820F00F0055
:1018700038433060306800F00F00B84253D1286818
:101880003C4C810712D5400703D5206840F4E05056
:1018900020602878000703D5206840F4604020606D
:1018A000A968206820F0F000084320602878C0076D
:1018B0002AD0304968680839012810D00968022800
:1018C00010D0890700292EDA216821F00301014395
:1018D0002160FFF749FB804641F288390DE0096835
:1018E0008903EFE78901EDE7FFF73EFBA0EB080175
:1018F000494502D90320BDE8F0876868216801F0F6
:101900000C01B1EB800FEFD1306800F00F00B8424E
:101910000BD9306820F00F0038433060306800F099
:101920000F00B84201D00120E5E72878400705D52F
:10193000E968206820F4E050084320602878000718
:1019400006D52869216821F4604141EAC000206081
:1019500000F018F82168084AC1F30311515CC8402F
:101960000649086006480068FFF718FB0020C2E738
:10197000003C024008380240328A02080C00002075
:1019800004000020154910B51548096811F00C0233
:1019900013D01449042A0FD0082A0ED10F4C241F4B
:1019A0002268236802F03F025B0207D52068C0F37B
:1019B0008810A0FB010106E0084610BD2168C1F3B4
:1019C0008811A1FB00010023FEF78EFC2168C1F302
:1019D0000141491C4900B0FBF1F010BD083802403C
:1019E0000024F40040787D012DE9F84F04004FF009
:1019F00000076ED02078DFF868A3AAF10408C007BA
:101A0000A8F104054CD0DAF800105046C1F381016A
:101A1000012908D00068C0F3810002280AD1D8F853
:101A20000000400206D52868800339D56068002888
:101A3000DFD035E06068B0F5803F0BD010B1B0F575
:101A4000A02F11D0286820F480302860286820F466
:101A5000802002E0286840F480302860606890B1FF
:101A6000FFF782FA06460AE0286840F480202860E2
:101A7000F0E700BFFFF778FA801B642872D8286867
:101A80008003F7D50CE0FFF76FFA064605E000BFCC
:101A9000FFF76AFA801B6428F0D828688003F7D41F
:101AA0002078800742D5DAF80010504611F00C0F6C
:101AB00008D00068C0F3810002280BD1D8F80000DC
:101AC000400207D42868800718D5E068012800D1B3
:101AD00014E041E1E0680028286817D040F00100D8
:101AE0002860FFF741FA064605E000BFFFF73CFA21
:101AF000801B0228C2D828688007F7D5206929688A
:101B000021F0F80141EAC00028600FE020F0010058
:101B10002860FFF729FA064605E000BFFFF724FA20
:101B2000801B02281ED828688007F7D42078000779
:101B300029D58B4861696C3000298146016812D033
:101B400041F001010160FFF70FFA064605E000BF12
:101B5000FFF70AFA801B022804D8D9F80000800792
:101B6000F6D510E089E021F001010160FFF7FCF9F2
:101B7000064604E0FFF7F8F9801B02287DD8D9F863
:101B800000008007F6D4207840076BD5DFF8D091AD
:101B900009F13809D9F80000C0000BD4D9F80010B9
:101BA00041F08051C9F80010D9F80000012700F079
:101BB000805000906B480168C90512D401688346C3
:101BC00041F480710160FFF7CFF9064605E000BFE0
:101BD000FFF7CAF9801B64284FD8DBF80000C00566
:101BE000F6D55F4EA068683601280AD008B10528EE
:101BF00011D0306820F001003060306820F004001F
:101C000002E0306840F001003060A068A0B1FFF74A
:101C1000ABF983460CE0306840F004003060F0E738
:101C2000FFF7A2F9A0EB0B0141F28830814266D8A0
:101C300030688007F4D50EE0FFF796F9834607E099
:101C4000FFF792F9A0EB0B0141F28830814256D8A0
:101C500030688007F4D42FB1D9F8001021F08051FA
:101C6000C9F80010A069C8B3DAF80010C1F3810107
:101C700002294BD00228286800E040E020F0807064
:101C8000286003D0FFF770F904463BE0FFF76CF9DA
:101C9000064604E0FFF768F9801B02282FD8286861
:101CA0008001F7D4D4E90962D4E907012E4B570823
:101CB00094F82C20084303EB074343EA86110843BA
:101CC00040EA026040F00050C8F80000286840F088
:101CD00080702860FFF748F9044606E03EE000BF48
:101CE000FFF742F9001B022809D828688001F7D5C0
:101CF00034E000BFFFF738F9001B022802D90320A7
:101D0000BDE8F88F28688001F4D427E00128D8F8CE
:101D1000000021D0E16900F480028A421CD1216ACE
:101D200000F03F028A4217D1626A47F6C071014053
:101D3000B1EB821F10D1A16A4FF0FF3200F44033A3
:101D400002EB5101B3EB014F06D194F82C1000F0D7
:101D50007060B0EB016F01D00120D1E70020CFE728
:101D600008380240007000400000FFFF401EB0F144
:101D7000807F10B501D3012010BD4FF0E0246061D9
:101D80000F21601700F062FE0020A0610721216191
:101D900010BD0000F0B590F83C20012A3BD01F4E4A
:101DA000012480F83C40022280F83D2002681C4D4E
:101DB0005368B242D2F808C001D0AA4203D14F689A
:101DC00023F470033B430F6823F070031F435760F5
:101DD0000268B24213D0B2F1804F10D0114B9A4238
:101DE0000DD0114B9A420AD0104B9A4207D0AA420A
:101DF00005D00F4B9A4202D00E4B9A4204D189680B
:101E00002CF0800319439160002180F83D4080F858
:101E10003C100846F0BD0220F0BD0000000001406B
:101E2000000401400004004000080040000C004095
:101E3000004001400018004010B5040003D094F8A1
:101E40003D0010B107E0012010BD002084F83C00E7
:101E5000204600F023F8022084F83D002068211D70
:101E600000F022FC012084F8480084F83E0084F849
:101E70003F0084F8400084F8410084F8420084F870
:101E8000430084F8440084F8450084F8460084F850
:101E9000470084F83D00002010BD000008B5006830
:101EA000B0F1804F08D10548016841F0010101609F
:101EB000006800F00100009008BD000040380240BA
:101EC00070B5044690F83C000025012817D0334B2C
:101ED000012684F83C60022084F83D002268906866
:101EE000184020F47F4090600868502838D00DDCFE
:101EF00020284FD005DC90B3102811D14AE00220F1
:101F000070BD302846D040280AD13BE060282FD051
:101F100070280DD0B0F5805F03D0B0F5005F12D00F
:101F2000012584F83D60002084F83C00284670BDFF
:101F30004A682068D1E9021300F01CFC206881681F
:101F400041F0770109E04A682068D1E9021300F006
:101F500011FC2068816841F480418160E1E719E06B
:101F6000CA684968206800F04DFD2068502106E0ED
:101F7000CA684968206800F056FD2068602100F0BA
:101F800002FCCEE7CA684968206800F03BFD206883
:101F90004021F4E7226801461046F0E788FFFEFF83
:101FA00070B5044690F83C0000260D4601280BD081
:101FB000012084F83C000C2A4AD007DC82B1042AB4
:101FC00020D0082A06D131E0022070BD102A53D05B
:101FD000142A63D00126002084F83C00304670BDEE
:101FE000206800F0D9FB2068816941F00801816117
:101FF0002068816921F00401816120682A69816972
:10200000114311E0206800F001FC2068816941F46F
:10201000006181612068816921F4806181612068AB
:102020002969826942EA01218161D4E7206800F0D0
:1020300029FC2068C16941F00801C1612068C169BB
:1020400021F00401C16120682A69C169114311E0CE
:10205000206800F053FC2068C16941F40061C1614F
:102060002068C16921F48061C16120682969C26961
:1020700042EA0121C161AEE7206800F06BFC2068F4
:10208000416D41F0080141652068416D21F0040176
:10209000416520682A69416D114311E0206800F014
:1020A00085FC2068416D41F4006141652068416D07
:1020B00021F48061416520682969426D42EA01216D
:1020C000416588E710B5040003D094F83D0010B1D5
:1020D00007E0012010BD002084F83C00204600F0FD
:1020E00022F8022084F83D002068211D00F0DCFA6F
:1020F000012084F8480084F83E0084F83F0084F80A
:10210000400084F8410084F8420084F8430084F8D9
:10211000440084F8450084F8460084F8470084F8B9
:102120003D00002010BD7047FEE72DE9FE4F8146BF
:102130000068882493468D888C2204EBCB178A464E
:10214000C3689421BE46C459C3F30B432B4404F423
:1021500070441F04019702EBCB1240F80E4001EBD4
:10216000CB13DAF800709C214FF0AC0C01EBCB14D0
:1021700040F2077102910CEBCB11D9F800C0982501
:102180000020CDF800C0A02605EBCB15DCF80CC074
:1021900006EBCB16CCF30B4C0CF1010C07EB0C0847
:1021A000DDF800C0019F48EA07084CF80E80D9F816
:1021B0000070BAF80CC0B846FF68C7F30A07674456
:1021C0004FEA074E58F8027007F4704C48F802C006
:1021D000D9F800C0DAF80870DCF80C80C8F30A08F7
:1021E00008F10108B84448EA0E084CF80280D9F812
:1021F0000020D75827F00707D750D9F80070DAF831
:102200001020FA509AF831209AF818304FEA022C30
:102210009AF83220120442EA0362D9F800301F59BA
:1022200018519AF8303043EA0C031343D9F80020D0
:102230001351D9F80020535923F0FF035351D9F813
:102240000020DAF814305351D9F800209359029C39
:10225000A3439351D9F80030DAE9072422439A5175
:10226000D9F8002053585050D9F80020DAF824004B
:102270005050DAF81000C8B301283AD004283AD0F8
:10228000022838D0032836D0072834D00120D9F8C6
:102290000030B02505EBCB11B42284245D5802EB4D
:1022A000CB1205F0E0255D50DAE9003504EBCB14E4
:1022B000EB1ABAF8285043434543D9F80000DB1C19
:1022C00043EA05434350D9F8000081586FF30A01EF
:1022D0008150D9F80000DAF82C108150D9F80000AC
:1022E000015941F001010151BDE8FE8FFFE70420D3
:1022F000CDE70320CBE70220C9E700007FB51C48EB
:1023000000241A4A0125009402260194290402940B
:10231000039402600A0341604FF0407184600561DC
:10232000846180F82040C661C460C0E90A1280F868
:1023300030504561FEF724FB08B1FEF73EFA0C4829
:102340006946CDE900450294FEF73AFA08B1FEF776
:1023500034FA08206946CDE900060548FEF730FA50
:10236000002801D0FEF729FA7FBD000000220140BD
:10237000C0FF0320094808B5016841F480010160ED
:1023800000680022114600F4800000903820FEF71B
:102390007BFFBDE808403820FEF768BF30380240B8
:1023A0002DE9F04186B014216846FEF789F83248DD
:1023B000016841F002010160016801F0020105912C
:1023C000016841F001010160016801F0010105911E
:1023D000016841F480610160016801F48061059148
:1023E000016841F040010160016801F04001059180
:1023F000016841F480710160016801F48071059108
:10240000016841F400710160016801F400710591F7
:10241000016841F080010160016801F080010591CF
:10242000016841F02001016000680122134F08217A
:1024300000F0200005903846FEF790FD0122DFF8FD
:102440004080160340463146FEF788FD0024694669
:10245000012508200090CDE9015438460394FEF789
:1024600059FC00966946CDE9015440460394FEF7B5
:1024700051FC06B0BDE8F08130380240002802402F
:1024800000200240F0B58DB034216846FEF718F800
:102490002A480024284B0B2100F1180E40F20B258E
:1024A0002B2240F2271603601723446040F21327C3
:1024B000846040F22B1CC460046144618EE8EE101D
:1024C00080F8344080F8354080F83640FEF7B0FDA3
:1024D00008B1FEF772F94FF4F070194D4FF488719E
:1024E00002270497CDE90040CDE90A0107A87A0246
:1024F0000523CDE9024180E82C00FF260F48CDE9F5
:1025000005648DF8304000228DF8314069468DF821
:102510003240FEF763FD08B1FEF74FF9094800228B
:10252000099069460548FEF759FD002801D0FEF7DD
:1025300044F90DB0F0BD00000068014068000420BF
:1025400000040120C003002010B58EB000241C211F
:10255000009407A8019402940394049405940694AB
:10256000FDF7AEFF1D48632142F62F224FF0804356
:10257000C0E9024104618461C0E90032FFF75CFCFC
:1025800008B1FEF71AF94FF48050009013486946DD
:10259000FFF796FC08B1FEF710F91048FFF792FD1F
:1025A00008B1FEF70AF90D4804A904940694FFF750
:1025B000F1FB08B1FEF701F907AA60200A2182E8C1
:1025C00013000648042207A90B94FFF7E9FC002832
:1025D00001D0FEF7F2F80EB010BD0000100104208B
:1025E000FEE7FEE77047704710B5FEF7C3FCBDE895
:1025F000104001201FF064BB30B593B03021684615
:10260000FDF75EFF14210CA8FDF75AFF2048016872
:1026100041F080510160006800F0805011901D4829
:10262000016841F4404101600068022419230893C5
:1026300000F44040119001204FF4D8758205010448
:10264000CDE90642CDE909540B94CDE90001684675
:10265000FFF7CAF908B172B6FEE7FEF747FE08B108
:1026600072B6FEE70EAD00214FF4A0524FF4805336
:1026700085E80E000F20CDE90C0407210CA8FFF718
:10268000E9F8002801D072B6FEE713B030BD0000B3
:1026900040380240007000400248016841F4700177
:1026A0000160704788ED00E0F0B5274B4FF0804E99
:1026B000264D02689842264E264F274C09D0704579
:1026C00007D0A84205D0B04203D0B84201D0A04202
:1026D00005D1D1F804C022F070024CEA02029842FF
:1026E0001BD0704519D0A84217D0B04215D0B842BF
:1026F00013D0A04211D0194DA8420ED0184DA842B7
:102700000BD0184DA84208D0174DA84205D0174D40
:10271000A84202D0164DA84203D1CD6822F44072DF
:102720002A434D6922F080022A43026098428A6857
:10273000C2620A68826201D0A04201D109690163C4
:1027400001214161F0BD0000000001400004004093
:1027500000080040000C004000040140004001401F
:10276000004401400048014000180040001C0040A7
:102770000020004042EA032283680A4323F47F4199
:102780000A4382607047826822F070020A4342F076
:102790000701816070470000F0B5026ADFF860C091
:1027A000184F22F00102DFF860E00262066A426818
:1027B000836926F002060D68B8428C6803EA0C03B0
:1027C00023F0030344EA060445EA030501D07045FB
:1027D00005D1CB6824F00804234323F00404B84255
:1027E00001D0704505D122F44076D1E9053233435A
:1027F0001A4342608561496841630462F0BD00008C
:102800008FFFFEFF0000014000040140F0B5026AA6
:10281000194E1A4C22F01002DFF864E00262056AD9
:102820004368826925F02005D1F808C0A0420F68EE
:1028300002EA060222F4407245EA0C1542EA072237
:1028400001D0704506D1CE6825F0800545EA061511
:1028500025F04005A04201D0704507D1D1E90546D9
:1028600023F4406343EA840343EA860343608261BE
:10287000496881630562F0BDFF8FFFFE00000140E3
:1028800000040140F0B5026A194F1A4E22F480721A
:10289000DFF864E00262056A4368C26925F40075E6
:1028A000D1F808C0B0420C6802EA070222F0030225
:1028B00045EA0C2544EA020401D0704506D1CF68F0
:1028C00025F4006242EA072222F48065B04201D07A
:1028D000704507D123F44052D1E9053642EA03128C
:1028E00042EA06134360C4614968C1630562F0BDF2
:1028F0008FFFFEFF0000014000040140F0B5026AB6
:10290000124B114F22F4805298420262046A4268CC
:10291000C36924F400548E680D6803EA070323F4A6
:10292000407344EA063443EA052302D0084DA84226
:1029300004D14D6922F4804242EA85124260C361AB
:10294000496801640462F0BDFF8FFFFE0000014092
:1029500000040140F0B5026ADFF844C022F480327E
:102960000262056A4268446D25F400350E896045AF
:102970000C4F0B6804EA070445EA064543EA0403E2
:1029800002D0094CA04204D14C6922F4803242EAC0
:10299000042242604365496881650562F0BD00001C
:1029A000000001408FFFFEFF00040140F0B5026A05
:1029B000DFF844C022F480120262046A4268436D68
:1029C00024F400140E8960450C4F0D6803EA0703D8
:1029D00044EA065443EA052302D0094DA84204D133
:1029E0004D6922F4802242EA8522426043654968AB
:1029F000C1650462F0BD000000000140FF8FFFFED2
:102A00000004014010B5036A046A23F00A0324F0AD
:102A10000104046284690B4324F0F00141EA0211CD
:102A20008161036210BD10B5036A23F010030362D5
:102A30008369046A23F4704324F0A00443EA023259
:102A4000826144EA0111016210BDFEE70907002816
:102A50004FEA116104DB00F1E02080F800147047B8
:102A600000F00F0000F1E02080F8141D704770B5F1
:102A7000002504466FF02F0608E0206805EB85026C
:102A8000411C216006EB420200788518206800781E
:102A900000F004F80028F0D1284670BD303809282D
:102AA00001D80120704700207047000008484421E9
:102AB00010B500F0F7FB074800221E211FF05AF95D
:102AC000054CA06002F04CFA0020207010BD000000
:102AD000E4020420195000082003002070B5B1F969
:102AE0000040B2F900309C4200DD23460380B1F97A
:102AF0000250B2F90240A54200DD2C464480B1F9F3
:102B00000460B2F90450AE4200DA35468580B1F96E
:102B10000610B2F90620914200DB1146C180AB429B
:102B20004FF0010001DC8C4200DD002070BDF8B5E3
:102B30000D46B1F900100446B0F90000164688426F
:102B400047DBB4F90210B5F90220914241DBB4F938
:102B50000410B5F9042091423BDCB4F90610B5F934
:102B60000620914235DC96B3ADF80000324660880D
:102B70006946ADF80200284600F099F8002827D0F1
:102B8000A0883246ADF8000069466088ADF80200C2
:102B9000284600F08CF800281AD020883246ADF87C
:102BA00000006946E088ADF80200284600F07FF892
:102BB00000280DD0A0883246ADF800006946E088B4
:102BC000ADF80200284600F072F8002800D001207D
:102BD000F8BD0020F8BDB0F90020B1F904309A42E8
:102BE00013DCB0F90420B1F900309A420DDBB0F9E2
:102BF0000220B1F906309A4207DCB0F90600B1F9BB
:102C00000210884201DB0120704700207047F8B5B0
:102C10000D46B1F900100446B0F90400164688428A
:102C200043DBB4F90600B5F9021088423DDBB4F984
:102C30000000B5F90410884237DCB4F90210B5F988
:102C40000620914231DC76B3ADF800003246608850
:102C50006946ADF80200284600F029F818BBA088A4
:102C60003246ADF8000069466088ADF8020028469B
:102C700000F01DF8B8B920883246ADF8000069466A
:102C8000E088ADF80200284600F011F858B9A08895
:102C90003246ADF800006946E088ADF802002846EB
:102CA00000F005F808B10020F8BD0120F8BD2DE9BD
:102CB000FC410546B1F900000E461446B5F9001076
:102CC00088423ADBB5F90470B84236DCB6F9020046
:102CD000B5F90230984230DBB5F9062090422CDC81
:102CE000002C75DD781AD21A401C521C00B212B2A8
:102CF00000EBD07002EBD27240105210904200DB19
:102D00001046844200DD0446ADF8001028880022F9
:102D100031462044ADF804006888ADF802006888A8
:102D20002044ADF806006846FFF7C1FF40B1BDF88A
:102D300004002044ADF804003FE00020BDE8FC8121
:102D4000E88800223146001BADF80200E888ADF8A3
:102D500006006846FFF7ABFF28B1BDF80400204429
:102D6000ADF8040011E0A88800223146001BADF840
:102D70000000A888ADF804006846FFF798FF50B13E
:102D8000BDF80000001BADF80000BDF80200001BFC
:102D9000ADF8020016E068880022ADF80200314666
:102DA00068882044ADF806006846FFF780FF70B1E0
:102DB000BDF80000001BADF80000BDF8060020447F
:102DC000ADF80600314668461CF096FBB6E7FFE713
:102DD0000120B3E710B5B1F90040B2F900309C42D0
:102DE00000DA23460380B1F90240B2F902309C4276
:102DF00000DA23464380B1F90440B2F904309C4222
:102E000000DD23468380B1F90610B2F90620914215
:102E100000DC1146C18010BDFEB507461EF046FF1E
:102E2000354C00250646009537B1F8686060384695
:102E30001FF06EF8606802E011F00AFC6060006943
:102E40001CF054FA6068406908B11CF04FFA6068E1
:102E5000C0691CF04BFA6068006A1CF047FA6068B1
:102E60000169E1B31CF0F2FB21F054FB6068B0F89B
:102E7000501199B30168097C890715D511F046FCFA
:102E8000401E07B2606811F0FBFB401E009703B2C2
:102E9000002201A811460EF0EAFF60680168CA6BC3
:102EA00001A9516005F094FD60684FF480713030E5
:102EB00017F070FD6068202100F5987017F06AFD2A
:102EC0006068A0F8505130461EF0EAFE009060683D
:102ED0000068436A13B122680099984700E007E050
:102EE00017F0DAFB00F036F8BDE8FE4000F006B857
:102EF000A0F85051FEBD0000E001002070B50A4D61
:102F00005FF00004C4EBC40655F8260008B117F0C2
:102F100037FC1C2105EB860017F03CFD641CE4B275
:102F2000042CEFD370BD0000C00304200849496899
:102F30000AE04A68824202D00A68824203D10A7ECD
:102F400042F001020A7649690029F2D17047000077
:102F5000B4010020704700000148042100F0A2B92C
:102F6000D80204200148202100F09CB9F00204207E
:102F70002DE9FF411D0004464FF00000DDE90A671E
:102F800002D1B6F5807F2BD003903B460190029092
:102F9000ADF80C1000906846ADF804102946ADF865
:102FA0000A20ADF80E2032461CF00CFA01A83B4670
:102FB000324629461CF006FA02A83B46324629460C
:102FC0001CF000FA03A83B46324629461CF0FAF9E9
:102FD000BDF90030BDF90400834209DA1D4608E05E
:102FE000491EA180521EE28020806080BDE8FF81E2
:102FF0000546BDF90820BDF90C108A4201DA1646D3
:1030000000E00E46B54203DA834206DA184604E0D1
:103010008A4201DA104600E00846801E2080BDF991
:103020000030BDF90420934201DD1D4600E0154645
:10303000BDF90800BDF90C10884201DD064600E02C
:103040000E46B54205DD934201DD194604E0114606
:1030500002E0884200DD0146891CA180BDF90230F2
:10306000BDF90620934201DA1D4600E01546BDF980
:103070000A00BDF90E10884201DA064600E00E464D
:10308000B54205DA934201DA194604E0114602E03E
:10309000884200DA0146891E6180BDF90230BDF91F
:1030A0000620934201DD1D4600E01546BDF90A00E9
:1030B000BDF90E10884201DD064600E00E46B5421D
:1030C00005DD934201DD194604E0114602E0884225
:1030D00000DD0146891CE18088E700002DE9F04110
:1030E000124C15460E4607461EF0E0FD80462B4664
:1030F00032463946204615F07FFC20B1E1690020B8
:10310000A06251B110E02C21204617F043FC4FF093
:103110000040A0620020BDE8F08140461EF0C0FDE6
:10312000E06108B90120E0612046F4E714030420BF
:103130000848142110B500F0B5F815F023FC40B193
:103140000549016005494160054981600549C16043
:1031500010BDFEE7FC020420A583010825870108B5
:10316000A1880108718301087FB504000E4603D1D0
:1031700011F06EFA04002ED011F0DEFA00282AD0E9
:1031800094F82800400726D44FF0000526B3ADF888
:1031900000502046ADF8025011F072FA401EADF812
:1031A0000400204611F0B2FA401E6A463146ADF8DE
:1031B000060002A8FFF792FC00280CD02068017CD2
:1031C00089070CD5DDE9001260680123A4F85031AD
:1031D000C4E90C1280BB7FBDA4F850517FBD826949
:1031E0000AB102A9904700260BE000BF04EBC6011C
:1031F0000022303102A8FFF79AFC0028EED1761C9D
:10320000B6B2B4F85001B042F0D880B2202804D24F
:1032100004EBC000303002A904E004F1300069463C
:10322000A4F850510EF068FDB4F850116068491CC4
:10323000A4F850110028D1D01EF076FE7FBD70B5E5
:10324000054600F012F804460CE02146284600F03E
:103250001EF806462146284600F071F8204617F071
:103260008FFA3446002CF0D170BD002800D04068A1
:1032700070470022034600B5FFF7F7FF03E0521C3A
:10328000184600F004F80100F9D1104600BD0068AE
:10329000091D40587047006840587047002800D00A
:1032A0008068704700224260C91C826021F00301DF
:1032B0000160704770B504460068083017F0D4F913
:1032C000050013D00022014620461FF0BFFF6268B0
:1032D000294620461FF0B4FF616819B12A462046EE
:1032E0001FF0B4FFA068656000B9A560284670BDF6
:1032F00070B504460068083017F0B6F9050013D021
:103300000022014620461FF09BFFA2682946204666
:103310001FF09CFFA16819B12A4620461FF090FFBC
:103320006068A56000B96560284670BD28B1416835
:1033300009B9806808B1002070470120704770B556
:1033400004000ED0FFF791FF88424FF000022046A4
:1033500008D1FFF79CFF011E606001D000221EE033
:10336000A26070BDFFF79AFF8842206808440AD126
:103370000168A16029B12046BDE8704000221FF01D
:103380005FBF626070BD05682046FFF780FF06469C
:103390000246294620461FF053FF2A463146204662
:1033A000BDE870401FF052BF10B504460068826847
:1033B0000AB12146904720680068002801D02060AB
:1033C000F5E710BD8068002801D0B0F916007047FD
:1033D0008068002801D0807E8009704770B516464D
:1033E0000C46054651EA06001AD0284618F044F962
:1033F000A86801233246018A21440182A868418AD3
:1034000031444182214628461AF082FC0022284697
:103410000B2114F075FA012803D128461AF0D1FBCC
:10342000012070BD77B505000E4681B017D061222E
:1034300019F01EFF040012D0206880B162222846D5
:10344000314619F015FF10F0FF0208D0236820461E
:10345000039998470090BDF80000ADF80C00039860
:1034600004B070BD2DE9F04792B00746408C9946F4
:1034700090468A461A9E40F00400788438463A8482
:10348000328919F0F5FEA7F8209005463289514699
:10349000384619F0EDFE0446788CA54220F0040071
:1034A000788403D12904B1EB044F68D0A7F82080B9
:1034B00051463289384619F0DBFE054680465146B2
:1034C0003846A7F820900CF05FFD00682A46318945
:1034D0001DF034FA30890B2823D147F6FF794D458A
:1034E00001D04C451DD138461AF07DF800EBD07064
:1034F0004510384618F077FF00EBD0704010C845F3
:1035000006D1691C431C994200DA00E0194688463E
:103510004C4506D1691C421C914201DA6C1C00E04A
:1035200014461948FFF7C6FE05002BD02F60C5E9E9
:1035300003843089A8806846C5F808A00DF0ECFE29
:103540001248FF21CDE90050114802901148039024
:1035500000200890CDE9090130880B9070889DF813
:10356000421040420C90F0680790002060F3000188
:103570008DF842103069069068460DF041FF12B098
:10358000BDE8F087FEE70000080304204983020835
:103590002D8502088984020801481421FFF782BEA4
:1035A000080304202DE9F84F04279046002589469A
:1035B00006462C46E5E000BFF16807EBC40008585A
:1035C00082017AD480B230EA090211D05FF00002A1
:1035D00030EA08000ED0002082426ED051F834A0AC
:1035E00010216A4650461CF017FF002871D103E0F5
:1035F0000122EDE70120EFE711216A4650461CF059
:103600000BFF002865D112216A4650461CF004FFCA
:1036100000285ED113216A4650461CF0FDFE0028AA
:1036200057D115216A4650461CF0F6FE002850D1AD
:1036300014216A4650461CF0EFFEE8BB0A216A4698
:1036400050461CF0E9FEB8BB6A216A4650461CF0A1
:10365000E3FE88BB6B216A4650461CF0DDFE58BB7A
:1036600001216A4650461CF0D7FE28BB04216A4659
:1036700050461CF0D1FEF8B902216A4650461CF0B3
:10368000CBFEC8B903216A4650461CF0C5FE98B966
:1036900005216A4650461CF0BFFE68B906216A46FD
:1036A00050461CF0B9FE38B932216A4650461CF02B
:1036B000B3FE08B96A4601E00BE061E06D215046B7
:1036C0001CF0AAFE28B96C216A4650461CF0A4FEE4
:1036D00010B10320BDE8F88F68216A4650461CF0FF
:1036E0009BFEE8BB69216A4650461CF095FEB8BBBC
:1036F0006D216A4650461CF08FFE88BB6C216A46DD
:1037000050461CF089FE58BB37216A4650461CF0D3
:1037100083FE28BB38216A4650461CF07DFEF8B96E
:1037200035216A4650461CF077FEC8B940216A46EA
:1037300050461CF071FE98B945216A4650461CF06F
:103740006BFE68B941216A4650461CF065FE38B9E7
:1037500042216A4650461CF05FFE08B96A4600E006
:103760000AE0432150461CF057FE28B949216A4619
:1037700050461CF051FE08B1022501E005B90125B3
:10378000641C708CC0F3C500A0423FF615AF2846FC
:10379000A0E700000148406870470000E0010020F9
:1037A0007047C0F30410072800D9072070470000B5
:1037B000A0F57F41FF3905D0002804D0702803D23E
:1037C00008490AE01F2070470749703880B209682D
:1037D00029B1064A5268904201D2085C7047002025
:1037E00070470000E41A04084C0300206403002022
:1037F0000448182110B5FFF755FD03490120087052
:1038000010BD0000B40204206C0300202DE9F0413B
:10381000050090460C4615D0FCF701FE0A4F0646FF
:1038200021462846BA689047BA6804462819414696
:1038300090470146701A03E06218AA5C2A55641C7E
:10384000A042F9D2BDE8F081800300202DE9F041CB
:10385000094D90460E461C46074619466A68904731
:10386000306020B1206800216A6838449047C8F869
:103870000000BDE8F0810000800300202DE9F04F3A
:1038800087B01F4693468A4604464FF00001DDE9A3
:10389000105805B1298064B1207800280AD0BAF107
:1038A000000F06D018F0060F4FF0000615D00020CC
:1038B00004E0002007B0BDE8F08F401C215C0A291D
:1038C00004D00D2902D00029F7D100E0401C002DC2
:1038D000F0D04FF0FF312980ECE75FEA887001D526
:1038E00041F6FF77894608468DF81410049126E0CA
:1038F0000498CDF8189060B3002351460DF1180CD0
:1039000005AACDE90223CDE9008C20443B465A4666
:103910001EF04CFC0699A7EB0102314417B20EB21F
:1039200088B104990144049120780A280BD00D280D
:1039300009D0605C0A280ED00D280CD00846205C07
:1039400008B1002FD4DC049840B105B12E80049852
:10395000B0E70123D1E7481C0490F4E7064A04A924
:10396000204652689047002D0146F0D00022504674
:1039700014F0D7F806B2E9E7800300202DE9F04102
:103980000600174688461ED0002F1CD0FCF747FDC6
:1039900004463846FCF743FD050014D00B4A2C447E
:1039A0004146304692689047411903E0621BB25C81
:1039B0003255641EA142F9D930442A463946BDE841
:1039C000F04116F0AFBFBDE8F08100008003002099
:1039D000027823294FF0000302D0012A0ED012E012
:1039E00032B1012A4FF0000104D0022A04D00AE0CB
:1039F000012106E0017006E00123FBE7202901D147
:103A0000022101700123184670472DE9F0410E464E
:103A1000804600213346024608461EF013FE00276A
:103A20000446401C16F020FE050008D0611C3346F9
:103A300042462F551EF006FE2846BDE8F081FEE7FF
:103A40002DE9F0471E4614460D468246DDF82090CB
:103A500015E000BF4FEA54084A46504608FB065797
:103A600039469047002808DD44F30000C0EB5404B9
:103A700007EB0605A4F1010401E005DA4446002C39
:103A8000E8D12046BDE8F0873846FBE72DE9FC5F2A
:103A90009B4681460CAB8A46DDE91160DDE90F5794
:103AA00093E812105FEA80784FF030031AD45EB1C9
:103AB0005FEAC07808D000F00C0858EA0C0803D080
:103AC000761E01E00B55641CBC4204D2202CF9D3B5
:103AD00001E00B55641C5FEAC07803D0B44201D208
:103AE000202CF6D35FEAC06825D55FEA40580AD497
:103AF0004CB1BC4201D0B44205D1641E03D0102D9C
:103B000003D1641E04E0102D02D0022D0AD00EE075
:103B1000850603D4202C1ED2782506E0202C1AD24C
:103B2000582502E0202C16D262250D55641C202C4D
:103B300011D20B55641C202C0DD2BCF1000F01D00A
:103B40002D2306E0430701D52B2302E0030702D50E
:103B500020230B55641CC846CDE900BA15468B4698
:103B60008146AA46800714D1274607E02A46C44664
:103B70006D1C2020DDE90031E0477F1CB742F5D302
:103B800007E02A466D1C641EDDE900311BF80400C5
:103B9000C047002CF5D15FEA897006D409E02A46B7
:103BA0006D1C2020DDE90031C047A5EB0A00B042C2
:103BB000F5D32846BDE8FC9F2DE9F04F8FB099461C
:103BC0008B46924686464FF00002DDE91818DDE983
:103BD0001C63DDE91A4709B923F0100307AD580546
:103BE00000D5C9B1B1FBF4F004FB1010C0B20A2833
:103BF00001D2303009E05FEA836C02D54FF0410C0E
:103C000001E04FF0610C60440A38B1FBF4F1A854B4
:103C1000521C09B1202AE5D3CDF808805946CDE9D8
:103C20000563CDE90052CDE903474B465246704645
:103C3000FFF72CFF0FB0BDE8F08F2DE9FF4F8FB0DD
:103C40001CACDDE9239594E8030820AC94E8C0049B
:103C5000002450EA010201D125F010050DF11C08E5
:103C60006A0502D550EA010217D032463B46FCF7FE
:103C70003BFBD2B20A2A01D2303206E0AB0601D5B4
:103C8000412300E061231A440A3A08F80420641C26
:103C900050EA010201D0202CE7D3CDE900840FAF18
:103CA000CDF808B0CDE90595CDE9036A97E80F0096
:103CB000FFF7ECFE13B0BDE8F08F9A4200D28854B3
:103CC000704770472DE9FF4F89B0054692464FF087
:103CD00000040A98002800D1F74D6EE1252804D091
:103CE0000A992246641C53462DE2491C4FF00008F5
:103CF00008460C9101782B2919D004DC202919D011
:103D0000232904D119E02D290ED0302909D000260D
:103D1000C8B2FEF7C3FEB0B10CA8FEF7A8FE064677
:103D20001FE048F001010AE048F0020107E048F016
:103D3000040104E048F0080101E048F01001401CD3
:103D400088460C90D6E70C9908782A2809D116984D
:103D500040C81690002E02DA764248F00208491C4C
:103D60000C910C984FF0000B01782E2919D1401CB2
:103D70000C9048F480680078FEF790FE20B10CA803
:103D8000FEF775FE83460CE00C9801782A2908D1CD
:103D9000169904C91691002A00DC0022401C9346A3
:103DA0000C900C9801786C290AD004DC68290FD09B
:103DB0006A2919D128E0742929D07A2914D126E05A
:103DC000401C0C9048F4807801786C291CD00BE0E2
:103DD000401C0C9048F080080178682904D148F014
:103DE0004001401C88460C9002460078692822D089
:103DF00015DC62281FD00DDC252872D050281AD07F
:103E000058287FF46DAF16E048F40071E9E748F4F4
:103E10008071E6E763287DD06428F2D10BE0732837
:103E200079D004DC6F2806D07028EAD103E0752829
:103E300001D07828E5D178280DD058280BD07028EB
:103E40000BD0502809D06F2816D0622816D00A212E
:103E500028F0100816E0102107E05378102148F4EC
:103E60008878562B04D1521C0C921078582807D011
:103E70001078502804D005E0082108E0022106E06F
:103E800048F020081078692803D0642801D028F071
:103E90000C085FEA485001D528F00108107869281D
:103EA00020D064281ED056287ED05FEA88507CD56A
:103EB000169804ABC01D002283E8060820F0070016
:103EC0000292CDE9076800F1080153460268169195
:103ED0004068CDE9002022460A992846FFF7ADFE4A
:103EE00067E02BE15FEA885028D516984FF0000C68
:103EF000C01D20F0070202F108001690D2E900026E
:103F0000CDE9041CCDF818B0002ACDE9076803DA22
:103F1000012602E09AE0C4E000260296002319463A
:103F20001B1A914101DA114603E00021404261EB86
:103F3000020153462246CDE90001CDE75FEAC850B1
:103F40000FD5169A01CA1692CDE9021BC10F00289F
:103F5000CDE9046800DC40425346CDE90001224629
:103F600020E05FEA486005D5169810F8042B1690FB
:103F7000D0B20BE05FEA086005D5169830F8042B44
:103F8000169010B202E0169A01CA1692CDE9021BF1
:103F9000C70F0028CDE9046800DC40425346CDE954
:103FA00000072246284601E010E01FE00A99FFF7CB
:103FB00003FE04460C98401C0C900C9908780028CD
:103FC0007FF48CAE544576D22246C0E01699AAEB17
:103FD000040201C9169141680968009103680A98B2
:103FE00001192846FFF76EFE0444E3E75FEAC85074
:103FF0000DD5CDE9021B16980022CDE90468011DFC
:10400000169153460068CDE900022246CAE75FEAEE
:10401000486005D5169810F8042B1690D0B20BE026
:104020005FEA086005D5169830F8042B169090B218
:1040300002E0169A01CA16920027CDE9021B5346E8
:104040002246CDE90007CDE90468ABE75FEA887056
:104050004FF0010706D509E022460A99641C534631
:104060002020A847B74207F10107F5D3169822464A
:10407000641C534610F8041B169001F0FF0C0A99BB
:104080006046A8475FEA887006D493E722460A99FB
:10409000641C53462020A847B74207F10107F5D317
:1040A00088E7169850F8049B1690BBF100004B4629
:1040B00004D0024604E048E0C33C00084FF0FF3261
:1040C000484600E0401C017811B1521E511CF9D144
:1040D000C71A5FEA485003D55F45584600D30746E4
:1040E0005FEA887006D511E022460A99641C53469F
:1040F0002020A847B74207F10107F5D306E009F1F0
:1041000001092246641C0A995346A84799F8000001
:1041100028B15FEA4851F2D5BBF1010BEFD25FEA5B
:10412000887006D446E722460A99641C534620202C
:10413000A847B74207F10107F5D33BE722460A99A2
:10414000641C53462520A84734E7AAF101020A99C6
:1041500000205346A8470DB02046BDE8F08F4FF031
:10416000000210B568B14B1E194200D0FEE70844AA
:10417000401E9843B0F5803F03D20C2800D80C2095
:104180000246104610BD4A1E0844A0F1010011422B
:1041900020EA020000D0FEE7704700002DE9F04160
:1041A0000F4604460121418600252E460BE01B499F
:1041B000FCF7AEF910B16D1CADB202E0608E401C90
:1041C0006086761CB6B257F8260010B10178002937
:1041D000EDD1208EA8421ED0A06A002610B116F0A4
:1041E000CFFAA662E06A10B116F0CAFAE662E800F9
:1041F00016F03AFAA06238B1680016F035FAE062BB
:1042000018B1A16A11B102E0FEE7FEE700256900DE
:1042100016F0C0FB2586BDE8F0810000D426010819
:104220002DE9F84F8146407A0F4600F0070002283A
:1042300005D010469742804603DD3E4602E0084620
:10424000F8E716462A4C2B4B032000EB460222F0DF
:104250000305D4E9012019681035411A05EB010C5A
:10426000944503D2416821F0004122E0954219D8DB
:104270009A464FF0FF3B48196168884210D91E48A2
:1042800000226946CDF800B00CF0E6FC1B48002285
:1042900069460CF0E1FCA168DAF80000091AEAE7C7
:1042A000A068DFE7284616F0DFF9C0B1416841F0A9
:1042B0000041416088EA670289EA02014268A0F889
:1042C0000E8002F040420160521C32F08041416099
:1042D000868105D500F110018160BDE8F88FFEE709
:1042E000A16801F1100282602944A160F5E7000095
:1042F000E801002048030020DDEC0008B90C0108AB
:104300002DE9F14F96B0042116981AF03BFC16984F
:1043100017F010FC012107461AF044FCFE4A38460B
:10432000A2F126011AF078FC42F2640138461AF034
:1043300089FC002238464FF496711AF0E7FE3846A1
:1043400015F078F8F5A1044615F0F4FEF2490022C4
:104350002046223116F0BCFF01262046002500959C
:1043600002232A46CDE9015629461AF027FC384691
:104370000EF0A6FDE84CA63CE06213F0F5FEE16A03
:1043800013F090FEE06AB10216F066FF0327029672
:1043900001233946CDE90076E06A1A461AF00EFC90
:1043A0004FF0500B05210023CDE90016CDE9026B3B
:1043B000E06A1A4619460EF094FF4FF032084FF0AB
:1043C0000C0A0023CDE900A6CDE90268E06A0221CB
:1043D0001A460EF086FFE06A0C2200210EF09FFFC5
:1043E000E06A0C210EF0C6FF0023D049E06A1A46AD
:1043F00016F0E3FEE07810B1012803D007E04FF497
:10440000407101E04FF40071E06A0FF03AF8E06AA1
:10441000002205211AF002FE0022E06A11461AF07D
:10442000C0FEE06A1DF024FC00220146E06A0EF0A6
:10443000BBFC5021A0630A201BF0B6F802B2A16BAE
:10444000E06A0EF07BFF50210A201BF0ADF802B2AB
:10445000A16BE06A0EF072FF50210A201BF0A4F855
:1044600002B2A16BE06A0EF069FF50210A201BF036
:104470009BF802B2A16BE06A0EF060FF50210A20A7
:104480001BF092F802B2A16BE06A0EF057FF5021C8
:104490000A201BF089F802B2A16BE06A0EF04EFF11
:1044A00050210A201BF080F802B2A16BE06A0EF0E6
:1044B00045FF50210A201BF077F802B2A16BE06A99
:1044C0000EF03CFF50210A201BF06EF802B2A16BE7
:1044D000E06A0EF033FF50210A201BF065F802B2AB
:1044E000A16BE06A0EF02AFF50210A201BF05CF855
:1044F00002B2A16BE06A0EF021FF50210A201BF0EE
:1045000053F802B2A16BE06A0EF018FF50210A20A6
:104510001BF04AF802B2A16BE06A0EF00FFF16988A
:1045200017F008FB4FF40001159016F095FE159852
:1045300001211AF037FB159842F264011AF082FB50
:10454000159800224FF496711AF0E0FD724A159802
:10455000A2F126011AF060FB159814F06BFF74A10C
:10456000039015F0E7FD6C4900220398223116F004
:10457000AFFE00950022CDE9015603980223B14613
:1045800011461AF01BFB15980EF09AFC206313F0ED
:10459000EBFD216B13F086FD206B4FF4806116F06C
:1045A0005BFE01230296CDE90076206B03211A46BB
:1045B0001AF004FB05210023CDE90016CDE9026BBA
:1045C000206B1A4619460EF08CFE0023CDE900A69A
:1045D000CDE90268206B02211A460EF082FE42F2FB
:1045E0006402206B11461AF015FC206B02210EF0BC
:1045F00005FF206B002206210EF091FE206B0C219E
:104600000EF0B8FE00234949206B1A4616F0D5FD7E
:10461000206B4FF400710EF034FF206B0022052157
:104620001AF0FCFC0022206B11461AF0BAFDE0786B
:1046300010B1022809D00DE0206B00214FF4A02218
:104640001AF08EFD0022022101E000221021206BD1
:104650001AF086FD012112201AF07AFE002201468E
:10466000206B0EF0A1FB5021E0630A201AF09CFFA2
:1046700002B2E16B206B0EF061FE50210A201AF0AD
:1046800093FF02B2E16B206B0EF058FE50210A201E
:104690001AF08AFF02B2E16B206B0EF04FFE502140
:1046A0000A201AF081FF02B2E16B206B0EF046FE89
:1046B00050210A201AF078FF02B2E16B206B0EF055
:1046C0003DFE50210A201AF06FFF02B2E16B206B11
:1046D0000EF034FE50210A201AF066FF02B2E16BA0
:1046E000206B0EF02BFE50210A201AF05DFF02B263
:1046F000E16B206B0EF022FE50210A201AF054FFCD
:1047000002B2E16B206B0EF019FE50210A201AF064
:104710004BFF02B2E16B13E0B6000020556E6971E9
:1047200075652076697369746F727300695F00083C
:104730004D6F6E74686C7920726576656E75650074
:10474000206B0EF0FBFD50210A201AF02DFF02B263
:10475000E16B206B0EF0F2FD50210A201AF024FFCD
:1047600002B2E16B206B0EF0E9FD50210A201AF035
:104770001BFF02B2E16B206B0EF0E0FDE06A1DF062
:1047800077FA00220146206B0EF00EFB50212064C8
:104790000A201AF009FF02B2216C206B0EF0CEFD48
:1047A00050210A201AF000FF02B2216C206B0EF09B
:1047B000C5FD50210A201AF0F7FE02B2216C206BD1
:1047C0000EF0BCFD50210A201AF0EEFE02B2216C60
:1047D000206B0EF0B3FD50210A201AF0E5FE02B264
:1047E000216C206B0EF0AAFD50210A201AF0DCFE8D
:1047F00002B2216C206B0EF0A1FD50210A201AF0AC
:10480000D3FE02B2216C206B0EF098FD50210A20DD
:104810001AF0CAFE02B2216C206B0EF08FFD5021FF
:104820000A201AF0C1FE02B2216C206B0EF086FD48
:1048300050210A201AF0B8FE02B2216C206B0EF053
:104840007DFD50210A201AF0AFFE02B2216C206BD0
:104850000EF074FD50210A201AF0A6FE02B2216C5F
:10486000206B0EF06BFD50210A201AF09DFE02B263
:10487000216C206B0EF062FDF5A000901698F7A356
:10488000F9A2FDA102F0FCFD206217F0EDFD4FF44E
:10489000000116F0E1FC206A16F02EFB5A26804635
:1048A0004FF4877041466423CDE90006206A002258
:1048B00016F06EFC0FF013F800900023BDF8000016
:1048C0001A46ADF8040041460095206A16F06AFCCD
:1048D00004A80CF021FD64214FF6FF7A14200C90FF
:1048E000CDE90D010520ADF850A01AF04BFD009563
:1048F0000F220346206A414616F0BAFAE24941F215
:10490000040BCDF83CB0CDE9040140F68C201290A8
:1049100004A80CF075FD00201AF034FD6FF01307A9
:1049200000970F220346206A414616F0A1FAD749A4
:10493000CDE9040140F628210F914FF4486112910E
:104940000A9004A80CF05CFD09201AF01BFD034638
:10495000414678000090206A0F2216F089FACC496F
:10496000CDE904014FF42F600F904FF4E1601290F5
:1049700004A80CF045FDC7A000901698C8A3CBA2D0
:10498000CDA102F07DFD6062E178022905D217F029
:104990006BFD4FF4000116F05FFC606A16F0ACFA94
:1049A00003904FF4B470CDE9000603996423606A64
:1049B000002216F0EDFB0EF092FF00900023BDF8F0
:1049C0000000A846ADF804002E4600951A4603994B
:1049D000606A16F0E7FB00201AF0D4FC0346039946
:1049E0006FF009000090606A142216F041FAB54D8C
:1049F000002201462860606A16F06EFB29682722B3
:104A0000606A16F049FB05201AF0BCFC00961E22D5
:104A100003990346606A16F02BFA68602822014663
:104A2000606A16F059FB69684522606A16F034FB2B
:104A300009201AF0A7FC00970A2203990346606A2E
:104A400016F016FAA86046220146606A16F044FB8A
:104A5000A9686322606A16F01FFB9B4864212A46FE
:104A60001DF088F999A0009016989BA39EA2A1A181
:104A700002F006FDA062E178022905D217F0F4FCED
:104A80004FF4000116F0E8FBA76A0A26002531461C
:104A90002A4638461AF071FB2A46314638461AF043
:104AA00071FBA66A0A254FF4003729463A4630467C
:104AB0001AF097FB3A46294630461AF01DFBA06AC9
:104AC0003A4647F6FF711AF06CFBA06AFF213A469E
:104AD0001AF09FFA042112201AF022FC0146A06A63
:104AE0003A461AF085FA0FF01FF90146A06A3A46D5
:104AF0001AF01BFBA06A03213A461AF022FB01219F
:104B000012201AF00DFC4FF4C0220146A06A1AF0E0
:104B100057FBA06A16F0F0F98C210390DC203C23AF
:104B2000CDE9000103990A22A06A16F031FB0FF0CB
:104B3000FBF800901121BDF800000323009115221D
:104B4000ADF804000399A06A16F02CFB0FF0ECF806
:104B50000F21029100901620BDF800100423ADF83B
:104B600004101A4600900399A06A16F004FB002076
:104B70001AF008FCCDF800800A2203990346A06AC7
:104B8000454616F075F9002206460146A06A16F061
:104B9000A3FAA06A1422314616F07EFA03210020FF
:104BA0001AF0BEFB0321074600201AF0B9FBCDE93D
:104BB000009503990246A06A4E463B4616F0B8F9A6
:104BC000002207460146A06A16F086FAA06A14225F
:104BD000394616F061FA05201AF0D4FB00950C2234
:104BE00003990346A06A16F043F9142207460146CA
:104BF000A06A16F071FAA06A2822394616F04CFA1B
:104C0000032105201AF08CFB0321074605201AF02A
:104C100087FBCDE9006503990246A06A3B4616F082
:104C200087F9142207460146A06A16F055FAA06AD1
:104C30002822394616F030FA09201AF0A3FB009515
:104C40000A2203990346A06A16F012F9074659E0B2
:104C5000436F7374733A20353825000053616C65D7
:104C6000733A203434250000526576656E75653AD6
:104C700020363325000000004D6F6E74686C79207B
:104C80005461726765740000012D0208412D02080D
:104C9000812D02084D6F62696C653A2000000000AA
:104CA0005461626C65743A20000000004465736BC7
:104CB000746F703A2000000053657373696F6E73F0
:104CC000000000005C010420C12D020848696768EB
:104CD00020537065656400004E6F726D616C2053E7
:104CE00070656564000000004C6F77207370656527
:104CF000640000004E6574776F726B2053706565B9
:104D00006400000028220146A06A16F0E5F9A06AB6
:104D10003C22394616F0C0F9032109201AF000FBA5
:104D20000321074609201AF0FBFACDE90065039933
:104D30000246A06A3B4616F0FBF8282206460146CA
:104D4000A06A16F0C9F9A06A3C22314616F0A4F90F
:104D5000042112201AF0E4FA034603996FF01800B8
:104D60000090A06A042216F0A5F80646A06A14F086
:104D700061FB2FA1074615F0DDF92E4900223846C8
:104D800016F0A6FAA06A14F055FB2BA1804615F088
:104D9000D1F904A80CF0C0FA3C210A200C90CDE90E
:104DA0000D012748ADF850A0CDF83CB0CDE9046026
:104DB0004FF44870129004A80CF022FB16981AF0D9
:104DC00095FAE078012822D0206A18F00CFC0646FB
:104DD0000146206A19F036FF606A314619F032FF49
:104DE000A06A314619F02EFF37201AF0DBFA0A22AA
:104DF00003460221384616F0C2FA0A233946152224
:104E00004046009516F0C9FA17B0BDE8F08FC822E9
:104E1000206A114619F0FEFFC822606A114619F097
:104E2000F9FFC822A06A114619F0F4FFDCE7000080
:104E30002D000000D80000204D62707300000000BB
:104E4000F52E020870B586B0444C002214238DF86C
:104E500008204FF4B4768DF80C208DF8102090F8CF
:104E60003C20A57802F00302012A23D0022A59D05F
:104E7000AA4211D010F8265F05EB051505EB450594
:104E8000B5FBF3F52570407800EB001000EB400017
:104E9000B0FBF3F06070A27004AA03A801EB41011B
:104EA000CDE900024FF6FF70627800EA41002178F8
:104EB00002AB1AE0AA4210D0858C05EB45056D02C5
:104EC000B5FBF6F5A58090F8270000EB001000EB8D
:104ED0004000B0FBF3F06070A27004AA03A802AB1C
:104EE000CDE900026278C9B236E009F0F9FB9DF81D
:104EF0001010BDF800309DF80C20C9089DF808007E
:104F000061F304039108C20898B261F34A1080B2B9
:104F100062F3CF20ADF8000080B20090BDF8000031
:104F200006B070BDAA4210D0858C05EB45056D0218
:104F3000B5FBF6F5A58090F8260000EB001000EB1D
:104F40004000B0FBF3F02070A27004AA03A802ABEB
:104F5000CDE90002CAB22178A088C6E794020020F9
:104F600010B5084C012020700748FEF77EF9002894
:104F7000A06803D0BDE810401CF0D6BFBDE81040CB
:104F80001CF0C6BF20030020E402042070B50446D4
:104F900090F84200A26B810709D4B4F8401049B1DF
:104FA000A1F57F43FF3B1BD0491EA4F84010B4F885
:104FB0004010A9B90AB1810712D516482146FEF75B
:104FC000BEF9FFF7CDFFE16809B1204688472169A6
:104FD00009B1204688472046BDE8704015F0D0BB97
:104FE000E16B002AC1F10001216311D0810702D4D5
:104FF000616B49422163A56A4110236A491CA3627F
:10500000E36A61F341002562E26284F84200A3632F
:1050100070BD0000E402042070B5304D68681CF0DB
:105020003FFE0646687880F00100687048E0002086
:10503000287094F842006978C0F380028A4243D015
:1050400061F38200216B84F84200020701EB060243
:1050500019D4002917DC002A15DBC00709D16169C2
:1050600039B120468847216AA26A0144216210446E
:10507000A062A16809B12046884794F8420040F038
:10508000080084F84200206B8019206316D4E16A7E
:10509000884200DD21632046E16988470146606A55
:1050A000884204D0626861620AB120689047D4E9FE
:1050B0000B01814202DB2046FFF768FF287818B118
:1050C0000748FEF7D2F803E005482146FEF7DFF86F
:1050D0000400ACD11CF0EAFD686070BD2003002024
:1050E000E402042070B5044640680D4608B1FFF79D
:1050F000F9FF2268002A04D029462046BDE8704006
:10510000104770BD89B20CF05CBD89B20CF095BD42
:105110002DE9FF4F97B016464FF00009DDE924B2A4
:105120002B9B042B924612D0052B12D0062B13D0AA
:10513000142B76D1012702251A9810FB06F00D904A
:105140001898401E0B90701E0A90002450E1002712
:10515000F1E701270325EFE701270225FEF71AFBF8
:105160000068D0F83890E7E72698279960436143B4
:105170000BEB20220AEB212110124FEA21287CD4CC
:10518000189B984279DAB8F1000F76DBB045F9DA6E
:10519000D2B2802AC9B205DAC2F17F034FF0FF3CD8
:1051A0005A0004E052004FF0010CA2F580720992FF
:1051B000802907DAC1F17F024FF0FF3107915100DA
:1051C000089105E04900A1F580710122CDE9072190
:1051D0001A9A179908FB020310EB0C020C9203FBBE
:1051E000051E70D411460B9A91426CDC079A18EB9D
:1051F000020168D40A9A914265DC1A9B002F079A33
:1052000012FB03F31CFB05E20E9203FB05E2169270
:105210006BD02B9A052A05D0142A0AD0062A53D01F
:1052200060E0E9E016980E999EF80220807889786F
:1052300013E01A9ADDF85CC0514308FB02F30D9AA3
:105240000CEB4202C446DDF8688010440CFB082CCD
:105250001A5C085C0C991CF80110904209D0089B5C
:1052600010FB03F30898C0F5807012FB0030C0F308
:10527000072091420BD0099B00E09EE011FB03F355
:105280000999C1F5807112FB0131C1F3072108446E
:105290002A99400808555ED09EF801009EF800103B
:1052A00001EB0020ADF8100016980178407801EB72
:1052B0000020ADF814000E980178407801EB002032
:1052C000ADF808001FE047E0BEF800101FFA89F0B3
:1052D000814272D01699098881426ED00E99098850
:1052E00081426AD0FF200146D1E7BEF80000FF21CD
:1052F000ADF810000E980088ADF808001088ADF8E1
:1053000014002A980155BDF81000BDF81410884209
:1053100008D1BDF80810884204D181B2299800EB69
:10532000440017E00898C2B2DDE904100EF070FCEA
:10533000059009980499C2B202980EF069FC05998B
:105340007F2202900EF064FC00902998BDF80010B6
:1053500000EB4400018049E09EF801109EF8002017
:105360002B9B02EB0121299A89B2052B22F81410FC
:1053700004D0062B05D0142B09D10AE09EF80210A8
:105380000FE01FFA89F2914201D1002109E0FF21CB
:1053900007E01A9B179908FB03120D9900EB4101D6
:1053A000515C10B9BCF1000F05DB0B9A904205D19E
:1053B000BCF1000F02DD09980DE014E0B8F1000F18
:1053C00002D10798002805DB0A9A90450BD107986F
:1053D000002808DD0898C0F1FF0010FB01F0010A69
:1053E0002A98015502E02A9900200855641C24B22D
:1053F00028988442FFF6B8AE1BB0BDE8F08F0000DD
:1054000010B5818F92B00446A9B168460BF084FFB5
:105410000B480121CDE90040A08F0B90002008909F
:10542000CDE90901074807900748039068460BF04B
:10543000E7FF12B010BD12B0BDE810401EF0C4BDB1
:1054400041400208D71301084340020870B50546E1
:1054500012F013FA0446284612F04DFA0E2C0546B7
:105460004BD113F025FD13F064FD012845D1234CE9
:10547000E069002841D114F0DCFE022115F0ECFEB9
:1054800014F0D7FE0DF0A8FBE06114F0D2FE00226C
:105490007F2119F0BEFD122019F074FF064614F0AA
:1054A000C8FE0022314619F0A3FDE078F8B10128CA
:1054B00020D04FF496714FF4A572E06919F0AAFC60
:1054C000E069012240F2C6710DF0CAFBE0691E23BB
:1054D0000022092115F053FF09490022E0692B46FB
:1054E00015F06BFEE069BDE870400DF0ADBBC82261
:1054F000B421E2E7DC22C821DFE770BD1000002004
:10550000B55E000810B50446406882080AD04968B4
:1055100021F00301091D08446060204600F042F8B4
:10552000204610BDFEE74068103120F0030088429D
:1055300001D301207047002070472DE9FC47054644
:10554000486801AA0C4620F0030069461DF0B2FB32
:10555000DDE9007005EBC711804601EB8009D9F841
:105560003C0060B164B1C4E9020504F10806C460FE
:1055700004213046FEF707FE864202D0FEE7FEE732
:10558000FEE70120C9F83C402A6905EB870100FAD3
:1055900007F31A432A614A6900FA08F002434A6194
:1055A000BDE8FC8710B5044600F087F8046010BD24
:1055B0002DE9FC4706464FF000000D00074600901D
:1055C000019042D0802D2C460DF10408E94607D306
:1055D000284622F0B1FE411F01208840401E0444AD
:1055E0004246494620461DF065FB009C0A2C2CDAF9
:1055F00006EB8400019A4FF0FF31406901FA02F294
:1056000010400CD1641C3069A14008401DD022F02C
:105610008BFE0446009006EB8000406970B122F0DA
:1056200083FE06EBC411019001EB8001CF6B67B1E3
:10563000796821F00301A94201D2FEE7FEE7009A52
:105640000346394630461FF0BFFA3846BDE8FC87AE
:1056500010B50446FFF7A6FF416841F00201416022
:10566000606840F00100606010BD10B5044600F0B5
:1056700024F8416821F002014160606820F00100D7
:10568000606010BD70B506460D46084600F015F87E
:10569000040010D02079C0070BD0686880080BD0B8
:1056A0002146304600F03CF821462846FFF72AFF05
:1056B0000546284670BDFEE7FEE7426800F1080196
:1056C00022F00300001F0844910800D1FEE7704754
:1056D00070B50C0006464FF000001ED0F2B12079E4
:1056E0001546C0071BD011462046FFF71CFF78B1B6
:1056F0002946204600F025F805462046FFF752FFD0
:105700006868294640F0020068603046FFF715FFE0
:105710002046FFF7AAFF04F1080070BDFEE7FEE790
:105720007CB50546486801AA0C4620F0030069468E
:105730001DF0C0FADDE90023214628461FF044FA97
:105740007CBD2DE9F0410D46044600F10801281FFB
:105750000E18606806F1080720F00300401BA0F156
:10576000040838460421FEF70EFD874200D0FEE70C
:10577000616808EB0500001D21F00301814200D0A3
:10578000FEE7307900F0030040EA0800706020F086
:1057900003000C2800D2FEE7207900F00300284324
:1057A00060603046FFF754FF3046BDE8F08138B501
:1057B000044613F07DFB054613F0AFFB002820469E
:1057C00005D0218FE18618F0FCF9012038BD11F0D9
:1057D00059FE002820461ED011F02CFD218FE08EAE
:1057E00081420CD020871C21E08E6A460090204622
:1057F00012F086F80128E9D1204618F0E2F928468F
:1058000013F097FB0428E0D1204616F0E7FD0021B5
:1058100012F01EFDD9E711F091FED6E770B512F037
:105820006AF8054616F020FE044628460DF00EF8EC
:1058300001462046BDE8704001221BF0FFBC00007D
:105840002DE9F04F87B00D460021044616F0FAFC12
:1058500060B32946204600F075FA2946204600F03C
:105860006FF80021204617F001FC0021059020462A
:1058700017F0A4FC00210490204617F0E6FA012856
:1058800000D0002000218046204617F0DBFD0021DB
:105890000746204617F054FB42F2D17906464F45A1
:1058A0000BD1608C400508D4012707E007B02846DB
:1058B0001C21BDE8F04F15F06DB80027204616F00A
:1058C0003FFDDFF878A0002183462046BAF8042087
:1058D00017F0CEFCC2B22868D5F810C0A968CDF880
:1058E00000C0CDF80C80CDE90110059B3946584623
:1058F0000AF0BCFB4E45288304D1608C800501D49E
:10590000012600E00026204616F000FDBAF8082027
:1059100000210746204617F0ABFC6B68C2B2E9686D
:10592000002468698DE81B00049B314638460AF064
:105930009DFB688307B0BDE8F08F000008020020DF
:105940002DE9F34F81B00C46019809F011FE06468F
:10595000019816F0F5FC8246304601F086FD206184
:10596000400014F0AFFE20602069400014F0AAFE51
:10597000002541F69A79A0603AE000BF36F915108B
:10598000DFF82481494532D1DFF820B100271FE03C
:105990000198394616F056FC5946009017F073FEF0
:1059A000A8B9009809F0F6FD012810D1009809F077
:1059B000E7FDA8420BD1009817F015FE404541467F
:1059C00001DA084602E0009817F00DFE80467F1CC1
:1059D000019816F049FCB842DAD8A168B8F1000F76
:1059E00002DB21F8158002E0002021F815006D1C73
:1059F0002069A842C2D8002541F69B782F46284648
:105A00004A4616E036F91010414504DB0D44A5F571
:105A1000F8559B3D0CE0914205D1A16831F810107A
:105A200039440FB204E0A3680F443FB223F81010CA
:105A3000401C21698142E5D80198002117F016FB2E
:105A40002169C1F1010200FB02A0C01B00B20028C5
:105A500000DA00204FF0FF3200234746194613E0DA
:105A600036F911C0BC450EDBACF5F85CD4F8088003
:105A7000ACF19B0C0A460FFA8CF310FB03FCBCFB49
:105A8000F5FC28F811C0491CD4F810C08C45E7D8A3
:105A9000002A07DBE91AA3684143B1FBF5F1401A7C
:105AA00023F81200BDE8FE8F01E0FFFF01000600B1
:105AB0002DE9F14F00221146009819F007F80098DF
:105AC000002117F0FBF900210446009817F082FB33
:105AD00020440FFA80F90098002117F07FFA204443
